{
	"data": {
		"bytecode": {
			"linkReferences": {},
			"object": "608060405273326c977e6efc84e512bb9c30f76e30c160ed06fb6000806101000a81548173ffffffffffffffffffffffffffffffffffffffff021916908373ffffffffffffffffffffffffffffffffffffffff16021790555034801561006457600080fd5b5060008054906101000a900473ffffffffffffffffffffffffffffffffffffffff16600160006101000a81548173ffffffffffffffffffffffffffffffffffffffff021916908373ffffffffffffffffffffffffffffffffffffffff160217905550600160009054906101000a900473ffffffffffffffffffffffffffffffffffffffff1673ffffffffffffffffffffffffffffffffffffffff1663a9059cbb73569402e6d161155e6c77632ac35908305da4e7a060016040518363ffffffff1660e01b8152600401610138929190610211565b6020604051808303816000875af1158015610157573d6000803e3d6000fd5b505050506040513d601f19601f8201168201806040525081019061017b9190610277565b506102a4565b600073ffffffffffffffffffffffffffffffffffffffff82169050919050565b60006101ac82610181565b9050919050565b6101bc816101a1565b82525050565b6000819050919050565b6000819050919050565b6000819050919050565b60006101fb6101f66101f1846101c2565b6101d6565b6101cc565b9050919050565b61020b816101e0565b82525050565b600060408201905061022660008301856101b3565b6102336020830184610202565b9392505050565b600080fd5b60008115159050919050565b6102548161023f565b811461025f57600080fd5b50565b6000815190506102718161024b565b92915050565b60006020828403121561028d5761028c61023a565b5b600061029b84828501610262565b91505092915050565b610356806102b36000396000f3fe608060405234801561001057600080fd5b506004361061002b5760003560e01c806306fdde0314610030575b600080fd5b61003861004e565b604051610045919061017b565b60405180910390f35b6060600160009054906101000a900473ffffffffffffffffffffffffffffffffffffffff1673ffffffffffffffffffffffffffffffffffffffff166306fdde036040518163ffffffff1660e01b8152600401600060405180830381865afa1580156100bd573d6000803e3d6000fd5b505050506040513d6000823e3d601f19601f820116820180604052508101906100e691906102d7565b905090565b600081519050919050565b600082825260208201905092915050565b60005b8381101561012557808201518184015260208101905061010a565b60008484015250505050565b6000601f19601f8301169050919050565b600061014d826100eb565b61015781856100f6565b9350610167818560208601610107565b61017081610131565b840191505092915050565b600060208201905081810360008301526101958184610142565b905092915050565b6000604051905090565b600080fd5b600080fd5b600080fd5b600080fd5b7f4e487b7100000000000000000000000000000000000000000000000000000000600052604160045260246000fd5b6101f382610131565b810181811067ffffffffffffffff82111715610212576102116101bb565b5b80604052505050565b600061022561019d565b905061023182826101ea565b919050565b600067ffffffffffffffff821115610251576102506101bb565b5b61025a82610131565b9050602081019050919050565b600061027a61027584610236565b61021b565b905082815260208101848484011115610296576102956101b6565b5b6102a1848285610107565b509392505050565b600082601f8301126102be576102bd6101b1565b5b81516102ce848260208601610267565b91505092915050565b6000602082840312156102ed576102ec6101a7565b5b600082015167ffffffffffffffff81111561030b5761030a6101ac565b5b610317848285016102a9565b9150509291505056fea2646970667358221220a4617a94cf9cc6e0d161993e9e14728ba36c5d6305d0416112fd9cd00126c60364736f6c63430008120033",
			"opcodes": "PUSH1 0x80 PUSH1 0x40 MSTORE PUSH20 0x326C977E6EFC84E512BB9C30F76E30C160ED06FB PUSH1 0x0 DUP1 PUSH2 0x100 EXP DUP2 SLOAD DUP2 PUSH20 0xFFFFFFFFFFFFFFFFFFFFFFFFFFFFFFFFFFFFFFFF MUL NOT AND SWAP1 DUP4 PUSH20 0xFFFFFFFFFFFFFFFFFFFFFFFFFFFFFFFFFFFFFFFF AND MUL OR SWAP1 SSTORE POP CALLVALUE DUP1 ISZERO PUSH2 0x64 JUMPI PUSH1 0x0 DUP1 REVERT JUMPDEST POP PUSH1 0x0 DUP1 SLOAD SWAP1 PUSH2 0x100 EXP SWAP1 DIV PUSH20 0xFFFFFFFFFFFFFFFFFFFFFFFFFFFFFFFFFFFFFFFF AND PUSH1 0x1 PUSH1 0x0 PUSH2 0x100 EXP DUP2 SLOAD DUP2 PUSH20 0xFFFFFFFFFFFFFFFFFFFFFFFFFFFFFFFFFFFFFFFF MUL NOT AND SWAP1 DUP4 PUSH20 0xFFFFFFFFFFFFFFFFFFFFFFFFFFFFFFFFFFFFFFFF AND MUL OR SWAP1 SSTORE POP PUSH1 0x1 PUSH1 0x0 SWAP1 SLOAD SWAP1 PUSH2 0x100 EXP SWAP1 DIV PUSH20 0xFFFFFFFFFFFFFFFFFFFFFFFFFFFFFFFFFFFFFFFF AND PUSH20 0xFFFFFFFFFFFFFFFFFFFFFFFFFFFFFFFFFFFFFFFF AND PUSH4 0xA9059CBB PUSH20 0x569402E6D161155E6C77632AC35908305DA4E7A0 PUSH1 0x1 PUSH1 0x40 MLOAD DUP4 PUSH4 0xFFFFFFFF AND PUSH1 0xE0 SHL DUP2 MSTORE PUSH1 0x4 ADD PUSH2 0x138 SWAP3 SWAP2 SWAP1 PUSH2 0x211 JUMP JUMPDEST PUSH1 0x20 PUSH1 0x40 MLOAD DUP1 DUP4 SUB DUP2 PUSH1 0x0 DUP8 GAS CALL ISZERO DUP1 ISZERO PUSH2 0x157 JUMPI RETURNDATASIZE PUSH1 0x0 DUP1 RETURNDATACOPY RETURNDATASIZE PUSH1 0x0 REVERT JUMPDEST POP POP POP POP PUSH1 0x40 MLOAD RETURNDATASIZE PUSH1 0x1F NOT PUSH1 0x1F DUP3 ADD AND DUP3 ADD DUP1 PUSH1 0x40 MSTORE POP DUP2 ADD SWAP1 PUSH2 0x17B SWAP2 SWAP1 PUSH2 0x277 JUMP JUMPDEST POP PUSH2 0x2A4 JUMP JUMPDEST PUSH1 0x0 PUSH20 0xFFFFFFFFFFFFFFFFFFFFFFFFFFFFFFFFFFFFFFFF DUP3 AND SWAP1 POP SWAP2 SWAP1 POP JUMP JUMPDEST PUSH1 0x0 PUSH2 0x1AC DUP3 PUSH2 0x181 JUMP JUMPDEST SWAP1 POP SWAP2 SWAP1 POP JUMP JUMPDEST PUSH2 0x1BC DUP2 PUSH2 0x1A1 JUMP JUMPDEST DUP3 MSTORE POP POP JUMP JUMPDEST PUSH1 0x0 DUP2 SWAP1 POP SWAP2 SWAP1 POP JUMP JUMPDEST PUSH1 0x0 DUP2 SWAP1 POP SWAP2 SWAP1 POP JUMP JUMPDEST PUSH1 0x0 DUP2 SWAP1 POP SWAP2 SWAP1 POP JUMP JUMPDEST PUSH1 0x0 PUSH2 0x1FB PUSH2 0x1F6 PUSH2 0x1F1 DUP5 PUSH2 0x1C2 JUMP JUMPDEST PUSH2 0x1D6 JUMP JUMPDEST PUSH2 0x1CC JUMP JUMPDEST SWAP1 POP SWAP2 SWAP1 POP JUMP JUMPDEST PUSH2 0x20B DUP2 PUSH2 0x1E0 JUMP JUMPDEST DUP3 MSTORE POP POP JUMP JUMPDEST PUSH1 0x0 PUSH1 0x40 DUP3 ADD SWAP1 POP PUSH2 0x226 PUSH1 0x0 DUP4 ADD DUP6 PUSH2 0x1B3 JUMP JUMPDEST PUSH2 0x233 PUSH1 0x20 DUP4 ADD DUP5 PUSH2 0x202 JUMP JUMPDEST SWAP4 SWAP3 POP POP POP JUMP JUMPDEST PUSH1 0x0 DUP1 REVERT JUMPDEST PUSH1 0x0 DUP2 ISZERO ISZERO SWAP1 POP SWAP2 SWAP1 POP JUMP JUMPDEST PUSH2 0x254 DUP2 PUSH2 0x23F JUMP JUMPDEST DUP2 EQ PUSH2 0x25F JUMPI PUSH1 0x0 DUP1 REVERT JUMPDEST POP JUMP JUMPDEST PUSH1 0x0 DUP2 MLOAD SWAP1 POP PUSH2 0x271 DUP2 PUSH2 0x24B JUMP JUMPDEST SWAP3 SWAP2 POP POP JUMP JUMPDEST PUSH1 0x0 PUSH1 0x20 DUP3 DUP5 SUB SLT ISZERO PUSH2 0x28D JUMPI PUSH2 0x28C PUSH2 0x23A JUMP JUMPDEST JUMPDEST PUSH1 0x0 PUSH2 0x29B DUP5 DUP3 DUP6 ADD PUSH2 0x262 JUMP JUMPDEST SWAP2 POP POP SWAP3 SWAP2 POP POP JUMP JUMPDEST PUSH2 0x356 DUP1 PUSH2 0x2B3 PUSH1 0x0 CODECOPY PUSH1 0x0 RETURN INVALID PUSH1 0x80 PUSH1 0x40 MSTORE CALLVALUE DUP1 ISZERO PUSH2 0x10 JUMPI PUSH1 0x0 DUP1 REVERT JUMPDEST POP PUSH1 0x4 CALLDATASIZE LT PUSH2 0x2B JUMPI PUSH1 0x0 CALLDATALOAD PUSH1 0xE0 SHR DUP1 PUSH4 0x6FDDE03 EQ PUSH2 0x30 JUMPI JUMPDEST PUSH1 0x0 DUP1 REVERT JUMPDEST PUSH2 0x38 PUSH2 0x4E JUMP JUMPDEST PUSH1 0x40 MLOAD PUSH2 0x45 SWAP2 SWAP1 PUSH2 0x17B JUMP JUMPDEST PUSH1 0x40 MLOAD DUP1 SWAP2 SUB SWAP1 RETURN JUMPDEST PUSH1 0x60 PUSH1 0x1 PUSH1 0x0 SWAP1 SLOAD SWAP1 PUSH2 0x100 EXP SWAP1 DIV PUSH20 0xFFFFFFFFFFFFFFFFFFFFFFFFFFFFFFFFFFFFFFFF AND PUSH20 0xFFFFFFFFFFFFFFFFFFFFFFFFFFFFFFFFFFFFFFFF AND PUSH4 0x6FDDE03 PUSH1 0x40 MLOAD DUP2 PUSH4 0xFFFFFFFF AND PUSH1 0xE0 SHL DUP2 MSTORE PUSH1 0x4 ADD PUSH1 0x0 PUSH1 0x40 MLOAD DUP1 DUP4 SUB DUP2 DUP7 GAS STATICCALL ISZERO DUP1 ISZERO PUSH2 0xBD JUMPI RETURNDATASIZE PUSH1 0x0 DUP1 RETURNDATACOPY RETURNDATASIZE PUSH1 0x0 REVERT JUMPDEST POP POP POP POP PUSH1 0x40 MLOAD RETURNDATASIZE PUSH1 0x0 DUP3 RETURNDATACOPY RETURNDATASIZE PUSH1 0x1F NOT PUSH1 0x1F DUP3 ADD AND DUP3 ADD DUP1 PUSH1 0x40 MSTORE POP DUP2 ADD SWAP1 PUSH2 0xE6 SWAP2 SWAP1 PUSH2 0x2D7 JUMP JUMPDEST SWAP1 POP SWAP1 JUMP JUMPDEST PUSH1 0x0 DUP2 MLOAD SWAP1 POP SWAP2 SWAP1 POP JUMP JUMPDEST PUSH1 0x0 DUP3 DUP3 MSTORE PUSH1 0x20 DUP3 ADD SWAP1 POP SWAP3 SWAP2 POP POP JUMP JUMPDEST PUSH1 0x0 JUMPDEST DUP4 DUP2 LT ISZERO PUSH2 0x125 JUMPI DUP1 DUP3 ADD MLOAD DUP2 DUP5 ADD MSTORE PUSH1 0x20 DUP2 ADD SWAP1 POP PUSH2 0x10A JUMP JUMPDEST PUSH1 0x0 DUP5 DUP5 ADD MSTORE POP POP POP POP JUMP JUMPDEST PUSH1 0x0 PUSH1 0x1F NOT PUSH1 0x1F DUP4 ADD AND SWAP1 POP SWAP2 SWAP1 POP JUMP JUMPDEST PUSH1 0x0 PUSH2 0x14D DUP3 PUSH2 0xEB JUMP JUMPDEST PUSH2 0x157 DUP2 DUP6 PUSH2 0xF6 JUMP JUMPDEST SWAP4 POP PUSH2 0x167 DUP2 DUP6 PUSH1 0x20 DUP7 ADD PUSH2 0x107 JUMP JUMPDEST PUSH2 0x170 DUP2 PUSH2 0x131 JUMP JUMPDEST DUP5 ADD SWAP2 POP POP SWAP3 SWAP2 POP POP JUMP JUMPDEST PUSH1 0x0 PUSH1 0x20 DUP3 ADD SWAP1 POP DUP2 DUP2 SUB PUSH1 0x0 DUP4 ADD MSTORE PUSH2 0x195 DUP2 DUP5 PUSH2 0x142 JUMP JUMPDEST SWAP1 POP SWAP3 SWAP2 POP POP JUMP JUMPDEST PUSH1 0x0 PUSH1 0x40 MLOAD SWAP1 POP SWAP1 JUMP JUMPDEST PUSH1 0x0 DUP1 REVERT JUMPDEST PUSH1 0x0 DUP1 REVERT JUMPDEST PUSH1 0x0 DUP1 REVERT JUMPDEST PUSH1 0x0 DUP1 REVERT JUMPDEST PUSH32 0x4E487B7100000000000000000000000000000000000000000000000000000000 PUSH1 0x0 MSTORE PUSH1 0x41 PUSH1 0x4 MSTORE PUSH1 0x24 PUSH1 0x0 REVERT JUMPDEST PUSH2 0x1F3 DUP3 PUSH2 0x131 JUMP JUMPDEST DUP2 ADD DUP2 DUP2 LT PUSH8 0xFFFFFFFFFFFFFFFF DUP3 GT OR ISZERO PUSH2 0x212 JUMPI PUSH2 0x211 PUSH2 0x1BB JUMP JUMPDEST JUMPDEST DUP1 PUSH1 0x40 MSTORE POP POP POP JUMP JUMPDEST PUSH1 0x0 PUSH2 0x225 PUSH2 0x19D JUMP JUMPDEST SWAP1 POP PUSH2 0x231 DUP3 DUP3 PUSH2 0x1EA JUMP JUMPDEST SWAP2 SWAP1 POP JUMP JUMPDEST PUSH1 0x0 PUSH8 0xFFFFFFFFFFFFFFFF DUP3 GT ISZERO PUSH2 0x251 JUMPI PUSH2 0x250 PUSH2 0x1BB JUMP JUMPDEST JUMPDEST PUSH2 0x25A DUP3 PUSH2 0x131 JUMP JUMPDEST SWAP1 POP PUSH1 0x20 DUP2 ADD SWAP1 POP SWAP2 SWAP1 POP JUMP JUMPDEST PUSH1 0x0 PUSH2 0x27A PUSH2 0x275 DUP5 PUSH2 0x236 JUMP JUMPDEST PUSH2 0x21B JUMP JUMPDEST SWAP1 POP DUP3 DUP2 MSTORE PUSH1 0x20 DUP2 ADD DUP5 DUP5 DUP5 ADD GT ISZERO PUSH2 0x296 JUMPI PUSH2 0x295 PUSH2 0x1B6 JUMP JUMPDEST JUMPDEST PUSH2 0x2A1 DUP5 DUP3 DUP6 PUSH2 0x107 JUMP JUMPDEST POP SWAP4 SWAP3 POP POP POP JUMP JUMPDEST PUSH1 0x0 DUP3 PUSH1 0x1F DUP4 ADD SLT PUSH2 0x2BE JUMPI PUSH2 0x2BD PUSH2 0x1B1 JUMP JUMPDEST JUMPDEST DUP2 MLOAD PUSH2 0x2CE DUP5 DUP3 PUSH1 0x20 DUP7 ADD PUSH2 0x267 JUMP JUMPDEST SWAP2 POP POP SWAP3 SWAP2 POP POP JUMP JUMPDEST PUSH1 0x0 PUSH1 0x20 DUP3 DUP5 SUB SLT ISZERO PUSH2 0x2ED JUMPI PUSH2 0x2EC PUSH2 0x1A7 JUMP JUMPDEST JUMPDEST PUSH1 0x0 DUP3 ADD MLOAD PUSH8 0xFFFFFFFFFFFFFFFF DUP2 GT ISZERO PUSH2 0x30B JUMPI PUSH2 0x30A PUSH2 0x1AC JUMP JUMPDEST JUMPDEST PUSH2 0x317 DUP5 DUP3 DUP6 ADD PUSH2 0x2A9 JUMP JUMPDEST SWAP2 POP POP SWAP3 SWAP2 POP POP JUMP INVALID LOG2 PUSH5 0x6970667358 0x22 SLT KECCAK256 LOG4 PUSH2 0x7A94 0xCF SWAP13 0xC6 0xE0 0xD1 PUSH2 0x993E SWAP15 EQ PUSH19 0x8BA36C5D6305D0416112FD9CD00126C6036473 PUSH16 0x6C634300081200330000000000000000 "
		},
		"gasEstimates": {
			"creation": {
				"codeDepositCost": "170800",
				"executionCost": "infinite",
				"totalCost": "infinite"
			},
			"external": {
				"name()": "infinite"
			}
		},
		"methodIdentifiers": {
			"name()": "06fdde03"
		}
	},
	"abi": [
		{
			"inputs": [],
			"stateMutability": "nonpayable",
			"type": "constructor"
		},
		{
			"inputs": [],
			"name": "name",
			"outputs": [
				{
					"internalType": "string",
					"name": "",
					"type": "string"
				}
			],
			"stateMutability": "view",
			"type": "function"
		}
	]
}