{
	"contracts/Combine.sol": {
		"test": {
			"abi": [
				{
					"inputs": [],
					"stateMutability": "nonpayable",
					"type": "constructor"
				},
				{
					"inputs": [
						{
							"internalType": "uint256",
							"name": "_id",
							"type": "uint256"
						}
					],
					"name": "get_requested_num",
					"outputs": [
						{
							"internalType": "uint256[]",
							"name": "vals",
							"type": "uint256[]"
						}
					],
					"stateMutability": "view",
					"type": "function"
				},
				{
					"inputs": [],
					"name": "transferLink",
					"outputs": [
						{
							"internalType": "bool",
							"name": "",
							"type": "bool"
						}
					],
					"stateMutability": "nonpayable",
					"type": "function"
				},
				{
					"inputs": [],
					"name": "valid",
					"outputs": [
						{
							"internalType": "bool",
							"name": "",
							"type": "bool"
						}
					],
					"stateMutability": "view",
					"type": "function"
				}
			],
			"devdoc": {
				"kind": "dev",
				"methods": {},
				"version": 1
			},
			"evm": {
				"assembly": "    /* \"contracts/Combine.sol\":221:767  contract test {... */\n  mstore(0x40, 0x80)\n    /* \"contracts/Combine.sol\":294:336  0x326C977E6efc84E512bB9C30f76E30c160eD06FB */\n  0x326c977e6efc84e512bb9c30f76e30c160ed06fb\n    /* \"contracts/Combine.sol\":276:336  address linktoken=0x326C977E6efc84E512bB9C30f76E30c160eD06FB */\n  0x01\n  exp(0x0100, 0x00)\n  dup2\n  sload\n  dup2\n  0xffffffffffffffffffffffffffffffffffffffff\n  mul\n  not\n  and\n  swap1\n  dup4\n  0xffffffffffffffffffffffffffffffffffffffff\n  and\n  mul\n  or\n  swap1\n  sstore\n  pop\n    /* \"contracts/Combine.sol\":376:471  constructor(){... */\n  callvalue\n  dup1\n  iszero\n  tag_1\n  jumpi\n  0x00\n  dup1\n  revert\ntag_1:\n  pop\n    /* \"contracts/Combine.sol\":404:436  new VRFv2DirectFundingConsumer() */\n  mload(0x40)\n  tag_4\n  swap1\n  tag_5\n  jump\t// in\ntag_4:\n  mload(0x40)\n  dup1\n  swap2\n  sub\n  swap1\n  0x00\n  create\n  dup1\n  iszero\n  dup1\n  iszero\n  tag_6\n  jumpi\n  returndatasize\n  0x00\n  dup1\n  returndatacopy\n  revert(0x00, returndatasize)\ntag_6:\n  pop\n    /* \"contracts/Combine.sol\":395:401  contra */\n  0x00\n  dup1\n    /* \"contracts/Combine.sol\":395:436  contra = new VRFv2DirectFundingConsumer() */\n  0x0100\n  exp\n  dup2\n  sload\n  dup2\n  0xffffffffffffffffffffffffffffffffffffffff\n  mul\n  not\n  and\n  swap1\n  dup4\n  0xffffffffffffffffffffffffffffffffffffffff\n  and\n  mul\n  or\n  swap1\n  sstore\n  pop\n    /* \"contracts/Combine.sol\":456:465  linktoken */\n  0x01\n  0x00\n  swap1\n  sload\n  swap1\n  0x0100\n  exp\n  swap1\n  div\n  0xffffffffffffffffffffffffffffffffffffffff\n  and\n    /* \"contracts/Combine.sol\":442:447  token */\n  0x02\n  0x00\n    /* \"contracts/Combine.sol\":442:466  token = ERC20(linktoken) */\n  0x0100\n  exp\n  dup2\n  sload\n  dup2\n  0xffffffffffffffffffffffffffffffffffffffff\n  mul\n  not\n  and\n  swap1\n  dup4\n  0xffffffffffffffffffffffffffffffffffffffff\n  and\n  mul\n  or\n  swap1\n  sstore\n  pop\n    /* \"contracts/Combine.sol\":221:767  contract test {... */\n  jump(tag_7)\ntag_5:\n  dataSize(sub_1)\n  dup1\n  dataOffset(sub_1)\n  dup4\n  codecopy\n  add\n  swap1\n  jump\t// out\ntag_7:\n  dataSize(sub_0)\n  dup1\n  dataOffset(sub_0)\n  0x00\n  codecopy\n  0x00\n  return\nstop\n\nsub_0: assembly {\n        /* \"contracts/Combine.sol\":221:767  contract test {... */\n      mstore(0x40, 0x80)\n      callvalue\n      dup1\n      iszero\n      tag_1\n      jumpi\n      0x00\n      dup1\n      revert\n    tag_1:\n      pop\n      jumpi(tag_2, lt(calldatasize, 0x04))\n      shr(0xe0, calldataload(0x00))\n      dup1\n      0x330b4655\n      eq\n      tag_3\n      jumpi\n      dup1\n      0x5a8ad5b5\n      eq\n      tag_4\n      jumpi\n      dup1\n      0xc1991219\n      eq\n      tag_5\n      jumpi\n    tag_2:\n      0x00\n      dup1\n      revert\n        /* \"contracts/Combine.sol\":573:765  function get_requested_num(uint _id) public view returns (uint[] memory vals){... */\n    tag_3:\n      tag_6\n      0x04\n      dup1\n      calldatasize\n      sub\n      dup2\n      add\n      swap1\n      tag_7\n      swap2\n      swap1\n      tag_8\n      jump\t// in\n    tag_7:\n      tag_9\n      jump\t// in\n    tag_6:\n      mload(0x40)\n      tag_10\n      swap2\n      swap1\n      tag_11\n      jump\t// in\n    tag_10:\n      mload(0x40)\n      dup1\n      swap2\n      sub\n      swap1\n      return\n        /* \"contracts/Combine.sol\":475:570  function transferLink() public returns(bool){... */\n    tag_4:\n      tag_12\n      tag_13\n      jump\t// in\n    tag_12:\n      mload(0x40)\n      tag_14\n      swap2\n      swap1\n      tag_15\n      jump\t// in\n    tag_14:\n      mload(0x40)\n      dup1\n      swap2\n      sub\n      swap1\n      return\n        /* \"contracts/Combine.sol\":355:372  bool public valid */\n    tag_5:\n      tag_16\n      tag_17\n      jump\t// in\n    tag_16:\n      mload(0x40)\n      tag_18\n      swap2\n      swap1\n      tag_15\n      jump\t// in\n    tag_18:\n      mload(0x40)\n      dup1\n      swap2\n      sub\n      swap1\n      return\n        /* \"contracts/Combine.sol\":573:765  function get_requested_num(uint _id) public view returns (uint[] memory vals){... */\n    tag_9:\n        /* \"contracts/Combine.sol\":631:649  uint[] memory vals */\n      0x60\n        /* \"contracts/Combine.sol\":656:665  uint paid */\n      0x00\n        /* \"contracts/Combine.sol\":671:685  bool fulfilled */\n      dup1\n        /* \"contracts/Combine.sol\":715:721  contra */\n      0x00\n      dup1\n      sload\n      swap1\n      0x0100\n      exp\n      swap1\n      div\n      0xffffffffffffffffffffffffffffffffffffffff\n      and\n        /* \"contracts/Combine.sol\":715:738  contra.getRequestStatus */\n      0xffffffffffffffffffffffffffffffffffffffff\n      and\n      0xd8a4676f\n        /* \"contracts/Combine.sol\":739:742  _id */\n      dup6\n        /* \"contracts/Combine.sol\":715:743  contra.getRequestStatus(_id) */\n      mload(0x40)\n      dup3\n      0xffffffff\n      and\n      0xe0\n      shl\n      dup2\n      mstore\n      0x04\n      add\n      tag_20\n      swap2\n      swap1\n      tag_21\n      jump\t// in\n    tag_20:\n      0x00\n      mload(0x40)\n      dup1\n      dup4\n      sub\n      dup2\n      dup7\n      gas\n      staticcall\n      iszero\n      dup1\n      iszero\n      tag_23\n      jumpi\n      returndatasize\n      0x00\n      dup1\n      returndatacopy\n      revert(0x00, returndatasize)\n    tag_23:\n      pop\n      pop\n      pop\n      pop\n      mload(0x40)\n      returndatasize\n      0x00\n      dup3\n      returndatacopy\n      returndatasize\n      not(0x1f)\n      0x1f\n      dup3\n      add\n      and\n      dup3\n      add\n      dup1\n      0x40\n      mstore\n      pop\n      dup2\n      add\n      swap1\n      tag_24\n      swap2\n      swap1\n      tag_25\n      jump\t// in\n    tag_24:\n        /* \"contracts/Combine.sol\":691:743  ( paid, fulfilled,vals)=contra.getRequestStatus(_id) */\n      dup1\n      swap6\n      pop\n      dup2\n      swap4\n      pop\n      dup3\n      swap5\n      pop\n      pop\n      pop\n      pop\n        /* \"contracts/Combine.sol\":749:760  return vals */\n      pop\n      pop\n        /* \"contracts/Combine.sol\":573:765  function get_requested_num(uint _id) public view returns (uint[] memory vals){... */\n      swap2\n      swap1\n      pop\n      jump\t// out\n        /* \"contracts/Combine.sol\":475:570  function transferLink() public returns(bool){... */\n    tag_13:\n        /* \"contracts/Combine.sol\":514:518  bool */\n      0x00\n        /* \"contracts/Combine.sol\":532:537  token */\n      0x02\n      0x00\n      swap1\n      sload\n      swap1\n      0x0100\n      exp\n      swap1\n      div\n      0xffffffffffffffffffffffffffffffffffffffff\n      and\n        /* \"contracts/Combine.sol\":532:546  token.transfer */\n      0xffffffffffffffffffffffffffffffffffffffff\n      and\n      0xa9059cbb\n        /* \"contracts/Combine.sol\":555:561  contra */\n      0x00\n      dup1\n      sload\n      swap1\n      0x0100\n      exp\n      swap1\n      div\n      0xffffffffffffffffffffffffffffffffffffffff\n      and\n        /* \"contracts/Combine.sol\":563:564  1 */\n      0x01\n        /* \"contracts/Combine.sol\":532:565  token.transfer(address(contra),1) */\n      mload(0x40)\n      dup4\n      0xffffffff\n      and\n      0xe0\n      shl\n      dup2\n      mstore\n      0x04\n      add\n      tag_27\n      swap3\n      swap2\n      swap1\n      tag_28\n      jump\t// in\n    tag_27:\n      0x20\n      mload(0x40)\n      dup1\n      dup4\n      sub\n      dup2\n      0x00\n      dup8\n      gas\n      call\n      iszero\n      dup1\n      iszero\n      tag_30\n      jumpi\n      returndatasize\n      0x00\n      dup1\n      returndatacopy\n      revert(0x00, returndatasize)\n    tag_30:\n      pop\n      pop\n      pop\n      pop\n      mload(0x40)\n      returndatasize\n      not(0x1f)\n      0x1f\n      dup3\n      add\n      and\n      dup3\n      add\n      dup1\n      0x40\n      mstore\n      pop\n      dup2\n      add\n      swap1\n      tag_31\n      swap2\n      swap1\n      tag_32\n      jump\t// in\n    tag_31:\n        /* \"contracts/Combine.sol\":525:565  return token.transfer(address(contra),1) */\n      swap1\n      pop\n        /* \"contracts/Combine.sol\":475:570  function transferLink() public returns(bool){... */\n      swap1\n      jump\t// out\n        /* \"contracts/Combine.sol\":355:372  bool public valid */\n    tag_17:\n      0x02\n      0x14\n      swap1\n      sload\n      swap1\n      0x0100\n      exp\n      swap1\n      div\n      0xff\n      and\n      dup2\n      jump\t// out\n        /* \"#utility.yul\":7:82   */\n    tag_33:\n        /* \"#utility.yul\":40:46   */\n      0x00\n        /* \"#utility.yul\":73:75   */\n      0x40\n        /* \"#utility.yul\":67:76   */\n      mload\n        /* \"#utility.yul\":57:76   */\n      swap1\n      pop\n        /* \"#utility.yul\":7:82   */\n      swap1\n      jump\t// out\n        /* \"#utility.yul\":88:205   */\n    tag_34:\n        /* \"#utility.yul\":197:198   */\n      0x00\n        /* \"#utility.yul\":194:195   */\n      dup1\n        /* \"#utility.yul\":187:199   */\n      revert\n        /* \"#utility.yul\":211:328   */\n    tag_35:\n        /* \"#utility.yul\":320:321   */\n      0x00\n        /* \"#utility.yul\":317:318   */\n      dup1\n        /* \"#utility.yul\":310:322   */\n      revert\n        /* \"#utility.yul\":334:411   */\n    tag_36:\n        /* \"#utility.yul\":371:378   */\n      0x00\n        /* \"#utility.yul\":400:405   */\n      dup2\n        /* \"#utility.yul\":389:405   */\n      swap1\n      pop\n        /* \"#utility.yul\":334:411   */\n      swap2\n      swap1\n      pop\n      jump\t// out\n        /* \"#utility.yul\":417:539   */\n    tag_37:\n        /* \"#utility.yul\":490:514   */\n      tag_74\n        /* \"#utility.yul\":508:513   */\n      dup2\n        /* \"#utility.yul\":490:514   */\n      tag_36\n      jump\t// in\n    tag_74:\n        /* \"#utility.yul\":483:488   */\n      dup2\n        /* \"#utility.yul\":480:515   */\n      eq\n        /* \"#utility.yul\":470:533   */\n      tag_75\n      jumpi\n        /* \"#utility.yul\":529:530   */\n      0x00\n        /* \"#utility.yul\":526:527   */\n      dup1\n        /* \"#utility.yul\":519:531   */\n      revert\n        /* \"#utility.yul\":470:533   */\n    tag_75:\n        /* \"#utility.yul\":417:539   */\n      pop\n      jump\t// out\n        /* \"#utility.yul\":545:684   */\n    tag_38:\n        /* \"#utility.yul\":591:596   */\n      0x00\n        /* \"#utility.yul\":629:635   */\n      dup2\n        /* \"#utility.yul\":616:636   */\n      calldataload\n        /* \"#utility.yul\":607:636   */\n      swap1\n      pop\n        /* \"#utility.yul\":645:678   */\n      tag_77\n        /* \"#utility.yul\":672:677   */\n      dup2\n        /* \"#utility.yul\":645:678   */\n      tag_37\n      jump\t// in\n    tag_77:\n        /* \"#utility.yul\":545:684   */\n      swap3\n      swap2\n      pop\n      pop\n      jump\t// out\n        /* \"#utility.yul\":690:1019   */\n    tag_8:\n        /* \"#utility.yul\":749:755   */\n      0x00\n        /* \"#utility.yul\":798:800   */\n      0x20\n        /* \"#utility.yul\":786:795   */\n      dup3\n        /* \"#utility.yul\":777:784   */\n      dup5\n        /* \"#utility.yul\":773:796   */\n      sub\n        /* \"#utility.yul\":769:801   */\n      slt\n        /* \"#utility.yul\":766:885   */\n      iszero\n      tag_79\n      jumpi\n        /* \"#utility.yul\":804:883   */\n      tag_80\n      tag_34\n      jump\t// in\n    tag_80:\n        /* \"#utility.yul\":766:885   */\n    tag_79:\n        /* \"#utility.yul\":924:925   */\n      0x00\n        /* \"#utility.yul\":949:1002   */\n      tag_81\n        /* \"#utility.yul\":994:1001   */\n      dup5\n        /* \"#utility.yul\":985:991   */\n      dup3\n        /* \"#utility.yul\":974:983   */\n      dup6\n        /* \"#utility.yul\":970:992   */\n      add\n        /* \"#utility.yul\":949:1002   */\n      tag_38\n      jump\t// in\n    tag_81:\n        /* \"#utility.yul\":939:1002   */\n      swap2\n      pop\n        /* \"#utility.yul\":895:1012   */\n      pop\n        /* \"#utility.yul\":690:1019   */\n      swap3\n      swap2\n      pop\n      pop\n      jump\t// out\n        /* \"#utility.yul\":1025:1139   */\n    tag_39:\n        /* \"#utility.yul\":1092:1098   */\n      0x00\n        /* \"#utility.yul\":1126:1131   */\n      dup2\n        /* \"#utility.yul\":1120:1132   */\n      mload\n        /* \"#utility.yul\":1110:1132   */\n      swap1\n      pop\n        /* \"#utility.yul\":1025:1139   */\n      swap2\n      swap1\n      pop\n      jump\t// out\n        /* \"#utility.yul\":1145:1329   */\n    tag_40:\n        /* \"#utility.yul\":1244:1255   */\n      0x00\n        /* \"#utility.yul\":1278:1284   */\n      dup3\n        /* \"#utility.yul\":1273:1276   */\n      dup3\n        /* \"#utility.yul\":1266:1285   */\n      mstore\n        /* \"#utility.yul\":1318:1322   */\n      0x20\n        /* \"#utility.yul\":1313:1316   */\n      dup3\n        /* \"#utility.yul\":1309:1323   */\n      add\n        /* \"#utility.yul\":1294:1323   */\n      swap1\n      pop\n        /* \"#utility.yul\":1145:1329   */\n      swap3\n      swap2\n      pop\n      pop\n      jump\t// out\n        /* \"#utility.yul\":1335:1467   */\n    tag_41:\n        /* \"#utility.yul\":1402:1406   */\n      0x00\n        /* \"#utility.yul\":1425:1428   */\n      dup2\n        /* \"#utility.yul\":1417:1428   */\n      swap1\n      pop\n        /* \"#utility.yul\":1455:1459   */\n      0x20\n        /* \"#utility.yul\":1450:1453   */\n      dup3\n        /* \"#utility.yul\":1446:1460   */\n      add\n        /* \"#utility.yul\":1438:1460   */\n      swap1\n      pop\n        /* \"#utility.yul\":1335:1467   */\n      swap2\n      swap1\n      pop\n      jump\t// out\n        /* \"#utility.yul\":1473:1581   */\n    tag_42:\n        /* \"#utility.yul\":1550:1574   */\n      tag_86\n        /* \"#utility.yul\":1568:1573   */\n      dup2\n        /* \"#utility.yul\":1550:1574   */\n      tag_36\n      jump\t// in\n    tag_86:\n        /* \"#utility.yul\":1545:1548   */\n      dup3\n        /* \"#utility.yul\":1538:1575   */\n      mstore\n        /* \"#utility.yul\":1473:1581   */\n      pop\n      pop\n      jump\t// out\n        /* \"#utility.yul\":1587:1766   */\n    tag_43:\n        /* \"#utility.yul\":1656:1666   */\n      0x00\n        /* \"#utility.yul\":1677:1723   */\n      tag_88\n        /* \"#utility.yul\":1719:1722   */\n      dup4\n        /* \"#utility.yul\":1711:1717   */\n      dup4\n        /* \"#utility.yul\":1677:1723   */\n      tag_42\n      jump\t// in\n    tag_88:\n        /* \"#utility.yul\":1755:1759   */\n      0x20\n        /* \"#utility.yul\":1750:1753   */\n      dup4\n        /* \"#utility.yul\":1746:1760   */\n      add\n        /* \"#utility.yul\":1732:1760   */\n      swap1\n      pop\n        /* \"#utility.yul\":1587:1766   */\n      swap3\n      swap2\n      pop\n      pop\n      jump\t// out\n        /* \"#utility.yul\":1772:1885   */\n    tag_44:\n        /* \"#utility.yul\":1842:1846   */\n      0x00\n        /* \"#utility.yul\":1874:1878   */\n      0x20\n        /* \"#utility.yul\":1869:1872   */\n      dup3\n        /* \"#utility.yul\":1865:1879   */\n      add\n        /* \"#utility.yul\":1857:1879   */\n      swap1\n      pop\n        /* \"#utility.yul\":1772:1885   */\n      swap2\n      swap1\n      pop\n      jump\t// out\n        /* \"#utility.yul\":1921:2653   */\n    tag_45:\n        /* \"#utility.yul\":2040:2043   */\n      0x00\n        /* \"#utility.yul\":2069:2123   */\n      tag_91\n        /* \"#utility.yul\":2117:2122   */\n      dup3\n        /* \"#utility.yul\":2069:2123   */\n      tag_39\n      jump\t// in\n    tag_91:\n        /* \"#utility.yul\":2139:2225   */\n      tag_92\n        /* \"#utility.yul\":2218:2224   */\n      dup2\n        /* \"#utility.yul\":2213:2216   */\n      dup6\n        /* \"#utility.yul\":2139:2225   */\n      tag_40\n      jump\t// in\n    tag_92:\n        /* \"#utility.yul\":2132:2225   */\n      swap4\n      pop\n        /* \"#utility.yul\":2249:2305   */\n      tag_93\n        /* \"#utility.yul\":2299:2304   */\n      dup4\n        /* \"#utility.yul\":2249:2305   */\n      tag_41\n      jump\t// in\n    tag_93:\n        /* \"#utility.yul\":2328:2335   */\n      dup1\n        /* \"#utility.yul\":2359:2360   */\n      0x00\n        /* \"#utility.yul\":2344:2628   */\n    tag_94:\n        /* \"#utility.yul\":2369:2375   */\n      dup4\n        /* \"#utility.yul\":2366:2367   */\n      dup2\n        /* \"#utility.yul\":2363:2376   */\n      lt\n        /* \"#utility.yul\":2344:2628   */\n      iszero\n      tag_96\n      jumpi\n        /* \"#utility.yul\":2445:2451   */\n      dup2\n        /* \"#utility.yul\":2439:2452   */\n      mload\n        /* \"#utility.yul\":2472:2535   */\n      tag_97\n        /* \"#utility.yul\":2531:2534   */\n      dup9\n        /* \"#utility.yul\":2516:2529   */\n      dup3\n        /* \"#utility.yul\":2472:2535   */\n      tag_43\n      jump\t// in\n    tag_97:\n        /* \"#utility.yul\":2465:2535   */\n      swap8\n      pop\n        /* \"#utility.yul\":2558:2618   */\n      tag_98\n        /* \"#utility.yul\":2611:2617   */\n      dup4\n        /* \"#utility.yul\":2558:2618   */\n      tag_44\n      jump\t// in\n    tag_98:\n        /* \"#utility.yul\":2548:2618   */\n      swap3\n      pop\n        /* \"#utility.yul\":2404:2628   */\n      pop\n        /* \"#utility.yul\":2391:2392   */\n      0x01\n        /* \"#utility.yul\":2388:2389   */\n      dup2\n        /* \"#utility.yul\":2384:2393   */\n      add\n        /* \"#utility.yul\":2379:2393   */\n      swap1\n      pop\n        /* \"#utility.yul\":2344:2628   */\n      jump(tag_94)\n    tag_96:\n        /* \"#utility.yul\":2348:2362   */\n      pop\n        /* \"#utility.yul\":2644:2647   */\n      dup6\n        /* \"#utility.yul\":2637:2647   */\n      swap4\n      pop\n        /* \"#utility.yul\":2045:2653   */\n      pop\n      pop\n      pop\n        /* \"#utility.yul\":1921:2653   */\n      swap3\n      swap2\n      pop\n      pop\n      jump\t// out\n        /* \"#utility.yul\":2659:3032   */\n    tag_11:\n        /* \"#utility.yul\":2802:2806   */\n      0x00\n        /* \"#utility.yul\":2840:2842   */\n      0x20\n        /* \"#utility.yul\":2829:2838   */\n      dup3\n        /* \"#utility.yul\":2825:2843   */\n      add\n        /* \"#utility.yul\":2817:2843   */\n      swap1\n      pop\n        /* \"#utility.yul\":2889:2898   */\n      dup2\n        /* \"#utility.yul\":2883:2887   */\n      dup2\n        /* \"#utility.yul\":2879:2899   */\n      sub\n        /* \"#utility.yul\":2875:2876   */\n      0x00\n        /* \"#utility.yul\":2864:2873   */\n      dup4\n        /* \"#utility.yul\":2860:2877   */\n      add\n        /* \"#utility.yul\":2853:2900   */\n      mstore\n        /* \"#utility.yul\":2917:3025   */\n      tag_100\n        /* \"#utility.yul\":3020:3024   */\n      dup2\n        /* \"#utility.yul\":3011:3017   */\n      dup5\n        /* \"#utility.yul\":2917:3025   */\n      tag_45\n      jump\t// in\n    tag_100:\n        /* \"#utility.yul\":2909:3025   */\n      swap1\n      pop\n        /* \"#utility.yul\":2659:3032   */\n      swap3\n      swap2\n      pop\n      pop\n      jump\t// out\n        /* \"#utility.yul\":3038:3128   */\n    tag_46:\n        /* \"#utility.yul\":3072:3079   */\n      0x00\n        /* \"#utility.yul\":3115:3120   */\n      dup2\n        /* \"#utility.yul\":3108:3121   */\n      iszero\n        /* \"#utility.yul\":3101:3122   */\n      iszero\n        /* \"#utility.yul\":3090:3122   */\n      swap1\n      pop\n        /* \"#utility.yul\":3038:3128   */\n      swap2\n      swap1\n      pop\n      jump\t// out\n        /* \"#utility.yul\":3134:3243   */\n    tag_47:\n        /* \"#utility.yul\":3215:3236   */\n      tag_103\n        /* \"#utility.yul\":3230:3235   */\n      dup2\n        /* \"#utility.yul\":3215:3236   */\n      tag_46\n      jump\t// in\n    tag_103:\n        /* \"#utility.yul\":3210:3213   */\n      dup3\n        /* \"#utility.yul\":3203:3237   */\n      mstore\n        /* \"#utility.yul\":3134:3243   */\n      pop\n      pop\n      jump\t// out\n        /* \"#utility.yul\":3249:3459   */\n    tag_15:\n        /* \"#utility.yul\":3336:3340   */\n      0x00\n        /* \"#utility.yul\":3374:3376   */\n      0x20\n        /* \"#utility.yul\":3363:3372   */\n      dup3\n        /* \"#utility.yul\":3359:3377   */\n      add\n        /* \"#utility.yul\":3351:3377   */\n      swap1\n      pop\n        /* \"#utility.yul\":3387:3452   */\n      tag_105\n        /* \"#utility.yul\":3449:3450   */\n      0x00\n        /* \"#utility.yul\":3438:3447   */\n      dup4\n        /* \"#utility.yul\":3434:3451   */\n      add\n        /* \"#utility.yul\":3425:3431   */\n      dup5\n        /* \"#utility.yul\":3387:3452   */\n      tag_47\n      jump\t// in\n    tag_105:\n        /* \"#utility.yul\":3249:3459   */\n      swap3\n      swap2\n      pop\n      pop\n      jump\t// out\n        /* \"#utility.yul\":3465:3583   */\n    tag_48:\n        /* \"#utility.yul\":3552:3576   */\n      tag_107\n        /* \"#utility.yul\":3570:3575   */\n      dup2\n        /* \"#utility.yul\":3552:3576   */\n      tag_36\n      jump\t// in\n    tag_107:\n        /* \"#utility.yul\":3547:3550   */\n      dup3\n        /* \"#utility.yul\":3540:3577   */\n      mstore\n        /* \"#utility.yul\":3465:3583   */\n      pop\n      pop\n      jump\t// out\n        /* \"#utility.yul\":3589:3811   */\n    tag_21:\n        /* \"#utility.yul\":3682:3686   */\n      0x00\n        /* \"#utility.yul\":3720:3722   */\n      0x20\n        /* \"#utility.yul\":3709:3718   */\n      dup3\n        /* \"#utility.yul\":3705:3723   */\n      add\n        /* \"#utility.yul\":3697:3723   */\n      swap1\n      pop\n        /* \"#utility.yul\":3733:3804   */\n      tag_109\n        /* \"#utility.yul\":3801:3802   */\n      0x00\n        /* \"#utility.yul\":3790:3799   */\n      dup4\n        /* \"#utility.yul\":3786:3803   */\n      add\n        /* \"#utility.yul\":3777:3783   */\n      dup5\n        /* \"#utility.yul\":3733:3804   */\n      tag_48\n      jump\t// in\n    tag_109:\n        /* \"#utility.yul\":3589:3811   */\n      swap3\n      swap2\n      pop\n      pop\n      jump\t// out\n        /* \"#utility.yul\":3817:3960   */\n    tag_49:\n        /* \"#utility.yul\":3874:3879   */\n      0x00\n        /* \"#utility.yul\":3905:3911   */\n      dup2\n        /* \"#utility.yul\":3899:3912   */\n      mload\n        /* \"#utility.yul\":3890:3912   */\n      swap1\n      pop\n        /* \"#utility.yul\":3921:3954   */\n      tag_111\n        /* \"#utility.yul\":3948:3953   */\n      dup2\n        /* \"#utility.yul\":3921:3954   */\n      tag_37\n      jump\t// in\n    tag_111:\n        /* \"#utility.yul\":3817:3960   */\n      swap3\n      swap2\n      pop\n      pop\n      jump\t// out\n        /* \"#utility.yul\":3966:4082   */\n    tag_50:\n        /* \"#utility.yul\":4036:4057   */\n      tag_113\n        /* \"#utility.yul\":4051:4056   */\n      dup2\n        /* \"#utility.yul\":4036:4057   */\n      tag_46\n      jump\t// in\n    tag_113:\n        /* \"#utility.yul\":4029:4034   */\n      dup2\n        /* \"#utility.yul\":4026:4058   */\n      eq\n        /* \"#utility.yul\":4016:4076   */\n      tag_114\n      jumpi\n        /* \"#utility.yul\":4072:4073   */\n      0x00\n        /* \"#utility.yul\":4069:4070   */\n      dup1\n        /* \"#utility.yul\":4062:4074   */\n      revert\n        /* \"#utility.yul\":4016:4076   */\n    tag_114:\n        /* \"#utility.yul\":3966:4082   */\n      pop\n      jump\t// out\n        /* \"#utility.yul\":4088:4225   */\n    tag_51:\n        /* \"#utility.yul\":4142:4147   */\n      0x00\n        /* \"#utility.yul\":4173:4179   */\n      dup2\n        /* \"#utility.yul\":4167:4180   */\n      mload\n        /* \"#utility.yul\":4158:4180   */\n      swap1\n      pop\n        /* \"#utility.yul\":4189:4219   */\n      tag_116\n        /* \"#utility.yul\":4213:4218   */\n      dup2\n        /* \"#utility.yul\":4189:4219   */\n      tag_50\n      jump\t// in\n    tag_116:\n        /* \"#utility.yul\":4088:4225   */\n      swap3\n      swap2\n      pop\n      pop\n      jump\t// out\n        /* \"#utility.yul\":4231:4348   */\n    tag_52:\n        /* \"#utility.yul\":4340:4341   */\n      0x00\n        /* \"#utility.yul\":4337:4338   */\n      dup1\n        /* \"#utility.yul\":4330:4342   */\n      revert\n        /* \"#utility.yul\":4354:4456   */\n    tag_53:\n        /* \"#utility.yul\":4395:4401   */\n      0x00\n        /* \"#utility.yul\":4446:4448   */\n      0x1f\n        /* \"#utility.yul\":4442:4449   */\n      not\n        /* \"#utility.yul\":4437:4439   */\n      0x1f\n        /* \"#utility.yul\":4430:4435   */\n      dup4\n        /* \"#utility.yul\":4426:4440   */\n      add\n        /* \"#utility.yul\":4422:4450   */\n      and\n        /* \"#utility.yul\":4412:4450   */\n      swap1\n      pop\n        /* \"#utility.yul\":4354:4456   */\n      swap2\n      swap1\n      pop\n      jump\t// out\n        /* \"#utility.yul\":4462:4642   */\n    tag_54:\n        /* \"#utility.yul\":4510:4587   */\n      0x4e487b7100000000000000000000000000000000000000000000000000000000\n        /* \"#utility.yul\":4507:4508   */\n      0x00\n        /* \"#utility.yul\":4500:4588   */\n      mstore\n        /* \"#utility.yul\":4607:4611   */\n      0x41\n        /* \"#utility.yul\":4604:4605   */\n      0x04\n        /* \"#utility.yul\":4597:4612   */\n      mstore\n        /* \"#utility.yul\":4631:4635   */\n      0x24\n        /* \"#utility.yul\":4628:4629   */\n      0x00\n        /* \"#utility.yul\":4621:4636   */\n      revert\n        /* \"#utility.yul\":4648:4929   */\n    tag_55:\n        /* \"#utility.yul\":4731:4758   */\n      tag_121\n        /* \"#utility.yul\":4753:4757   */\n      dup3\n        /* \"#utility.yul\":4731:4758   */\n      tag_53\n      jump\t// in\n    tag_121:\n        /* \"#utility.yul\":4723:4729   */\n      dup2\n        /* \"#utility.yul\":4719:4759   */\n      add\n        /* \"#utility.yul\":4861:4867   */\n      dup2\n        /* \"#utility.yul\":4849:4859   */\n      dup2\n        /* \"#utility.yul\":4846:4868   */\n      lt\n        /* \"#utility.yul\":4825:4843   */\n      0xffffffffffffffff\n        /* \"#utility.yul\":4813:4823   */\n      dup3\n        /* \"#utility.yul\":4810:4844   */\n      gt\n        /* \"#utility.yul\":4807:4869   */\n      or\n        /* \"#utility.yul\":4804:4892   */\n      iszero\n      tag_122\n      jumpi\n        /* \"#utility.yul\":4872:4890   */\n      tag_123\n      tag_54\n      jump\t// in\n    tag_123:\n        /* \"#utility.yul\":4804:4892   */\n    tag_122:\n        /* \"#utility.yul\":4912:4922   */\n      dup1\n        /* \"#utility.yul\":4908:4910   */\n      0x40\n        /* \"#utility.yul\":4901:4923   */\n      mstore\n        /* \"#utility.yul\":4691:4929   */\n      pop\n        /* \"#utility.yul\":4648:4929   */\n      pop\n      pop\n      jump\t// out\n        /* \"#utility.yul\":4935:5064   */\n    tag_56:\n        /* \"#utility.yul\":4969:4975   */\n      0x00\n        /* \"#utility.yul\":4996:5016   */\n      tag_125\n      tag_33\n      jump\t// in\n    tag_125:\n        /* \"#utility.yul\":4986:5016   */\n      swap1\n      pop\n        /* \"#utility.yul\":5025:5058   */\n      tag_126\n        /* \"#utility.yul\":5053:5057   */\n      dup3\n        /* \"#utility.yul\":5045:5051   */\n      dup3\n        /* \"#utility.yul\":5025:5058   */\n      tag_55\n      jump\t// in\n    tag_126:\n        /* \"#utility.yul\":4935:5064   */\n      swap2\n      swap1\n      pop\n      jump\t// out\n        /* \"#utility.yul\":5070:5381   */\n    tag_57:\n        /* \"#utility.yul\":5147:5151   */\n      0x00\n        /* \"#utility.yul\":5237:5255   */\n      0xffffffffffffffff\n        /* \"#utility.yul\":5229:5235   */\n      dup3\n        /* \"#utility.yul\":5226:5256   */\n      gt\n        /* \"#utility.yul\":5223:5279   */\n      iszero\n      tag_128\n      jumpi\n        /* \"#utility.yul\":5259:5277   */\n      tag_129\n      tag_54\n      jump\t// in\n    tag_129:\n        /* \"#utility.yul\":5223:5279   */\n    tag_128:\n        /* \"#utility.yul\":5309:5313   */\n      0x20\n        /* \"#utility.yul\":5301:5307   */\n      dup3\n        /* \"#utility.yul\":5297:5314   */\n      mul\n        /* \"#utility.yul\":5289:5314   */\n      swap1\n      pop\n        /* \"#utility.yul\":5369:5373   */\n      0x20\n        /* \"#utility.yul\":5363:5367   */\n      dup2\n        /* \"#utility.yul\":5359:5374   */\n      add\n        /* \"#utility.yul\":5351:5374   */\n      swap1\n      pop\n        /* \"#utility.yul\":5070:5381   */\n      swap2\n      swap1\n      pop\n      jump\t// out\n        /* \"#utility.yul\":5387:5504   */\n    tag_58:\n        /* \"#utility.yul\":5496:5497   */\n      0x00\n        /* \"#utility.yul\":5493:5494   */\n      dup1\n        /* \"#utility.yul\":5486:5498   */\n      revert\n        /* \"#utility.yul\":5527:6259   */\n    tag_59:\n        /* \"#utility.yul\":5634:5639   */\n      0x00\n        /* \"#utility.yul\":5659:5740   */\n      tag_132\n        /* \"#utility.yul\":5675:5739   */\n      tag_133\n        /* \"#utility.yul\":5732:5738   */\n      dup5\n        /* \"#utility.yul\":5675:5739   */\n      tag_57\n      jump\t// in\n    tag_133:\n        /* \"#utility.yul\":5659:5740   */\n      tag_56\n      jump\t// in\n    tag_132:\n        /* \"#utility.yul\":5650:5740   */\n      swap1\n      pop\n        /* \"#utility.yul\":5760:5765   */\n      dup1\n        /* \"#utility.yul\":5789:5795   */\n      dup4\n        /* \"#utility.yul\":5782:5787   */\n      dup3\n        /* \"#utility.yul\":5775:5796   */\n      mstore\n        /* \"#utility.yul\":5823:5827   */\n      0x20\n        /* \"#utility.yul\":5816:5821   */\n      dup3\n        /* \"#utility.yul\":5812:5828   */\n      add\n        /* \"#utility.yul\":5805:5828   */\n      swap1\n      pop\n        /* \"#utility.yul\":5876:5880   */\n      0x20\n        /* \"#utility.yul\":5868:5874   */\n      dup5\n        /* \"#utility.yul\":5864:5881   */\n      mul\n        /* \"#utility.yul\":5856:5862   */\n      dup4\n        /* \"#utility.yul\":5852:5882   */\n      add\n        /* \"#utility.yul\":5905:5908   */\n      dup6\n        /* \"#utility.yul\":5897:5903   */\n      dup2\n        /* \"#utility.yul\":5894:5909   */\n      gt\n        /* \"#utility.yul\":5891:6013   */\n      iszero\n      tag_134\n      jumpi\n        /* \"#utility.yul\":5924:6003   */\n      tag_135\n      tag_58\n      jump\t// in\n    tag_135:\n        /* \"#utility.yul\":5891:6013   */\n    tag_134:\n        /* \"#utility.yul\":6039:6045   */\n      dup4\n        /* \"#utility.yul\":6022:6253   */\n    tag_136:\n        /* \"#utility.yul\":6056:6062   */\n      dup2\n        /* \"#utility.yul\":6051:6054   */\n      dup2\n        /* \"#utility.yul\":6048:6063   */\n      lt\n        /* \"#utility.yul\":6022:6253   */\n      iszero\n      tag_138\n      jumpi\n        /* \"#utility.yul\":6131:6134   */\n      dup1\n        /* \"#utility.yul\":6160:6208   */\n      tag_139\n        /* \"#utility.yul\":6204:6207   */\n      dup9\n        /* \"#utility.yul\":6192:6202   */\n      dup3\n        /* \"#utility.yul\":6160:6208   */\n      tag_49\n      jump\t// in\n    tag_139:\n        /* \"#utility.yul\":6155:6158   */\n      dup5\n        /* \"#utility.yul\":6148:6209   */\n      mstore\n        /* \"#utility.yul\":6238:6242   */\n      0x20\n        /* \"#utility.yul\":6233:6236   */\n      dup5\n        /* \"#utility.yul\":6229:6243   */\n      add\n        /* \"#utility.yul\":6222:6243   */\n      swap4\n      pop\n        /* \"#utility.yul\":6098:6253   */\n      pop\n        /* \"#utility.yul\":6082:6086   */\n      0x20\n        /* \"#utility.yul\":6077:6080   */\n      dup2\n        /* \"#utility.yul\":6073:6087   */\n      add\n        /* \"#utility.yul\":6066:6087   */\n      swap1\n      pop\n        /* \"#utility.yul\":6022:6253   */\n      jump(tag_136)\n    tag_138:\n        /* \"#utility.yul\":6026:6047   */\n      pop\n        /* \"#utility.yul\":5640:6259   */\n      pop\n      pop\n        /* \"#utility.yul\":5527:6259   */\n      swap4\n      swap3\n      pop\n      pop\n      pop\n      jump\t// out\n        /* \"#utility.yul\":6282:6667   */\n    tag_60:\n        /* \"#utility.yul\":6364:6369   */\n      0x00\n        /* \"#utility.yul\":6413:6416   */\n      dup3\n        /* \"#utility.yul\":6406:6410   */\n      0x1f\n        /* \"#utility.yul\":6398:6404   */\n      dup4\n        /* \"#utility.yul\":6394:6411   */\n      add\n        /* \"#utility.yul\":6390:6417   */\n      slt\n        /* \"#utility.yul\":6380:6502   */\n      tag_141\n      jumpi\n        /* \"#utility.yul\":6421:6500   */\n      tag_142\n      tag_52\n      jump\t// in\n    tag_142:\n        /* \"#utility.yul\":6380:6502   */\n    tag_141:\n        /* \"#utility.yul\":6531:6537   */\n      dup2\n        /* \"#utility.yul\":6525:6538   */\n      mload\n        /* \"#utility.yul\":6556:6661   */\n      tag_143\n        /* \"#utility.yul\":6657:6660   */\n      dup5\n        /* \"#utility.yul\":6649:6655   */\n      dup3\n        /* \"#utility.yul\":6642:6646   */\n      0x20\n        /* \"#utility.yul\":6634:6640   */\n      dup7\n        /* \"#utility.yul\":6630:6647   */\n      add\n        /* \"#utility.yul\":6556:6661   */\n      tag_59\n      jump\t// in\n    tag_143:\n        /* \"#utility.yul\":6547:6661   */\n      swap2\n      pop\n        /* \"#utility.yul\":6370:6667   */\n      pop\n        /* \"#utility.yul\":6282:6667   */\n      swap3\n      swap2\n      pop\n      pop\n      jump\t// out\n        /* \"#utility.yul\":6673:7533   */\n    tag_25:\n        /* \"#utility.yul\":6783:6789   */\n      0x00\n        /* \"#utility.yul\":6791:6797   */\n      dup1\n        /* \"#utility.yul\":6799:6805   */\n      0x00\n        /* \"#utility.yul\":6848:6850   */\n      0x60\n        /* \"#utility.yul\":6836:6845   */\n      dup5\n        /* \"#utility.yul\":6827:6834   */\n      dup7\n        /* \"#utility.yul\":6823:6846   */\n      sub\n        /* \"#utility.yul\":6819:6851   */\n      slt\n        /* \"#utility.yul\":6816:6935   */\n      iszero\n      tag_145\n      jumpi\n        /* \"#utility.yul\":6854:6933   */\n      tag_146\n      tag_34\n      jump\t// in\n    tag_146:\n        /* \"#utility.yul\":6816:6935   */\n    tag_145:\n        /* \"#utility.yul\":6974:6975   */\n      0x00\n        /* \"#utility.yul\":6999:7063   */\n      tag_147\n        /* \"#utility.yul\":7055:7062   */\n      dup7\n        /* \"#utility.yul\":7046:7052   */\n      dup3\n        /* \"#utility.yul\":7035:7044   */\n      dup8\n        /* \"#utility.yul\":7031:7053   */\n      add\n        /* \"#utility.yul\":6999:7063   */\n      tag_49\n      jump\t// in\n    tag_147:\n        /* \"#utility.yul\":6989:7063   */\n      swap4\n      pop\n        /* \"#utility.yul\":6945:7073   */\n      pop\n        /* \"#utility.yul\":7112:7114   */\n      0x20\n        /* \"#utility.yul\":7138:7199   */\n      tag_148\n        /* \"#utility.yul\":7191:7198   */\n      dup7\n        /* \"#utility.yul\":7182:7188   */\n      dup3\n        /* \"#utility.yul\":7171:7180   */\n      dup8\n        /* \"#utility.yul\":7167:7189   */\n      add\n        /* \"#utility.yul\":7138:7199   */\n      tag_51\n      jump\t// in\n    tag_148:\n        /* \"#utility.yul\":7128:7199   */\n      swap3\n      pop\n        /* \"#utility.yul\":7083:7209   */\n      pop\n        /* \"#utility.yul\":7269:7271   */\n      0x40\n        /* \"#utility.yul\":7258:7267   */\n      dup5\n        /* \"#utility.yul\":7254:7272   */\n      add\n        /* \"#utility.yul\":7248:7273   */\n      mload\n        /* \"#utility.yul\":7300:7318   */\n      0xffffffffffffffff\n        /* \"#utility.yul\":7292:7298   */\n      dup2\n        /* \"#utility.yul\":7289:7319   */\n      gt\n        /* \"#utility.yul\":7286:7403   */\n      iszero\n      tag_149\n      jumpi\n        /* \"#utility.yul\":7322:7401   */\n      tag_150\n      tag_35\n      jump\t// in\n    tag_150:\n        /* \"#utility.yul\":7286:7403   */\n    tag_149:\n        /* \"#utility.yul\":7427:7516   */\n      tag_151\n        /* \"#utility.yul\":7508:7515   */\n      dup7\n        /* \"#utility.yul\":7499:7505   */\n      dup3\n        /* \"#utility.yul\":7488:7497   */\n      dup8\n        /* \"#utility.yul\":7484:7506   */\n      add\n        /* \"#utility.yul\":7427:7516   */\n      tag_60\n      jump\t// in\n    tag_151:\n        /* \"#utility.yul\":7417:7516   */\n      swap2\n      pop\n        /* \"#utility.yul\":7219:7526   */\n      pop\n        /* \"#utility.yul\":6673:7533   */\n      swap3\n      pop\n      swap3\n      pop\n      swap3\n      jump\t// out\n        /* \"#utility.yul\":7539:7665   */\n    tag_61:\n        /* \"#utility.yul\":7576:7583   */\n      0x00\n        /* \"#utility.yul\":7616:7658   */\n      0xffffffffffffffffffffffffffffffffffffffff\n        /* \"#utility.yul\":7609:7614   */\n      dup3\n        /* \"#utility.yul\":7605:7659   */\n      and\n        /* \"#utility.yul\":7594:7659   */\n      swap1\n      pop\n        /* \"#utility.yul\":7539:7665   */\n      swap2\n      swap1\n      pop\n      jump\t// out\n        /* \"#utility.yul\":7671:7767   */\n    tag_62:\n        /* \"#utility.yul\":7708:7715   */\n      0x00\n        /* \"#utility.yul\":7737:7761   */\n      tag_154\n        /* \"#utility.yul\":7755:7760   */\n      dup3\n        /* \"#utility.yul\":7737:7761   */\n      tag_61\n      jump\t// in\n    tag_154:\n        /* \"#utility.yul\":7726:7761   */\n      swap1\n      pop\n        /* \"#utility.yul\":7671:7767   */\n      swap2\n      swap1\n      pop\n      jump\t// out\n        /* \"#utility.yul\":7773:7891   */\n    tag_63:\n        /* \"#utility.yul\":7860:7884   */\n      tag_156\n        /* \"#utility.yul\":7878:7883   */\n      dup2\n        /* \"#utility.yul\":7860:7884   */\n      tag_62\n      jump\t// in\n    tag_156:\n        /* \"#utility.yul\":7855:7858   */\n      dup3\n        /* \"#utility.yul\":7848:7885   */\n      mstore\n        /* \"#utility.yul\":7773:7891   */\n      pop\n      pop\n      jump\t// out\n        /* \"#utility.yul\":7897:7982   */\n    tag_64:\n        /* \"#utility.yul\":7942:7949   */\n      0x00\n        /* \"#utility.yul\":7971:7976   */\n      dup2\n        /* \"#utility.yul\":7960:7976   */\n      swap1\n      pop\n        /* \"#utility.yul\":7897:7982   */\n      swap2\n      swap1\n      pop\n      jump\t// out\n        /* \"#utility.yul\":7988:8048   */\n    tag_65:\n        /* \"#utility.yul\":8016:8019   */\n      0x00\n        /* \"#utility.yul\":8037:8042   */\n      dup2\n        /* \"#utility.yul\":8030:8042   */\n      swap1\n      pop\n        /* \"#utility.yul\":7988:8048   */\n      swap2\n      swap1\n      pop\n      jump\t// out\n        /* \"#utility.yul\":8054:8212   */\n    tag_66:\n        /* \"#utility.yul\":8112:8121   */\n      0x00\n        /* \"#utility.yul\":8145:8206   */\n      tag_160\n        /* \"#utility.yul\":8163:8205   */\n      tag_161\n        /* \"#utility.yul\":8172:8204   */\n      tag_162\n        /* \"#utility.yul\":8198:8203   */\n      dup5\n        /* \"#utility.yul\":8172:8204   */\n      tag_64\n      jump\t// in\n    tag_162:\n        /* \"#utility.yul\":8163:8205   */\n      tag_65\n      jump\t// in\n    tag_161:\n        /* \"#utility.yul\":8145:8206   */\n      tag_36\n      jump\t// in\n    tag_160:\n        /* \"#utility.yul\":8132:8206   */\n      swap1\n      pop\n        /* \"#utility.yul\":8054:8212   */\n      swap2\n      swap1\n      pop\n      jump\t// out\n        /* \"#utility.yul\":8218:8365   */\n    tag_67:\n        /* \"#utility.yul\":8313:8358   */\n      tag_164\n        /* \"#utility.yul\":8352:8357   */\n      dup2\n        /* \"#utility.yul\":8313:8358   */\n      tag_66\n      jump\t// in\n    tag_164:\n        /* \"#utility.yul\":8308:8311   */\n      dup3\n        /* \"#utility.yul\":8301:8359   */\n      mstore\n        /* \"#utility.yul\":8218:8365   */\n      pop\n      pop\n      jump\t// out\n        /* \"#utility.yul\":8371:8719   */\n    tag_28:\n        /* \"#utility.yul\":8500:8504   */\n      0x00\n        /* \"#utility.yul\":8538:8540   */\n      0x40\n        /* \"#utility.yul\":8527:8536   */\n      dup3\n        /* \"#utility.yul\":8523:8541   */\n      add\n        /* \"#utility.yul\":8515:8541   */\n      swap1\n      pop\n        /* \"#utility.yul\":8551:8622   */\n      tag_166\n        /* \"#utility.yul\":8619:8620   */\n      0x00\n        /* \"#utility.yul\":8608:8617   */\n      dup4\n        /* \"#utility.yul\":8604:8621   */\n      add\n        /* \"#utility.yul\":8595:8601   */\n      dup6\n        /* \"#utility.yul\":8551:8622   */\n      tag_63\n      jump\t// in\n    tag_166:\n        /* \"#utility.yul\":8632:8712   */\n      tag_167\n        /* \"#utility.yul\":8708:8710   */\n      0x20\n        /* \"#utility.yul\":8697:8706   */\n      dup4\n        /* \"#utility.yul\":8693:8711   */\n      add\n        /* \"#utility.yul\":8684:8690   */\n      dup5\n        /* \"#utility.yul\":8632:8712   */\n      tag_67\n      jump\t// in\n    tag_167:\n        /* \"#utility.yul\":8371:8719   */\n      swap4\n      swap3\n      pop\n      pop\n      pop\n      jump\t// out\n        /* \"#utility.yul\":8725:9070   */\n    tag_32:\n        /* \"#utility.yul\":8792:8798   */\n      0x00\n        /* \"#utility.yul\":8841:8843   */\n      0x20\n        /* \"#utility.yul\":8829:8838   */\n      dup3\n        /* \"#utility.yul\":8820:8827   */\n      dup5\n        /* \"#utility.yul\":8816:8839   */\n      sub\n        /* \"#utility.yul\":8812:8844   */\n      slt\n        /* \"#utility.yul\":8809:8928   */\n      iszero\n      tag_169\n      jumpi\n        /* \"#utility.yul\":8847:8926   */\n      tag_170\n      tag_34\n      jump\t// in\n    tag_170:\n        /* \"#utility.yul\":8809:8928   */\n    tag_169:\n        /* \"#utility.yul\":8967:8968   */\n      0x00\n        /* \"#utility.yul\":8992:9053   */\n      tag_171\n        /* \"#utility.yul\":9045:9052   */\n      dup5\n        /* \"#utility.yul\":9036:9042   */\n      dup3\n        /* \"#utility.yul\":9025:9034   */\n      dup6\n        /* \"#utility.yul\":9021:9043   */\n      add\n        /* \"#utility.yul\":8992:9053   */\n      tag_51\n      jump\t// in\n    tag_171:\n        /* \"#utility.yul\":8982:9053   */\n      swap2\n      pop\n        /* \"#utility.yul\":8938:9063   */\n      pop\n        /* \"#utility.yul\":8725:9070   */\n      swap3\n      swap2\n      pop\n      pop\n      jump\t// out\n\n    auxdata: 0xa2646970667358221220052f26890c702fbca9ea8ab5cae7a5b960152da53b13ca7c6c63091f9aa5c88264736f6c63430008120033\n}\n\nsub_1: assembly {\n        /* \"contracts/DirectVRF.sol\":653:4003  contract VRFv2DirectFundingConsumer is... */\n      mstore(0x40, 0xc0)\n        /* \"contracts/DirectVRF.sol\":1636:1642  100000 */\n      0x0186a0\n        /* \"contracts/DirectVRF.sol\":1610:1642  uint32 callbackGasLimit = 100000 */\n      0x05\n      exp(0x0100, 0x00)\n      dup2\n      sload\n      dup2\n      0xffffffff\n      mul\n      not\n      and\n      swap1\n      dup4\n      0xffffffff\n      and\n      mul\n      or\n      swap1\n      sstore\n      pop\n        /* \"contracts/DirectVRF.sol\":1733:1734  3 */\n      0x03\n        /* \"contracts/DirectVRF.sol\":1703:1734  uint16 requestConfirmations = 3 */\n      0x05\n      exp(0x0100, 0x04)\n      dup2\n      sload\n      dup2\n      0xffff\n      mul\n      not\n      and\n      swap1\n      dup4\n      0xffff\n      and\n      mul\n      or\n      swap1\n      sstore\n      pop\n        /* \"contracts/DirectVRF.sol\":1884:1885  2 */\n      0x02\n        /* \"contracts/DirectVRF.sol\":1866:1885  uint32 numWords = 2 */\n      0x05\n      exp(0x0100, 0x06)\n      dup2\n      sload\n      dup2\n      0xffffffff\n      mul\n      not\n      and\n      swap1\n      dup4\n      0xffffffff\n      and\n      mul\n      or\n      swap1\n      sstore\n      pop\n        /* \"contracts/DirectVRF.sol\":1957:1999  0x326C977E6efc84E512bB9C30f76E30c160eD06FB */\n      0x326c977e6efc84e512bb9c30f76e30c160ed06fb\n        /* \"contracts/DirectVRF.sol\":1935:1999  address linkAddress = 0x326C977E6efc84E512bB9C30f76E30c160eD06FB */\n      0x05\n      exp(0x0100, 0x0a)\n      dup2\n      sload\n      dup2\n      0xffffffffffffffffffffffffffffffffffffffff\n      mul\n      not\n      and\n      swap1\n      dup4\n      0xffffffffffffffffffffffffffffffffffffffff\n      and\n      mul\n      or\n      swap1\n      sstore\n      pop\n        /* \"contracts/DirectVRF.sol\":2077:2119  0x99aFAf084eBA697E584501b8Ed2c0B37Dd136693 */\n      0x99afaf084eba697e584501b8ed2c0b37dd136693\n        /* \"contracts/DirectVRF.sol\":2052:2119  address wrapperAddress = 0x99aFAf084eBA697E584501b8Ed2c0B37Dd136693 */\n      0x06\n      exp(0x0100, 0x00)\n      dup2\n      sload\n      dup2\n      0xffffffffffffffffffffffffffffffffffffffff\n      mul\n      not\n      and\n      swap1\n      dup4\n      0xffffffffffffffffffffffffffffffffffffffff\n      and\n      mul\n      or\n      swap1\n      sstore\n      pop\n        /* \"contracts/DirectVRF.sol\":2126:2243  constructor()... */\n      callvalue\n      dup1\n      iszero\n      tag_1\n      jumpi\n      0x00\n      dup1\n      revert\n    tag_1:\n      pop\n        /* \"contracts/DirectVRF.sol\":2163:2173  msg.sender */\n      caller\n        /* \"@chainlink/contracts/src/v0.8/ConfirmedOwner.sol\":327:335  newOwner */\n      dup1\n        /* \"@chainlink/contracts/src/v0.8/ConfirmedOwner.sol\":345:346  0 */\n      0x00\n        /* \"contracts/DirectVRF.sol\":2208:2219  linkAddress */\n      0x05\n      0x0a\n      swap1\n      sload\n      swap1\n      0x0100\n      exp\n      swap1\n      div\n      0xffffffffffffffffffffffffffffffffffffffff\n      and\n        /* \"contracts/DirectVRF.sol\":2221:2235  wrapperAddress */\n      0x06\n      0x00\n      swap1\n      sload\n      swap1\n      0x0100\n      exp\n      swap1\n      div\n      0xffffffffffffffffffffffffffffffffffffffff\n      and\n        /* \"@chainlink/contracts/src/v0.8/VRFV2WrapperConsumerBase.sol\":1938:1943  _link */\n      dup2\n        /* \"@chainlink/contracts/src/v0.8/VRFV2WrapperConsumerBase.sol\":1912:1944  LINK = LinkTokenInterface(_link) */\n      0xffffffffffffffffffffffffffffffffffffffff\n      and\n      0x80\n      dup2\n      0xffffffffffffffffffffffffffffffffffffffff\n      and\n      dup2\n      mstore\n      pop\n      pop\n        /* \"@chainlink/contracts/src/v0.8/VRFV2WrapperConsumerBase.sol\":1989:2002  _vrfV2Wrapper */\n      dup1\n        /* \"@chainlink/contracts/src/v0.8/VRFV2WrapperConsumerBase.sol\":1950:2003  VRF_V2_WRAPPER = VRFV2WrapperInterface(_vrfV2Wrapper) */\n      0xffffffffffffffffffffffffffffffffffffffff\n      and\n      0xa0\n      dup2\n      0xffffffffffffffffffffffffffffffffffffffff\n      and\n      dup2\n      mstore\n      pop\n      pop\n        /* \"@chainlink/contracts/src/v0.8/VRFV2WrapperConsumerBase.sol\":1856:2008  constructor(address _link, address _vrfV2Wrapper) {... */\n      pop\n      pop\n        /* \"@chainlink/contracts/src/v0.8/ConfirmedOwnerWithProposal.sol\":572:573  0 */\n      0x00\n        /* \"@chainlink/contracts/src/v0.8/ConfirmedOwnerWithProposal.sol\":552:574  newOwner != address(0) */\n      0xffffffffffffffffffffffffffffffffffffffff\n      and\n        /* \"@chainlink/contracts/src/v0.8/ConfirmedOwnerWithProposal.sol\":552:560  newOwner */\n      dup3\n        /* \"@chainlink/contracts/src/v0.8/ConfirmedOwnerWithProposal.sol\":552:574  newOwner != address(0) */\n      0xffffffffffffffffffffffffffffffffffffffff\n      and\n      sub\n        /* \"@chainlink/contracts/src/v0.8/ConfirmedOwnerWithProposal.sol\":544:603  require(newOwner != address(0), \"Cannot set owner to zero\") */\n      tag_8\n      jumpi\n      mload(0x40)\n      0x08c379a000000000000000000000000000000000000000000000000000000000\n      dup2\n      mstore\n      0x04\n      add\n      tag_9\n      swap1\n      tag_10\n      jump\t// in\n    tag_9:\n      mload(0x40)\n      dup1\n      swap2\n      sub\n      swap1\n      revert\n    tag_8:\n        /* \"@chainlink/contracts/src/v0.8/ConfirmedOwnerWithProposal.sol\":620:628  newOwner */\n      dup2\n        /* \"@chainlink/contracts/src/v0.8/ConfirmedOwnerWithProposal.sol\":610:617  s_owner */\n      0x00\n      dup1\n        /* \"@chainlink/contracts/src/v0.8/ConfirmedOwnerWithProposal.sol\":610:628  s_owner = newOwner */\n      0x0100\n      exp\n      dup2\n      sload\n      dup2\n      0xffffffffffffffffffffffffffffffffffffffff\n      mul\n      not\n      and\n      swap1\n      dup4\n      0xffffffffffffffffffffffffffffffffffffffff\n      and\n      mul\n      or\n      swap1\n      sstore\n      pop\n        /* \"@chainlink/contracts/src/v0.8/ConfirmedOwnerWithProposal.sol\":662:663  0 */\n      0x00\n        /* \"@chainlink/contracts/src/v0.8/ConfirmedOwnerWithProposal.sol\":638:664  pendingOwner != address(0) */\n      0xffffffffffffffffffffffffffffffffffffffff\n      and\n        /* \"@chainlink/contracts/src/v0.8/ConfirmedOwnerWithProposal.sol\":638:650  pendingOwner */\n      dup2\n        /* \"@chainlink/contracts/src/v0.8/ConfirmedOwnerWithProposal.sol\":638:664  pendingOwner != address(0) */\n      0xffffffffffffffffffffffffffffffffffffffff\n      and\n      eq\n        /* \"@chainlink/contracts/src/v0.8/ConfirmedOwnerWithProposal.sol\":634:713  if (pendingOwner != address(0)) {... */\n      tag_11\n      jumpi\n        /* \"@chainlink/contracts/src/v0.8/ConfirmedOwnerWithProposal.sol\":674:706  _transferOwnership(pendingOwner) */\n      tag_12\n        /* \"@chainlink/contracts/src/v0.8/ConfirmedOwnerWithProposal.sol\":693:705  pendingOwner */\n      dup2\n        /* \"@chainlink/contracts/src/v0.8/ConfirmedOwnerWithProposal.sol\":674:692  _transferOwnership */\n      shl(0x20, tag_13)\n        /* \"@chainlink/contracts/src/v0.8/ConfirmedOwnerWithProposal.sol\":674:706  _transferOwnership(pendingOwner) */\n      0x20\n      shr\n      jump\t// in\n    tag_12:\n        /* \"@chainlink/contracts/src/v0.8/ConfirmedOwnerWithProposal.sol\":634:713  if (pendingOwner != address(0)) {... */\n    tag_11:\n        /* \"@chainlink/contracts/src/v0.8/ConfirmedOwnerWithProposal.sol\":486:717  constructor(address newOwner, address pendingOwner) {... */\n      pop\n      pop\n        /* \"@chainlink/contracts/src/v0.8/ConfirmedOwner.sol\":270:351  constructor(address newOwner) ConfirmedOwnerWithProposal(newOwner, address(0)) {} */\n      pop\n        /* \"contracts/DirectVRF.sol\":653:4003  contract VRFv2DirectFundingConsumer is... */\n      jump(tag_16)\n        /* \"@chainlink/contracts/src/v0.8/ConfirmedOwnerWithProposal.sol\":1497:1685  function _transferOwnership(address to) private {... */\n    tag_13:\n        /* \"@chainlink/contracts/src/v0.8/ConfirmedOwnerWithProposal.sol\":1565:1575  msg.sender */\n      caller\n        /* \"@chainlink/contracts/src/v0.8/ConfirmedOwnerWithProposal.sol\":1559:1575  to != msg.sender */\n      0xffffffffffffffffffffffffffffffffffffffff\n      and\n        /* \"@chainlink/contracts/src/v0.8/ConfirmedOwnerWithProposal.sol\":1559:1561  to */\n      dup2\n        /* \"@chainlink/contracts/src/v0.8/ConfirmedOwnerWithProposal.sol\":1559:1575  to != msg.sender */\n      0xffffffffffffffffffffffffffffffffffffffff\n      and\n      sub\n        /* \"@chainlink/contracts/src/v0.8/ConfirmedOwnerWithProposal.sol\":1551:1603  require(to != msg.sender, \"Cannot transfer to self\") */\n      tag_18\n      jumpi\n      mload(0x40)\n      0x08c379a000000000000000000000000000000000000000000000000000000000\n      dup2\n      mstore\n      0x04\n      add\n      tag_19\n      swap1\n      tag_20\n      jump\t// in\n    tag_19:\n      mload(0x40)\n      dup1\n      swap2\n      sub\n      swap1\n      revert\n    tag_18:\n        /* \"@chainlink/contracts/src/v0.8/ConfirmedOwnerWithProposal.sol\":1627:1629  to */\n      dup1\n        /* \"@chainlink/contracts/src/v0.8/ConfirmedOwnerWithProposal.sol\":1610:1624  s_pendingOwner */\n      0x01\n      0x00\n        /* \"@chainlink/contracts/src/v0.8/ConfirmedOwnerWithProposal.sol\":1610:1629  s_pendingOwner = to */\n      0x0100\n      exp\n      dup2\n      sload\n      dup2\n      0xffffffffffffffffffffffffffffffffffffffff\n      mul\n      not\n      and\n      swap1\n      dup4\n      0xffffffffffffffffffffffffffffffffffffffff\n      and\n      mul\n      or\n      swap1\n      sstore\n      pop\n        /* \"@chainlink/contracts/src/v0.8/ConfirmedOwnerWithProposal.sol\":1677:1679  to */\n      dup1\n        /* \"@chainlink/contracts/src/v0.8/ConfirmedOwnerWithProposal.sol\":1641:1680  OwnershipTransferRequested(s_owner, to) */\n      0xffffffffffffffffffffffffffffffffffffffff\n      and\n        /* \"@chainlink/contracts/src/v0.8/ConfirmedOwnerWithProposal.sol\":1668:1675  s_owner */\n      0x00\n      dup1\n      sload\n      swap1\n      0x0100\n      exp\n      swap1\n      div\n      0xffffffffffffffffffffffffffffffffffffffff\n      and\n        /* \"@chainlink/contracts/src/v0.8/ConfirmedOwnerWithProposal.sol\":1641:1680  OwnershipTransferRequested(s_owner, to) */\n      0xffffffffffffffffffffffffffffffffffffffff\n      and\n      0xed8889f560326eb138920d842192f0eb3dd22b4f139c87a2c57538e05bae1278\n      mload(0x40)\n      mload(0x40)\n      dup1\n      swap2\n      sub\n      swap1\n      log3\n        /* \"@chainlink/contracts/src/v0.8/ConfirmedOwnerWithProposal.sol\":1497:1685  function _transferOwnership(address to) private {... */\n      pop\n      jump\t// out\n        /* \"#utility.yul\":7:176   */\n    tag_21:\n        /* \"#utility.yul\":91:102   */\n      0x00\n        /* \"#utility.yul\":125:131   */\n      dup3\n        /* \"#utility.yul\":120:123   */\n      dup3\n        /* \"#utility.yul\":113:132   */\n      mstore\n        /* \"#utility.yul\":165:169   */\n      0x20\n        /* \"#utility.yul\":160:163   */\n      dup3\n        /* \"#utility.yul\":156:170   */\n      add\n        /* \"#utility.yul\":141:170   */\n      swap1\n      pop\n        /* \"#utility.yul\":7:176   */\n      swap3\n      swap2\n      pop\n      pop\n      jump\t// out\n        /* \"#utility.yul\":182:356   */\n    tag_22:\n        /* \"#utility.yul\":322:348   */\n      0x43616e6e6f7420736574206f776e657220746f207a65726f0000000000000000\n        /* \"#utility.yul\":318:319   */\n      0x00\n        /* \"#utility.yul\":310:316   */\n      dup3\n        /* \"#utility.yul\":306:320   */\n      add\n        /* \"#utility.yul\":299:349   */\n      mstore\n        /* \"#utility.yul\":182:356   */\n      pop\n      jump\t// out\n        /* \"#utility.yul\":362:728   */\n    tag_23:\n        /* \"#utility.yul\":504:507   */\n      0x00\n        /* \"#utility.yul\":525:592   */\n      tag_30\n        /* \"#utility.yul\":589:591   */\n      0x18\n        /* \"#utility.yul\":584:587   */\n      dup4\n        /* \"#utility.yul\":525:592   */\n      tag_21\n      jump\t// in\n    tag_30:\n        /* \"#utility.yul\":518:592   */\n      swap2\n      pop\n        /* \"#utility.yul\":601:694   */\n      tag_31\n        /* \"#utility.yul\":690:693   */\n      dup3\n        /* \"#utility.yul\":601:694   */\n      tag_22\n      jump\t// in\n    tag_31:\n        /* \"#utility.yul\":719:721   */\n      0x20\n        /* \"#utility.yul\":714:717   */\n      dup3\n        /* \"#utility.yul\":710:722   */\n      add\n        /* \"#utility.yul\":703:722   */\n      swap1\n      pop\n        /* \"#utility.yul\":362:728   */\n      swap2\n      swap1\n      pop\n      jump\t// out\n        /* \"#utility.yul\":734:1153   */\n    tag_10:\n        /* \"#utility.yul\":900:904   */\n      0x00\n        /* \"#utility.yul\":938:940   */\n      0x20\n        /* \"#utility.yul\":927:936   */\n      dup3\n        /* \"#utility.yul\":923:941   */\n      add\n        /* \"#utility.yul\":915:941   */\n      swap1\n      pop\n        /* \"#utility.yul\":987:996   */\n      dup2\n        /* \"#utility.yul\":981:985   */\n      dup2\n        /* \"#utility.yul\":977:997   */\n      sub\n        /* \"#utility.yul\":973:974   */\n      0x00\n        /* \"#utility.yul\":962:971   */\n      dup4\n        /* \"#utility.yul\":958:975   */\n      add\n        /* \"#utility.yul\":951:998   */\n      mstore\n        /* \"#utility.yul\":1015:1146   */\n      tag_33\n        /* \"#utility.yul\":1141:1145   */\n      dup2\n        /* \"#utility.yul\":1015:1146   */\n      tag_23\n      jump\t// in\n    tag_33:\n        /* \"#utility.yul\":1007:1146   */\n      swap1\n      pop\n        /* \"#utility.yul\":734:1153   */\n      swap2\n      swap1\n      pop\n      jump\t// out\n        /* \"#utility.yul\":1159:1332   */\n    tag_24:\n        /* \"#utility.yul\":1299:1324   */\n      0x43616e6e6f74207472616e7366657220746f2073656c66000000000000000000\n        /* \"#utility.yul\":1295:1296   */\n      0x00\n        /* \"#utility.yul\":1287:1293   */\n      dup3\n        /* \"#utility.yul\":1283:1297   */\n      add\n        /* \"#utility.yul\":1276:1325   */\n      mstore\n        /* \"#utility.yul\":1159:1332   */\n      pop\n      jump\t// out\n        /* \"#utility.yul\":1338:1704   */\n    tag_25:\n        /* \"#utility.yul\":1480:1483   */\n      0x00\n        /* \"#utility.yul\":1501:1568   */\n      tag_36\n        /* \"#utility.yul\":1565:1567   */\n      0x17\n        /* \"#utility.yul\":1560:1563   */\n      dup4\n        /* \"#utility.yul\":1501:1568   */\n      tag_21\n      jump\t// in\n    tag_36:\n        /* \"#utility.yul\":1494:1568   */\n      swap2\n      pop\n        /* \"#utility.yul\":1577:1670   */\n      tag_37\n        /* \"#utility.yul\":1666:1669   */\n      dup3\n        /* \"#utility.yul\":1577:1670   */\n      tag_24\n      jump\t// in\n    tag_37:\n        /* \"#utility.yul\":1695:1697   */\n      0x20\n        /* \"#utility.yul\":1690:1693   */\n      dup3\n        /* \"#utility.yul\":1686:1698   */\n      add\n        /* \"#utility.yul\":1679:1698   */\n      swap1\n      pop\n        /* \"#utility.yul\":1338:1704   */\n      swap2\n      swap1\n      pop\n      jump\t// out\n        /* \"#utility.yul\":1710:2129   */\n    tag_20:\n        /* \"#utility.yul\":1876:1880   */\n      0x00\n        /* \"#utility.yul\":1914:1916   */\n      0x20\n        /* \"#utility.yul\":1903:1912   */\n      dup3\n        /* \"#utility.yul\":1899:1917   */\n      add\n        /* \"#utility.yul\":1891:1917   */\n      swap1\n      pop\n        /* \"#utility.yul\":1963:1972   */\n      dup2\n        /* \"#utility.yul\":1957:1961   */\n      dup2\n        /* \"#utility.yul\":1953:1973   */\n      sub\n        /* \"#utility.yul\":1949:1950   */\n      0x00\n        /* \"#utility.yul\":1938:1947   */\n      dup4\n        /* \"#utility.yul\":1934:1951   */\n      add\n        /* \"#utility.yul\":1927:1974   */\n      mstore\n        /* \"#utility.yul\":1991:2122   */\n      tag_39\n        /* \"#utility.yul\":2117:2121   */\n      dup2\n        /* \"#utility.yul\":1991:2122   */\n      tag_25\n      jump\t// in\n    tag_39:\n        /* \"#utility.yul\":1983:2122   */\n      swap1\n      pop\n        /* \"#utility.yul\":1710:2129   */\n      swap2\n      swap1\n      pop\n      jump\t// out\n        /* \"contracts/DirectVRF.sol\":653:4003  contract VRFv2DirectFundingConsumer is... */\n    tag_16:\n      mload(0x80)\n      mload(0xa0)\n      codecopy(0x00, dataOffset(sub_0), dataSize(sub_0))\n      0x00\n      assignImmutable(\"0xa75e2cf51d42f4164e4624f425e61448777a748393b6f6a5bcb1d94d1e8e5e98\")\n      0x00\n      assignImmutable(\"0x266b1640ade99b2f22d24bd1f0c6c2736890e0398a5a0b97b63a35856ae65c2b\")\n      return(0x00, dataSize(sub_0))\n    stop\n\n    sub_0: assembly {\n            /* \"contracts/DirectVRF.sol\":653:4003  contract VRFv2DirectFundingConsumer is... */\n          mstore(0x40, 0x80)\n          callvalue\n          dup1\n          iszero\n          tag_1\n          jumpi\n          0x00\n          dup1\n          revert\n        tag_1:\n          pop\n          jumpi(tag_2, lt(calldatasize, 0x04))\n          shr(0xe0, calldataload(0x00))\n          dup1\n          0xa168fa89\n          gt\n          tag_13\n          jumpi\n          dup1\n          0xa168fa89\n          eq\n          tag_8\n          jumpi\n          dup1\n          0xd8a4676f\n          eq\n          tag_9\n          jumpi\n          dup1\n          0xe0c86289\n          eq\n          tag_10\n          jumpi\n          dup1\n          0xf2fde38b\n          eq\n          tag_11\n          jumpi\n          dup1\n          0xfc2a88c3\n          eq\n          tag_12\n          jumpi\n          jump(tag_2)\n        tag_13:\n          dup1\n          0x1fe543e3\n          eq\n          tag_3\n          jumpi\n          dup1\n          0x79ba5097\n          eq\n          tag_4\n          jumpi\n          dup1\n          0x8796ba8c\n          eq\n          tag_5\n          jumpi\n          dup1\n          0x8da5cb5b\n          eq\n          tag_6\n          jumpi\n          dup1\n          0x8dc654a2\n          eq\n          tag_7\n          jumpi\n        tag_2:\n          0x00\n          dup1\n          revert\n            /* \"@chainlink/contracts/src/v0.8/VRFV2WrapperConsumerBase.sol\":3389:3622  function rawFulfillRandomWords(uint256 _requestId, uint256[] memory _randomWords) external {... */\n        tag_3:\n          tag_14\n          0x04\n          dup1\n          calldatasize\n          sub\n          dup2\n          add\n          swap1\n          tag_15\n          swap2\n          swap1\n          tag_16\n          jump\t// in\n        tag_15:\n          tag_17\n          jump\t// in\n        tag_14:\n          stop\n            /* \"@chainlink/contracts/src/v0.8/ConfirmedOwnerWithProposal.sol\":1016:1281  function acceptOwnership() external override {... */\n        tag_4:\n          tag_18\n          tag_19\n          jump\t// in\n        tag_18:\n          stop\n            /* \"contracts/DirectVRF.sol\":1237:1264  uint256[] public requestIds */\n        tag_5:\n          tag_20\n          0x04\n          dup1\n          calldatasize\n          sub\n          dup2\n          add\n          swap1\n          tag_21\n          swap2\n          swap1\n          tag_22\n          jump\t// in\n        tag_21:\n          tag_23\n          jump\t// in\n        tag_20:\n          mload(0x40)\n          tag_24\n          swap2\n          swap1\n          tag_25\n          jump\t// in\n        tag_24:\n          mload(0x40)\n          dup1\n          swap2\n          sub\n          swap1\n          return\n            /* \"@chainlink/contracts/src/v0.8/ConfirmedOwnerWithProposal.sol\":1332:1413  function owner() public view override returns (address) {... */\n        tag_6:\n          tag_26\n          tag_27\n          jump\t// in\n        tag_26:\n          mload(0x40)\n          tag_28\n          swap2\n          swap1\n          tag_29\n          jump\t// in\n        tag_28:\n          mload(0x40)\n          dup1\n          swap2\n          sub\n          swap1\n          return\n            /* \"contracts/DirectVRF.sol\":3755:4001  function withdrawLink() public onlyOwner {... */\n        tag_7:\n          tag_30\n          tag_31\n          jump\t// in\n        tag_30:\n          stop\n            /* \"contracts/DirectVRF.sol\":1112:1171  mapping(uint256 => RequestStatus)... */\n        tag_8:\n          tag_32\n          0x04\n          dup1\n          calldatasize\n          sub\n          dup2\n          add\n          swap1\n          tag_33\n          swap2\n          swap1\n          tag_22\n          jump\t// in\n        tag_33:\n          tag_34\n          jump\t// in\n        tag_32:\n          mload(0x40)\n          tag_35\n          swap3\n          swap2\n          swap1\n          tag_36\n          jump\t// in\n        tag_35:\n          mload(0x40)\n          dup1\n          swap2\n          sub\n          swap1\n          return\n            /* \"contracts/DirectVRF.sol\":3295:3678  function getRequestStatus(... */\n        tag_9:\n          tag_37\n          0x04\n          dup1\n          calldatasize\n          sub\n          dup2\n          add\n          swap1\n          tag_38\n          swap2\n          swap1\n          tag_22\n          jump\t// in\n        tag_38:\n          tag_39\n          jump\t// in\n        tag_37:\n          mload(0x40)\n          tag_40\n          swap4\n          swap3\n          swap2\n          swap1\n          tag_41\n          jump\t// in\n        tag_40:\n          mload(0x40)\n          dup1\n          swap2\n          sub\n          swap1\n          return\n            /* \"contracts/DirectVRF.sol\":2249:2846  function requestRandomWords()... */\n        tag_10:\n          tag_42\n          tag_43\n          jump\t// in\n        tag_42:\n          mload(0x40)\n          tag_44\n          swap2\n          swap1\n          tag_25\n          jump\t// in\n        tag_44:\n          mload(0x40)\n          dup1\n          swap2\n          sub\n          swap1\n          return\n            /* \"@chainlink/contracts/src/v0.8/ConfirmedOwnerWithProposal.sol\":826:924  function transferOwnership(address to) public override onlyOwner {... */\n        tag_11:\n          tag_45\n          0x04\n          dup1\n          calldatasize\n          sub\n          dup2\n          add\n          swap1\n          tag_46\n          swap2\n          swap1\n          tag_47\n          jump\t// in\n        tag_46:\n          tag_48\n          jump\t// in\n        tag_45:\n          stop\n            /* \"contracts/DirectVRF.sol\":1270:1298  uint256 public lastRequestId */\n        tag_12:\n          tag_49\n          tag_50\n          jump\t// in\n        tag_49:\n          mload(0x40)\n          tag_51\n          swap2\n          swap1\n          tag_25\n          jump\t// in\n        tag_51:\n          mload(0x40)\n          dup1\n          swap2\n          sub\n          swap1\n          return\n            /* \"@chainlink/contracts/src/v0.8/VRFV2WrapperConsumerBase.sol\":3389:3622  function rawFulfillRandomWords(uint256 _requestId, uint256[] memory _randomWords) external {... */\n        tag_17:\n            /* \"@chainlink/contracts/src/v0.8/VRFV2WrapperConsumerBase.sol\":3516:3530  VRF_V2_WRAPPER */\n          immutable(\"0xa75e2cf51d42f4164e4624f425e61448777a748393b6f6a5bcb1d94d1e8e5e98\")\n            /* \"@chainlink/contracts/src/v0.8/VRFV2WrapperConsumerBase.sol\":3494:3531  msg.sender == address(VRF_V2_WRAPPER) */\n          0xffffffffffffffffffffffffffffffffffffffff\n          and\n            /* \"@chainlink/contracts/src/v0.8/VRFV2WrapperConsumerBase.sol\":3494:3504  msg.sender */\n          caller\n            /* \"@chainlink/contracts/src/v0.8/VRFV2WrapperConsumerBase.sol\":3494:3531  msg.sender == address(VRF_V2_WRAPPER) */\n          0xffffffffffffffffffffffffffffffffffffffff\n          and\n          eq\n            /* \"@chainlink/contracts/src/v0.8/VRFV2WrapperConsumerBase.sol\":3486:3567  require(msg.sender == address(VRF_V2_WRAPPER), \"only VRF V2 wrapper can fulfill\") */\n          tag_53\n          jumpi\n          mload(0x40)\n          0x08c379a000000000000000000000000000000000000000000000000000000000\n          dup2\n          mstore\n          0x04\n          add\n          tag_54\n          swap1\n          tag_55\n          jump\t// in\n        tag_54:\n          mload(0x40)\n          dup1\n          swap2\n          sub\n          swap1\n          revert\n        tag_53:\n            /* \"@chainlink/contracts/src/v0.8/VRFV2WrapperConsumerBase.sol\":3573:3617  fulfillRandomWords(_requestId, _randomWords) */\n          tag_56\n            /* \"@chainlink/contracts/src/v0.8/VRFV2WrapperConsumerBase.sol\":3592:3602  _requestId */\n          dup3\n            /* \"@chainlink/contracts/src/v0.8/VRFV2WrapperConsumerBase.sol\":3604:3616  _randomWords */\n          dup3\n            /* \"@chainlink/contracts/src/v0.8/VRFV2WrapperConsumerBase.sol\":3573:3591  fulfillRandomWords */\n          tag_57\n            /* \"@chainlink/contracts/src/v0.8/VRFV2WrapperConsumerBase.sol\":3573:3617  fulfillRandomWords(_requestId, _randomWords) */\n          jump\t// in\n        tag_56:\n            /* \"@chainlink/contracts/src/v0.8/VRFV2WrapperConsumerBase.sol\":3389:3622  function rawFulfillRandomWords(uint256 _requestId, uint256[] memory _randomWords) external {... */\n          pop\n          pop\n          jump\t// out\n            /* \"@chainlink/contracts/src/v0.8/ConfirmedOwnerWithProposal.sol\":1016:1281  function acceptOwnership() external override {... */\n        tag_19:\n            /* \"@chainlink/contracts/src/v0.8/ConfirmedOwnerWithProposal.sol\":1089:1103  s_pendingOwner */\n          0x01\n          0x00\n          swap1\n          sload\n          swap1\n          0x0100\n          exp\n          swap1\n          div\n          0xffffffffffffffffffffffffffffffffffffffff\n          and\n            /* \"@chainlink/contracts/src/v0.8/ConfirmedOwnerWithProposal.sol\":1075:1103  msg.sender == s_pendingOwner */\n          0xffffffffffffffffffffffffffffffffffffffff\n          and\n            /* \"@chainlink/contracts/src/v0.8/ConfirmedOwnerWithProposal.sol\":1075:1085  msg.sender */\n          caller\n            /* \"@chainlink/contracts/src/v0.8/ConfirmedOwnerWithProposal.sol\":1075:1103  msg.sender == s_pendingOwner */\n          0xffffffffffffffffffffffffffffffffffffffff\n          and\n          eq\n            /* \"@chainlink/contracts/src/v0.8/ConfirmedOwnerWithProposal.sol\":1067:1130  require(msg.sender == s_pendingOwner, \"Must be proposed owner\") */\n          tag_59\n          jumpi\n          mload(0x40)\n          0x08c379a000000000000000000000000000000000000000000000000000000000\n          dup2\n          mstore\n          0x04\n          add\n          tag_60\n          swap1\n          tag_61\n          jump\t// in\n        tag_60:\n          mload(0x40)\n          dup1\n          swap2\n          sub\n          swap1\n          revert\n        tag_59:\n            /* \"@chainlink/contracts/src/v0.8/ConfirmedOwnerWithProposal.sol\":1137:1153  address oldOwner */\n          0x00\n            /* \"@chainlink/contracts/src/v0.8/ConfirmedOwnerWithProposal.sol\":1156:1163  s_owner */\n          dup1\n          0x00\n          swap1\n          sload\n          swap1\n          0x0100\n          exp\n          swap1\n          div\n          0xffffffffffffffffffffffffffffffffffffffff\n          and\n            /* \"@chainlink/contracts/src/v0.8/ConfirmedOwnerWithProposal.sol\":1137:1163  address oldOwner = s_owner */\n          swap1\n          pop\n            /* \"@chainlink/contracts/src/v0.8/ConfirmedOwnerWithProposal.sol\":1179:1189  msg.sender */\n          caller\n            /* \"@chainlink/contracts/src/v0.8/ConfirmedOwnerWithProposal.sol\":1169:1176  s_owner */\n          0x00\n          dup1\n            /* \"@chainlink/contracts/src/v0.8/ConfirmedOwnerWithProposal.sol\":1169:1189  s_owner = msg.sender */\n          0x0100\n          exp\n          dup2\n          sload\n          dup2\n          0xffffffffffffffffffffffffffffffffffffffff\n          mul\n          not\n          and\n          swap1\n          dup4\n          0xffffffffffffffffffffffffffffffffffffffff\n          and\n          mul\n          or\n          swap1\n          sstore\n          pop\n            /* \"@chainlink/contracts/src/v0.8/ConfirmedOwnerWithProposal.sol\":1220:1221  0 */\n          0x00\n            /* \"@chainlink/contracts/src/v0.8/ConfirmedOwnerWithProposal.sol\":1195:1209  s_pendingOwner */\n          0x01\n          0x00\n            /* \"@chainlink/contracts/src/v0.8/ConfirmedOwnerWithProposal.sol\":1195:1222  s_pendingOwner = address(0) */\n          0x0100\n          exp\n          dup2\n          sload\n          dup2\n          0xffffffffffffffffffffffffffffffffffffffff\n          mul\n          not\n          and\n          swap1\n          dup4\n          0xffffffffffffffffffffffffffffffffffffffff\n          and\n          mul\n          or\n          swap1\n          sstore\n          pop\n            /* \"@chainlink/contracts/src/v0.8/ConfirmedOwnerWithProposal.sol\":1265:1275  msg.sender */\n          caller\n            /* \"@chainlink/contracts/src/v0.8/ConfirmedOwnerWithProposal.sol\":1234:1276  OwnershipTransferred(oldOwner, msg.sender) */\n          0xffffffffffffffffffffffffffffffffffffffff\n          and\n            /* \"@chainlink/contracts/src/v0.8/ConfirmedOwnerWithProposal.sol\":1255:1263  oldOwner */\n          dup2\n            /* \"@chainlink/contracts/src/v0.8/ConfirmedOwnerWithProposal.sol\":1234:1276  OwnershipTransferred(oldOwner, msg.sender) */\n          0xffffffffffffffffffffffffffffffffffffffff\n          and\n          0x8be0079c531659141344cd1fd0a4f28419497f9722a3daafe3b4186f6b6457e0\n          mload(0x40)\n          mload(0x40)\n          dup1\n          swap2\n          sub\n          swap1\n          log3\n            /* \"@chainlink/contracts/src/v0.8/ConfirmedOwnerWithProposal.sol\":1061:1281  {... */\n          pop\n            /* \"@chainlink/contracts/src/v0.8/ConfirmedOwnerWithProposal.sol\":1016:1281  function acceptOwnership() external override {... */\n          jump\t// out\n            /* \"contracts/DirectVRF.sol\":1237:1264  uint256[] public requestIds */\n        tag_23:\n          0x03\n          dup2\n          dup2\n          sload\n          dup2\n          lt\n          tag_62\n          jumpi\n          0x00\n          dup1\n          revert\n        tag_62:\n          swap1\n          0x00\n          mstore\n          keccak256(0x00, 0x20)\n          add\n          0x00\n          swap2\n          pop\n          swap1\n          pop\n          sload\n          dup2\n          jump\t// out\n            /* \"@chainlink/contracts/src/v0.8/ConfirmedOwnerWithProposal.sol\":1332:1413  function owner() public view override returns (address) {... */\n        tag_27:\n            /* \"@chainlink/contracts/src/v0.8/ConfirmedOwnerWithProposal.sol\":1379:1386  address */\n          0x00\n            /* \"@chainlink/contracts/src/v0.8/ConfirmedOwnerWithProposal.sol\":1401:1408  s_owner */\n          dup1\n          0x00\n          swap1\n          sload\n          swap1\n          0x0100\n          exp\n          swap1\n          div\n          0xffffffffffffffffffffffffffffffffffffffff\n          and\n            /* \"@chainlink/contracts/src/v0.8/ConfirmedOwnerWithProposal.sol\":1394:1408  return s_owner */\n          swap1\n          pop\n            /* \"@chainlink/contracts/src/v0.8/ConfirmedOwnerWithProposal.sol\":1332:1413  function owner() public view override returns (address) {... */\n          swap1\n          jump\t// out\n            /* \"contracts/DirectVRF.sol\":3755:4001  function withdrawLink() public onlyOwner {... */\n        tag_31:\n            /* \"@chainlink/contracts/src/v0.8/ConfirmedOwnerWithProposal.sol\":1956:1976  _validateOwnership() */\n          tag_66\n            /* \"@chainlink/contracts/src/v0.8/ConfirmedOwnerWithProposal.sol\":1956:1974  _validateOwnership */\n          tag_67\n            /* \"@chainlink/contracts/src/v0.8/ConfirmedOwnerWithProposal.sol\":1956:1976  _validateOwnership() */\n          jump\t// in\n        tag_66:\n            /* \"contracts/DirectVRF.sol\":3806:3829  LinkTokenInterface link */\n          0x00\n            /* \"contracts/DirectVRF.sol\":3851:3862  linkAddress */\n          0x05\n          0x0a\n          swap1\n          sload\n          swap1\n          0x0100\n          exp\n          swap1\n          div\n          0xffffffffffffffffffffffffffffffffffffffff\n          and\n            /* \"contracts/DirectVRF.sol\":3806:3863  LinkTokenInterface link = LinkTokenInterface(linkAddress) */\n          swap1\n          pop\n            /* \"contracts/DirectVRF.sol\":3894:3898  link */\n          dup1\n            /* \"contracts/DirectVRF.sol\":3894:3907  link.transfer */\n          0xffffffffffffffffffffffffffffffffffffffff\n          and\n          0xa9059cbb\n            /* \"contracts/DirectVRF.sol\":3908:3918  msg.sender */\n          caller\n            /* \"contracts/DirectVRF.sol\":3920:3924  link */\n          dup4\n            /* \"contracts/DirectVRF.sol\":3920:3934  link.balanceOf */\n          0xffffffffffffffffffffffffffffffffffffffff\n          and\n          0x70a08231\n            /* \"contracts/DirectVRF.sol\":3943:3947  this */\n          address\n            /* \"contracts/DirectVRF.sol\":3920:3949  link.balanceOf(address(this)) */\n          mload(0x40)\n          dup3\n          0xffffffff\n          and\n          0xe0\n          shl\n          dup2\n          mstore\n          0x04\n          add\n          tag_69\n          swap2\n          swap1\n          tag_29\n          jump\t// in\n        tag_69:\n          0x20\n          mload(0x40)\n          dup1\n          dup4\n          sub\n          dup2\n          dup7\n          gas\n          staticcall\n          iszero\n          dup1\n          iszero\n          tag_71\n          jumpi\n          returndatasize\n          0x00\n          dup1\n          returndatacopy\n          revert(0x00, returndatasize)\n        tag_71:\n          pop\n          pop\n          pop\n          pop\n          mload(0x40)\n          returndatasize\n          not(0x1f)\n          0x1f\n          dup3\n          add\n          and\n          dup3\n          add\n          dup1\n          0x40\n          mstore\n          pop\n          dup2\n          add\n          swap1\n          tag_72\n          swap2\n          swap1\n          tag_73\n          jump\t// in\n        tag_72:\n            /* \"contracts/DirectVRF.sol\":3894:3950  link.transfer(msg.sender, link.balanceOf(address(this))) */\n          mload(0x40)\n          dup4\n          0xffffffff\n          and\n          0xe0\n          shl\n          dup2\n          mstore\n          0x04\n          add\n          tag_74\n          swap3\n          swap2\n          swap1\n          tag_75\n          jump\t// in\n        tag_74:\n          0x20\n          mload(0x40)\n          dup1\n          dup4\n          sub\n          dup2\n          0x00\n          dup8\n          gas\n          call\n          iszero\n          dup1\n          iszero\n          tag_77\n          jumpi\n          returndatasize\n          0x00\n          dup1\n          returndatacopy\n          revert(0x00, returndatasize)\n        tag_77:\n          pop\n          pop\n          pop\n          pop\n          mload(0x40)\n          returndatasize\n          not(0x1f)\n          0x1f\n          dup3\n          add\n          and\n          dup3\n          add\n          dup1\n          0x40\n          mstore\n          pop\n          dup2\n          add\n          swap1\n          tag_78\n          swap2\n          swap1\n          tag_79\n          jump\t// in\n        tag_78:\n            /* \"contracts/DirectVRF.sol\":3873:3994  require(... */\n          tag_80\n          jumpi\n          mload(0x40)\n          0x08c379a000000000000000000000000000000000000000000000000000000000\n          dup2\n          mstore\n          0x04\n          add\n          tag_81\n          swap1\n          tag_82\n          jump\t// in\n        tag_81:\n          mload(0x40)\n          dup1\n          swap2\n          sub\n          swap1\n          revert\n        tag_80:\n            /* \"contracts/DirectVRF.sol\":3796:4001  {... */\n          pop\n            /* \"contracts/DirectVRF.sol\":3755:4001  function withdrawLink() public onlyOwner {... */\n          jump\t// out\n            /* \"contracts/DirectVRF.sol\":1112:1171  mapping(uint256 => RequestStatus)... */\n        tag_34:\n          mstore(0x20, 0x02)\n          dup1\n          0x00\n          mstore\n          keccak256(0x00, 0x40)\n          0x00\n          swap2\n          pop\n          swap1\n          pop\n          dup1\n          0x00\n          add\n          sload\n          swap1\n          dup1\n          0x01\n          add\n          0x00\n          swap1\n          sload\n          swap1\n          0x0100\n          exp\n          swap1\n          div\n          0xff\n          and\n          swap1\n          pop\n          dup3\n          jump\t// out\n            /* \"contracts/DirectVRF.sol\":3295:3678  function getRequestStatus(... */\n        tag_39:\n            /* \"contracts/DirectVRF.sol\":3402:3414  uint256 paid */\n          0x00\n            /* \"contracts/DirectVRF.sol\":3416:3430  bool fulfilled */\n          dup1\n            /* \"contracts/DirectVRF.sol\":3432:3460  uint256[] memory randomWords */\n          0x60\n            /* \"contracts/DirectVRF.sol\":3514:3515  0 */\n          0x00\n            /* \"contracts/DirectVRF.sol\":3484:3494  s_requests */\n          0x02\n            /* \"contracts/DirectVRF.sol\":3484:3506  s_requests[_requestId] */\n          0x00\n            /* \"contracts/DirectVRF.sol\":3495:3505  _requestId */\n          dup7\n            /* \"contracts/DirectVRF.sol\":3484:3506  s_requests[_requestId] */\n          dup2\n          mstore\n          0x20\n          add\n          swap1\n          dup2\n          mstore\n          0x20\n          add\n          0x00\n          keccak256\n            /* \"contracts/DirectVRF.sol\":3484:3511  s_requests[_requestId].paid */\n          0x00\n          add\n          sload\n            /* \"contracts/DirectVRF.sol\":3484:3515  s_requests[_requestId].paid > 0 */\n          gt\n            /* \"contracts/DirectVRF.sol\":3476:3537  require(s_requests[_requestId].paid > 0, \"request not found\") */\n          tag_84\n          jumpi\n          mload(0x40)\n          0x08c379a000000000000000000000000000000000000000000000000000000000\n          dup2\n          mstore\n          0x04\n          add\n          tag_85\n          swap1\n          tag_86\n          jump\t// in\n        tag_85:\n          mload(0x40)\n          dup1\n          swap2\n          sub\n          swap1\n          revert\n        tag_84:\n            /* \"contracts/DirectVRF.sol\":3547:3575  RequestStatus memory request */\n          0x00\n            /* \"contracts/DirectVRF.sol\":3578:3588  s_requests */\n          0x02\n            /* \"contracts/DirectVRF.sol\":3578:3600  s_requests[_requestId] */\n          0x00\n            /* \"contracts/DirectVRF.sol\":3589:3599  _requestId */\n          dup7\n            /* \"contracts/DirectVRF.sol\":3578:3600  s_requests[_requestId] */\n          dup2\n          mstore\n          0x20\n          add\n          swap1\n          dup2\n          mstore\n          0x20\n          add\n          0x00\n          keccak256\n            /* \"contracts/DirectVRF.sol\":3547:3600  RequestStatus memory request = s_requests[_requestId] */\n          mload(0x40)\n          dup1\n          0x60\n          add\n          0x40\n          mstore\n          swap1\n          dup2\n          0x00\n          dup3\n          add\n          sload\n          dup2\n          mstore\n          0x20\n          add\n          0x01\n          dup3\n          add\n          0x00\n          swap1\n          sload\n          swap1\n          0x0100\n          exp\n          swap1\n          div\n          0xff\n          and\n          iszero\n          iszero\n          iszero\n          iszero\n          dup2\n          mstore\n          0x20\n          add\n          0x02\n          dup3\n          add\n          dup1\n          sload\n          dup1\n          0x20\n          mul\n          0x20\n          add\n          mload(0x40)\n          swap1\n          dup2\n          add\n          0x40\n          mstore\n          dup1\n          swap3\n          swap2\n          swap1\n          dup2\n          dup2\n          mstore\n          0x20\n          add\n          dup3\n          dup1\n          sload\n          dup1\n          iszero\n          tag_87\n          jumpi\n          0x20\n          mul\n          dup3\n          add\n          swap2\n          swap1\n          0x00\n          mstore\n          keccak256(0x00, 0x20)\n          swap1\n        tag_88:\n          dup2\n          sload\n          dup2\n          mstore\n          0x20\n          add\n          swap1\n          0x01\n          add\n          swap1\n          dup1\n          dup4\n          gt\n          tag_88\n          jumpi\n        tag_87:\n          pop\n          pop\n          pop\n          pop\n          pop\n          dup2\n          mstore\n          pop\n          pop\n          swap1\n          pop\n            /* \"contracts/DirectVRF.sol\":3618:3625  request */\n          dup1\n            /* \"contracts/DirectVRF.sol\":3618:3630  request.paid */\n          0x00\n          add\n          mload\n            /* \"contracts/DirectVRF.sol\":3632:3639  request */\n          dup2\n            /* \"contracts/DirectVRF.sol\":3632:3649  request.fulfilled */\n          0x20\n          add\n          mload\n            /* \"contracts/DirectVRF.sol\":3651:3658  request */\n          dup3\n            /* \"contracts/DirectVRF.sol\":3651:3670  request.randomWords */\n          0x40\n          add\n          mload\n            /* \"contracts/DirectVRF.sol\":3610:3671  return (request.paid, request.fulfilled, request.randomWords) */\n          swap4\n          pop\n          swap4\n          pop\n          swap4\n          pop\n          pop\n            /* \"contracts/DirectVRF.sol\":3295:3678  function getRequestStatus(... */\n          swap2\n          swap4\n          swap1\n          swap3\n          pop\n          jump\t// out\n            /* \"contracts/DirectVRF.sol\":2249:2846  function requestRandomWords()... */\n        tag_43:\n            /* \"contracts/DirectVRF.sol\":2331:2348  uint256 requestId */\n          0x00\n            /* \"@chainlink/contracts/src/v0.8/ConfirmedOwnerWithProposal.sol\":1956:1976  _validateOwnership() */\n          tag_90\n            /* \"@chainlink/contracts/src/v0.8/ConfirmedOwnerWithProposal.sol\":1956:1974  _validateOwnership */\n          tag_67\n            /* \"@chainlink/contracts/src/v0.8/ConfirmedOwnerWithProposal.sol\":1956:1976  _validateOwnership() */\n          jump\t// in\n        tag_90:\n            /* \"contracts/DirectVRF.sol\":2376:2489  requestRandomness(... */\n          tag_92\n            /* \"contracts/DirectVRF.sol\":2407:2423  callbackGasLimit */\n          0x05\n          0x00\n          swap1\n          sload\n          swap1\n          0x0100\n          exp\n          swap1\n          div\n          0xffffffff\n          and\n            /* \"contracts/DirectVRF.sol\":2437:2457  requestConfirmations */\n          0x05\n          0x04\n          swap1\n          sload\n          swap1\n          0x0100\n          exp\n          swap1\n          div\n          0xffff\n          and\n            /* \"contracts/DirectVRF.sol\":2471:2479  numWords */\n          0x05\n          0x06\n          swap1\n          sload\n          swap1\n          0x0100\n          exp\n          swap1\n          div\n          0xffffffff\n          and\n            /* \"contracts/DirectVRF.sol\":2376:2393  requestRandomness */\n          tag_93\n            /* \"contracts/DirectVRF.sol\":2376:2489  requestRandomness(... */\n          jump\t// in\n        tag_92:\n            /* \"contracts/DirectVRF.sol\":2364:2489  requestId = requestRandomness(... */\n          swap1\n          pop\n            /* \"contracts/DirectVRF.sol\":2523:2695  RequestStatus({... */\n          mload(0x40)\n          dup1\n          0x60\n          add\n          0x40\n          mstore\n          dup1\n            /* \"contracts/DirectVRF.sol\":2557:2571  VRF_V2_WRAPPER */\n          immutable(\"0xa75e2cf51d42f4164e4624f425e61448777a748393b6f6a5bcb1d94d1e8e5e98\")\n            /* \"contracts/DirectVRF.sol\":2557:2593  VRF_V2_WRAPPER.calculateRequestPrice */\n          0xffffffffffffffffffffffffffffffffffffffff\n          and\n          0x4306d354\n            /* \"contracts/DirectVRF.sol\":2594:2610  callbackGasLimit */\n          0x05\n          0x00\n          swap1\n          sload\n          swap1\n          0x0100\n          exp\n          swap1\n          div\n          0xffffffff\n          and\n            /* \"contracts/DirectVRF.sol\":2557:2611  VRF_V2_WRAPPER.calculateRequestPrice(callbackGasLimit) */\n          mload(0x40)\n          dup3\n          0xffffffff\n          and\n          0xe0\n          shl\n          dup2\n          mstore\n          0x04\n          add\n          tag_94\n          swap2\n          swap1\n          tag_95\n          jump\t// in\n        tag_94:\n          0x20\n          mload(0x40)\n          dup1\n          dup4\n          sub\n          dup2\n          dup7\n          gas\n          staticcall\n          iszero\n          dup1\n          iszero\n          tag_97\n          jumpi\n          returndatasize\n          0x00\n          dup1\n          returndatacopy\n          revert(0x00, returndatasize)\n        tag_97:\n          pop\n          pop\n          pop\n          pop\n          mload(0x40)\n          returndatasize\n          not(0x1f)\n          0x1f\n          dup3\n          add\n          and\n          dup3\n          add\n          dup1\n          0x40\n          mstore\n          pop\n          dup2\n          add\n          swap1\n          tag_98\n          swap2\n          swap1\n          tag_73\n          jump\t// in\n        tag_98:\n            /* \"contracts/DirectVRF.sol\":2523:2695  RequestStatus({... */\n          dup2\n          mstore\n          0x20\n          add\n            /* \"contracts/DirectVRF.sol\":2679:2684  false */\n          0x00\n            /* \"contracts/DirectVRF.sol\":2523:2695  RequestStatus({... */\n          iszero\n          iszero\n          dup2\n          mstore\n          0x20\n          add\n            /* \"contracts/DirectVRF.sol\":2652:2653  0 */\n          0x00\n            /* \"contracts/DirectVRF.sol\":2638:2654  new uint256[](0) */\n          0xffffffffffffffff\n          dup2\n          gt\n          iszero\n          tag_99\n          jumpi\n          tag_100\n          tag_101\n          jump\t// in\n        tag_100:\n        tag_99:\n          mload(0x40)\n          swap1\n          dup1\n          dup3\n          mstore\n          dup1\n          0x20\n          mul\n          0x20\n          add\n          dup3\n          add\n          0x40\n          mstore\n          dup1\n          iszero\n          tag_102\n          jumpi\n          dup2\n          0x20\n          add\n          0x20\n          dup3\n          mul\n          dup1\n          calldatasize\n          dup4\n          calldatacopy\n          dup1\n          dup3\n          add\n          swap2\n          pop\n          pop\n          swap1\n          pop\n        tag_102:\n          pop\n            /* \"contracts/DirectVRF.sol\":2523:2695  RequestStatus({... */\n          dup2\n          mstore\n          pop\n            /* \"contracts/DirectVRF.sol\":2499:2509  s_requests */\n          0x02\n            /* \"contracts/DirectVRF.sol\":2499:2520  s_requests[requestId] */\n          0x00\n            /* \"contracts/DirectVRF.sol\":2510:2519  requestId */\n          dup4\n            /* \"contracts/DirectVRF.sol\":2499:2520  s_requests[requestId] */\n          dup2\n          mstore\n          0x20\n          add\n          swap1\n          dup2\n          mstore\n          0x20\n          add\n          0x00\n          keccak256\n            /* \"contracts/DirectVRF.sol\":2499:2695  s_requests[requestId] = RequestStatus({... */\n          0x00\n          dup3\n          add\n          mload\n          dup2\n          0x00\n          add\n          sstore\n          0x20\n          dup3\n          add\n          mload\n          dup2\n          0x01\n          add\n          exp(0x0100, 0x00)\n          dup2\n          sload\n          dup2\n          0xff\n          mul\n          not\n          and\n          swap1\n          dup4\n          iszero\n          iszero\n          mul\n          or\n          swap1\n          sstore\n          pop\n          0x40\n          dup3\n          add\n          mload\n          dup2\n          0x02\n          add\n          swap1\n          dup1\n          mload\n          swap1\n          0x20\n          add\n          swap1\n          tag_103\n          swap3\n          swap2\n          swap1\n          tag_104\n          jump\t// in\n        tag_103:\n          pop\n          swap1\n          pop\n          pop\n            /* \"contracts/DirectVRF.sol\":2705:2715  requestIds */\n          0x03\n            /* \"contracts/DirectVRF.sol\":2721:2730  requestId */\n          dup2\n            /* \"contracts/DirectVRF.sol\":2705:2731  requestIds.push(requestId) */\n          swap1\n          dup1\n          0x01\n          dup2\n          sload\n          add\n          dup1\n          dup3\n          sstore\n          dup1\n          swap2\n          pop\n          pop\n          0x01\n          swap1\n          sub\n          swap1\n          0x00\n          mstore\n          keccak256(0x00, 0x20)\n          add\n          0x00\n          swap1\n          swap2\n          swap1\n          swap2\n          swap1\n          swap2\n          pop\n          sstore\n            /* \"contracts/DirectVRF.sol\":2757:2766  requestId */\n          dup1\n            /* \"contracts/DirectVRF.sol\":2741:2754  lastRequestId */\n          0x04\n            /* \"contracts/DirectVRF.sol\":2741:2766  lastRequestId = requestId */\n          dup2\n          swap1\n          sstore\n          pop\n            /* \"contracts/DirectVRF.sol\":2781:2813  RequestSent(requestId, numWords) */\n          0xcc58b13ad3eab50626c6a6300b1d139cd6ebb1688a7cced9461c2f7e762665ee\n            /* \"contracts/DirectVRF.sol\":2793:2802  requestId */\n          dup2\n            /* \"contracts/DirectVRF.sol\":2804:2812  numWords */\n          0x05\n          0x06\n          swap1\n          sload\n          swap1\n          0x0100\n          exp\n          swap1\n          div\n          0xffffffff\n          and\n            /* \"contracts/DirectVRF.sol\":2781:2813  RequestSent(requestId, numWords) */\n          mload(0x40)\n          tag_106\n          swap3\n          swap2\n          swap1\n          tag_107\n          jump\t// in\n        tag_106:\n          mload(0x40)\n          dup1\n          swap2\n          sub\n          swap1\n          log1\n            /* \"contracts/DirectVRF.sol\":2249:2846  function requestRandomWords()... */\n          swap1\n          jump\t// out\n            /* \"@chainlink/contracts/src/v0.8/ConfirmedOwnerWithProposal.sol\":826:924  function transferOwnership(address to) public override onlyOwner {... */\n        tag_48:\n            /* \"@chainlink/contracts/src/v0.8/ConfirmedOwnerWithProposal.sol\":1956:1976  _validateOwnership() */\n          tag_109\n            /* \"@chainlink/contracts/src/v0.8/ConfirmedOwnerWithProposal.sol\":1956:1974  _validateOwnership */\n          tag_67\n            /* \"@chainlink/contracts/src/v0.8/ConfirmedOwnerWithProposal.sol\":1956:1976  _validateOwnership() */\n          jump\t// in\n        tag_109:\n            /* \"@chainlink/contracts/src/v0.8/ConfirmedOwnerWithProposal.sol\":897:919  _transferOwnership(to) */\n          tag_111\n            /* \"@chainlink/contracts/src/v0.8/ConfirmedOwnerWithProposal.sol\":916:918  to */\n          dup2\n            /* \"@chainlink/contracts/src/v0.8/ConfirmedOwnerWithProposal.sol\":897:915  _transferOwnership */\n          tag_112\n            /* \"@chainlink/contracts/src/v0.8/ConfirmedOwnerWithProposal.sol\":897:919  _transferOwnership(to) */\n          jump\t// in\n        tag_111:\n            /* \"@chainlink/contracts/src/v0.8/ConfirmedOwnerWithProposal.sol\":826:924  function transferOwnership(address to) public override onlyOwner {... */\n          pop\n          jump\t// out\n            /* \"contracts/DirectVRF.sol\":1270:1298  uint256 public lastRequestId */\n        tag_50:\n          sload(0x04)\n          dup2\n          jump\t// out\n            /* \"contracts/DirectVRF.sol\":2852:3289  function fulfillRandomWords(... */\n        tag_57:\n            /* \"contracts/DirectVRF.sol\":3019:3020  0 */\n          0x00\n            /* \"contracts/DirectVRF.sol\":2989:2999  s_requests */\n          0x02\n            /* \"contracts/DirectVRF.sol\":2989:3011  s_requests[_requestId] */\n          0x00\n            /* \"contracts/DirectVRF.sol\":3000:3010  _requestId */\n          dup5\n            /* \"contracts/DirectVRF.sol\":2989:3011  s_requests[_requestId] */\n          dup2\n          mstore\n          0x20\n          add\n          swap1\n          dup2\n          mstore\n          0x20\n          add\n          0x00\n          keccak256\n            /* \"contracts/DirectVRF.sol\":2989:3016  s_requests[_requestId].paid */\n          0x00\n          add\n          sload\n            /* \"contracts/DirectVRF.sol\":2989:3020  s_requests[_requestId].paid > 0 */\n          gt\n            /* \"contracts/DirectVRF.sol\":2981:3042  require(s_requests[_requestId].paid > 0, \"request not found\") */\n          tag_114\n          jumpi\n          mload(0x40)\n          0x08c379a000000000000000000000000000000000000000000000000000000000\n          dup2\n          mstore\n          0x04\n          add\n          tag_115\n          swap1\n          tag_86\n          jump\t// in\n        tag_115:\n          mload(0x40)\n          dup1\n          swap2\n          sub\n          swap1\n          revert\n        tag_114:\n            /* \"contracts/DirectVRF.sol\":3087:3091  true */\n          0x01\n            /* \"contracts/DirectVRF.sol\":3052:3062  s_requests */\n          0x02\n            /* \"contracts/DirectVRF.sol\":3052:3074  s_requests[_requestId] */\n          0x00\n            /* \"contracts/DirectVRF.sol\":3063:3073  _requestId */\n          dup5\n            /* \"contracts/DirectVRF.sol\":3052:3074  s_requests[_requestId] */\n          dup2\n          mstore\n          0x20\n          add\n          swap1\n          dup2\n          mstore\n          0x20\n          add\n          0x00\n          keccak256\n            /* \"contracts/DirectVRF.sol\":3052:3084  s_requests[_requestId].fulfilled */\n          0x01\n          add\n          0x00\n            /* \"contracts/DirectVRF.sol\":3052:3091  s_requests[_requestId].fulfilled = true */\n          0x0100\n          exp\n          dup2\n          sload\n          dup2\n          0xff\n          mul\n          not\n          and\n          swap1\n          dup4\n          iszero\n          iszero\n          mul\n          or\n          swap1\n          sstore\n          pop\n            /* \"contracts/DirectVRF.sol\":3138:3150  _randomWords */\n          dup1\n            /* \"contracts/DirectVRF.sol\":3101:3111  s_requests */\n          0x02\n            /* \"contracts/DirectVRF.sol\":3101:3123  s_requests[_requestId] */\n          0x00\n            /* \"contracts/DirectVRF.sol\":3112:3122  _requestId */\n          dup5\n            /* \"contracts/DirectVRF.sol\":3101:3123  s_requests[_requestId] */\n          dup2\n          mstore\n          0x20\n          add\n          swap1\n          dup2\n          mstore\n          0x20\n          add\n          0x00\n          keccak256\n            /* \"contracts/DirectVRF.sol\":3101:3135  s_requests[_requestId].randomWords */\n          0x02\n          add\n            /* \"contracts/DirectVRF.sol\":3101:3150  s_requests[_requestId].randomWords = _randomWords */\n          swap1\n          dup1\n          mload\n          swap1\n          0x20\n          add\n          swap1\n          tag_116\n          swap3\n          swap2\n          swap1\n          tag_104\n          jump\t// in\n        tag_116:\n          pop\n            /* \"contracts/DirectVRF.sol\":3165:3282  RequestFulfilled(... */\n          0x147eb1ff0c82f87f2b03e2c43f5a36488ff63ec6b730195fde4605f612f8db51\n            /* \"contracts/DirectVRF.sol\":3195:3205  _requestId */\n          dup3\n            /* \"contracts/DirectVRF.sol\":3219:3231  _randomWords */\n          dup3\n            /* \"contracts/DirectVRF.sol\":3245:3255  s_requests */\n          0x02\n            /* \"contracts/DirectVRF.sol\":3245:3267  s_requests[_requestId] */\n          0x00\n            /* \"contracts/DirectVRF.sol\":3256:3266  _requestId */\n          dup7\n            /* \"contracts/DirectVRF.sol\":3245:3267  s_requests[_requestId] */\n          dup2\n          mstore\n          0x20\n          add\n          swap1\n          dup2\n          mstore\n          0x20\n          add\n          0x00\n          keccak256\n            /* \"contracts/DirectVRF.sol\":3245:3272  s_requests[_requestId].paid */\n          0x00\n          add\n          sload\n            /* \"contracts/DirectVRF.sol\":3165:3282  RequestFulfilled(... */\n          mload(0x40)\n          tag_117\n          swap4\n          swap3\n          swap2\n          swap1\n          tag_118\n          jump\t// in\n        tag_117:\n          mload(0x40)\n          dup1\n          swap2\n          sub\n          swap1\n          log1\n            /* \"contracts/DirectVRF.sol\":2852:3289  function fulfillRandomWords(... */\n          pop\n          pop\n          jump\t// out\n            /* \"@chainlink/contracts/src/v0.8/ConfirmedOwnerWithProposal.sol\":1730:1841  function _validateOwnership() internal view {... */\n        tag_67:\n            /* \"@chainlink/contracts/src/v0.8/ConfirmedOwnerWithProposal.sol\":1802:1809  s_owner */\n          0x00\n          dup1\n          sload\n          swap1\n          0x0100\n          exp\n          swap1\n          div\n          0xffffffffffffffffffffffffffffffffffffffff\n          and\n            /* \"@chainlink/contracts/src/v0.8/ConfirmedOwnerWithProposal.sol\":1788:1809  msg.sender == s_owner */\n          0xffffffffffffffffffffffffffffffffffffffff\n          and\n            /* \"@chainlink/contracts/src/v0.8/ConfirmedOwnerWithProposal.sol\":1788:1798  msg.sender */\n          caller\n            /* \"@chainlink/contracts/src/v0.8/ConfirmedOwnerWithProposal.sol\":1788:1809  msg.sender == s_owner */\n          0xffffffffffffffffffffffffffffffffffffffff\n          and\n          eq\n            /* \"@chainlink/contracts/src/v0.8/ConfirmedOwnerWithProposal.sol\":1780:1836  require(msg.sender == s_owner, \"Only callable by owner\") */\n          tag_120\n          jumpi\n          mload(0x40)\n          0x08c379a000000000000000000000000000000000000000000000000000000000\n          dup2\n          mstore\n          0x04\n          add\n          tag_121\n          swap1\n          tag_122\n          jump\t// in\n        tag_121:\n          mload(0x40)\n          dup1\n          swap2\n          sub\n          swap1\n          revert\n        tag_120:\n            /* \"@chainlink/contracts/src/v0.8/ConfirmedOwnerWithProposal.sol\":1730:1841  function _validateOwnership() internal view {... */\n          jump\t// out\n            /* \"@chainlink/contracts/src/v0.8/VRFV2WrapperConsumerBase.sol\":2645:3044  function requestRandomness(... */\n        tag_93:\n            /* \"@chainlink/contracts/src/v0.8/VRFV2WrapperConsumerBase.sol\":2780:2797  uint256 requestId */\n          0x00\n            /* \"@chainlink/contracts/src/v0.8/VRFV2WrapperConsumerBase.sol\":2805:2809  LINK */\n          immutable(\"0x266b1640ade99b2f22d24bd1f0c6c2736890e0398a5a0b97b63a35856ae65c2b\")\n            /* \"@chainlink/contracts/src/v0.8/VRFV2WrapperConsumerBase.sol\":2805:2825  LINK.transferAndCall */\n          0xffffffffffffffffffffffffffffffffffffffff\n          and\n          0x4000aea0\n            /* \"@chainlink/contracts/src/v0.8/VRFV2WrapperConsumerBase.sol\":2841:2855  VRF_V2_WRAPPER */\n          immutable(\"0xa75e2cf51d42f4164e4624f425e61448777a748393b6f6a5bcb1d94d1e8e5e98\")\n            /* \"@chainlink/contracts/src/v0.8/VRFV2WrapperConsumerBase.sol\":2864:2878  VRF_V2_WRAPPER */\n          immutable(\"0xa75e2cf51d42f4164e4624f425e61448777a748393b6f6a5bcb1d94d1e8e5e98\")\n            /* \"@chainlink/contracts/src/v0.8/VRFV2WrapperConsumerBase.sol\":2864:2900  VRF_V2_WRAPPER.calculateRequestPrice */\n          0xffffffffffffffffffffffffffffffffffffffff\n          and\n          0x4306d354\n            /* \"@chainlink/contracts/src/v0.8/VRFV2WrapperConsumerBase.sol\":2901:2918  _callbackGasLimit */\n          dup9\n            /* \"@chainlink/contracts/src/v0.8/VRFV2WrapperConsumerBase.sol\":2864:2919  VRF_V2_WRAPPER.calculateRequestPrice(_callbackGasLimit) */\n          mload(0x40)\n          dup3\n          0xffffffff\n          and\n          0xe0\n          shl\n          dup2\n          mstore\n          0x04\n          add\n          tag_124\n          swap2\n          swap1\n          tag_95\n          jump\t// in\n        tag_124:\n          0x20\n          mload(0x40)\n          dup1\n          dup4\n          sub\n          dup2\n          dup7\n          gas\n          staticcall\n          iszero\n          dup1\n          iszero\n          tag_126\n          jumpi\n          returndatasize\n          0x00\n          dup1\n          returndatacopy\n          revert(0x00, returndatasize)\n        tag_126:\n          pop\n          pop\n          pop\n          pop\n          mload(0x40)\n          returndatasize\n          not(0x1f)\n          0x1f\n          dup3\n          add\n          and\n          dup3\n          add\n          dup1\n          0x40\n          mstore\n          pop\n          dup2\n          add\n          swap1\n          tag_127\n          swap2\n          swap1\n          tag_73\n          jump\t// in\n        tag_127:\n            /* \"@chainlink/contracts/src/v0.8/VRFV2WrapperConsumerBase.sol\":2938:2955  _callbackGasLimit */\n          dup8\n            /* \"@chainlink/contracts/src/v0.8/VRFV2WrapperConsumerBase.sol\":2957:2978  _requestConfirmations */\n          dup8\n            /* \"@chainlink/contracts/src/v0.8/VRFV2WrapperConsumerBase.sol\":2980:2989  _numWords */\n          dup8\n            /* \"@chainlink/contracts/src/v0.8/VRFV2WrapperConsumerBase.sol\":2927:2990  abi.encode(_callbackGasLimit, _requestConfirmations, _numWords) */\n          add(0x20, mload(0x40))\n          tag_128\n          swap4\n          swap3\n          swap2\n          swap1\n          tag_129\n          jump\t// in\n        tag_128:\n          mload(0x40)\n          0x20\n          dup2\n          dup4\n          sub\n          sub\n          dup2\n          mstore\n          swap1\n          0x40\n          mstore\n            /* \"@chainlink/contracts/src/v0.8/VRFV2WrapperConsumerBase.sol\":2805:2996  LINK.transferAndCall(... */\n          mload(0x40)\n          dup5\n          0xffffffff\n          and\n          0xe0\n          shl\n          dup2\n          mstore\n          0x04\n          add\n          tag_130\n          swap4\n          swap3\n          swap2\n          swap1\n          tag_131\n          jump\t// in\n        tag_130:\n          0x20\n          mload(0x40)\n          dup1\n          dup4\n          sub\n          dup2\n          0x00\n          dup8\n          gas\n          call\n          iszero\n          dup1\n          iszero\n          tag_133\n          jumpi\n          returndatasize\n          0x00\n          dup1\n          returndatacopy\n          revert(0x00, returndatasize)\n        tag_133:\n          pop\n          pop\n          pop\n          pop\n          mload(0x40)\n          returndatasize\n          not(0x1f)\n          0x1f\n          dup3\n          add\n          and\n          dup3\n          add\n          dup1\n          0x40\n          mstore\n          pop\n          dup2\n          add\n          swap1\n          tag_134\n          swap2\n          swap1\n          tag_79\n          jump\t// in\n        tag_134:\n          pop\n            /* \"@chainlink/contracts/src/v0.8/VRFV2WrapperConsumerBase.sol\":3009:3023  VRF_V2_WRAPPER */\n          immutable(\"0xa75e2cf51d42f4164e4624f425e61448777a748393b6f6a5bcb1d94d1e8e5e98\")\n            /* \"@chainlink/contracts/src/v0.8/VRFV2WrapperConsumerBase.sol\":3009:3037  VRF_V2_WRAPPER.lastRequestId */\n          0xffffffffffffffffffffffffffffffffffffffff\n          and\n          0xfc2a88c3\n            /* \"@chainlink/contracts/src/v0.8/VRFV2WrapperConsumerBase.sol\":3009:3039  VRF_V2_WRAPPER.lastRequestId() */\n          mload(0x40)\n          dup2\n          0xffffffff\n          and\n          0xe0\n          shl\n          dup2\n          mstore\n          0x04\n          add\n          0x20\n          mload(0x40)\n          dup1\n          dup4\n          sub\n          dup2\n          dup7\n          gas\n          staticcall\n          iszero\n          dup1\n          iszero\n          tag_136\n          jumpi\n          returndatasize\n          0x00\n          dup1\n          returndatacopy\n          revert(0x00, returndatasize)\n        tag_136:\n          pop\n          pop\n          pop\n          pop\n          mload(0x40)\n          returndatasize\n          not(0x1f)\n          0x1f\n          dup3\n          add\n          and\n          dup3\n          add\n          dup1\n          0x40\n          mstore\n          pop\n          dup2\n          add\n          swap1\n          tag_137\n          swap2\n          swap1\n          tag_73\n          jump\t// in\n        tag_137:\n            /* \"@chainlink/contracts/src/v0.8/VRFV2WrapperConsumerBase.sol\":3002:3039  return VRF_V2_WRAPPER.lastRequestId() */\n          swap1\n          pop\n            /* \"@chainlink/contracts/src/v0.8/VRFV2WrapperConsumerBase.sol\":2645:3044  function requestRandomness(... */\n          swap4\n          swap3\n          pop\n          pop\n          pop\n          jump\t// out\n            /* \"@chainlink/contracts/src/v0.8/ConfirmedOwnerWithProposal.sol\":1497:1685  function _transferOwnership(address to) private {... */\n        tag_112:\n            /* \"@chainlink/contracts/src/v0.8/ConfirmedOwnerWithProposal.sol\":1565:1575  msg.sender */\n          caller\n            /* \"@chainlink/contracts/src/v0.8/ConfirmedOwnerWithProposal.sol\":1559:1575  to != msg.sender */\n          0xffffffffffffffffffffffffffffffffffffffff\n          and\n            /* \"@chainlink/contracts/src/v0.8/ConfirmedOwnerWithProposal.sol\":1559:1561  to */\n          dup2\n            /* \"@chainlink/contracts/src/v0.8/ConfirmedOwnerWithProposal.sol\":1559:1575  to != msg.sender */\n          0xffffffffffffffffffffffffffffffffffffffff\n          and\n          sub\n            /* \"@chainlink/contracts/src/v0.8/ConfirmedOwnerWithProposal.sol\":1551:1603  require(to != msg.sender, \"Cannot transfer to self\") */\n          tag_139\n          jumpi\n          mload(0x40)\n          0x08c379a000000000000000000000000000000000000000000000000000000000\n          dup2\n          mstore\n          0x04\n          add\n          tag_140\n          swap1\n          tag_141\n          jump\t// in\n        tag_140:\n          mload(0x40)\n          dup1\n          swap2\n          sub\n          swap1\n          revert\n        tag_139:\n            /* \"@chainlink/contracts/src/v0.8/ConfirmedOwnerWithProposal.sol\":1627:1629  to */\n          dup1\n            /* \"@chainlink/contracts/src/v0.8/ConfirmedOwnerWithProposal.sol\":1610:1624  s_pendingOwner */\n          0x01\n          0x00\n            /* \"@chainlink/contracts/src/v0.8/ConfirmedOwnerWithProposal.sol\":1610:1629  s_pendingOwner = to */\n          0x0100\n          exp\n          dup2\n          sload\n          dup2\n          0xffffffffffffffffffffffffffffffffffffffff\n          mul\n          not\n          and\n          swap1\n          dup4\n          0xffffffffffffffffffffffffffffffffffffffff\n          and\n          mul\n          or\n          swap1\n          sstore\n          pop\n            /* \"@chainlink/contracts/src/v0.8/ConfirmedOwnerWithProposal.sol\":1677:1679  to */\n          dup1\n            /* \"@chainlink/contracts/src/v0.8/ConfirmedOwnerWithProposal.sol\":1641:1680  OwnershipTransferRequested(s_owner, to) */\n          0xffffffffffffffffffffffffffffffffffffffff\n          and\n            /* \"@chainlink/contracts/src/v0.8/ConfirmedOwnerWithProposal.sol\":1668:1675  s_owner */\n          0x00\n          dup1\n          sload\n          swap1\n          0x0100\n          exp\n          swap1\n          div\n          0xffffffffffffffffffffffffffffffffffffffff\n          and\n            /* \"@chainlink/contracts/src/v0.8/ConfirmedOwnerWithProposal.sol\":1641:1680  OwnershipTransferRequested(s_owner, to) */\n          0xffffffffffffffffffffffffffffffffffffffff\n          and\n          0xed8889f560326eb138920d842192f0eb3dd22b4f139c87a2c57538e05bae1278\n          mload(0x40)\n          mload(0x40)\n          dup1\n          swap2\n          sub\n          swap1\n          log3\n            /* \"@chainlink/contracts/src/v0.8/ConfirmedOwnerWithProposal.sol\":1497:1685  function _transferOwnership(address to) private {... */\n          pop\n          jump\t// out\n        tag_104:\n          dup3\n          dup1\n          sload\n          dup3\n          dup3\n          sstore\n          swap1\n          0x00\n          mstore\n          keccak256(0x00, 0x20)\n          swap1\n          dup2\n          add\n          swap3\n          dup3\n          iszero\n          tag_142\n          jumpi\n          swap2\n          0x20\n          mul\n          dup3\n          add\n        tag_143:\n          dup3\n          dup2\n          gt\n          iszero\n          tag_144\n          jumpi\n          dup3\n          mload\n          dup3\n          sstore\n          swap2\n          0x20\n          add\n          swap2\n          swap1\n          0x01\n          add\n          swap1\n          jump(tag_143)\n        tag_144:\n        tag_142:\n          pop\n          swap1\n          pop\n          tag_145\n          swap2\n          swap1\n          tag_146\n          jump\t// in\n        tag_145:\n          pop\n          swap1\n          jump\t// out\n        tag_146:\n        tag_147:\n          dup1\n          dup3\n          gt\n          iszero\n          tag_148\n          jumpi\n          0x00\n          dup2\n          0x00\n          swap1\n          sstore\n          pop\n          0x01\n          add\n          jump(tag_147)\n        tag_148:\n          pop\n          swap1\n          jump\t// out\n            /* \"#utility.yul\":7:82   */\n        tag_149:\n            /* \"#utility.yul\":40:46   */\n          0x00\n            /* \"#utility.yul\":73:75   */\n          0x40\n            /* \"#utility.yul\":67:76   */\n          mload\n            /* \"#utility.yul\":57:76   */\n          swap1\n          pop\n            /* \"#utility.yul\":7:82   */\n          swap1\n          jump\t// out\n            /* \"#utility.yul\":88:205   */\n        tag_150:\n            /* \"#utility.yul\":197:198   */\n          0x00\n            /* \"#utility.yul\":194:195   */\n          dup1\n            /* \"#utility.yul\":187:199   */\n          revert\n            /* \"#utility.yul\":211:328   */\n        tag_151:\n            /* \"#utility.yul\":320:321   */\n          0x00\n            /* \"#utility.yul\":317:318   */\n          dup1\n            /* \"#utility.yul\":310:322   */\n          revert\n            /* \"#utility.yul\":334:411   */\n        tag_152:\n            /* \"#utility.yul\":371:378   */\n          0x00\n            /* \"#utility.yul\":400:405   */\n          dup2\n            /* \"#utility.yul\":389:405   */\n          swap1\n          pop\n            /* \"#utility.yul\":334:411   */\n          swap2\n          swap1\n          pop\n          jump\t// out\n            /* \"#utility.yul\":417:539   */\n        tag_153:\n            /* \"#utility.yul\":490:514   */\n          tag_208\n            /* \"#utility.yul\":508:513   */\n          dup2\n            /* \"#utility.yul\":490:514   */\n          tag_152\n          jump\t// in\n        tag_208:\n            /* \"#utility.yul\":483:488   */\n          dup2\n            /* \"#utility.yul\":480:515   */\n          eq\n            /* \"#utility.yul\":470:533   */\n          tag_209\n          jumpi\n            /* \"#utility.yul\":529:530   */\n          0x00\n            /* \"#utility.yul\":526:527   */\n          dup1\n            /* \"#utility.yul\":519:531   */\n          revert\n            /* \"#utility.yul\":470:533   */\n        tag_209:\n            /* \"#utility.yul\":417:539   */\n          pop\n          jump\t// out\n            /* \"#utility.yul\":545:684   */\n        tag_154:\n            /* \"#utility.yul\":591:596   */\n          0x00\n            /* \"#utility.yul\":629:635   */\n          dup2\n            /* \"#utility.yul\":616:636   */\n          calldataload\n            /* \"#utility.yul\":607:636   */\n          swap1\n          pop\n            /* \"#utility.yul\":645:678   */\n          tag_211\n            /* \"#utility.yul\":672:677   */\n          dup2\n            /* \"#utility.yul\":645:678   */\n          tag_153\n          jump\t// in\n        tag_211:\n            /* \"#utility.yul\":545:684   */\n          swap3\n          swap2\n          pop\n          pop\n          jump\t// out\n            /* \"#utility.yul\":690:807   */\n        tag_155:\n            /* \"#utility.yul\":799:800   */\n          0x00\n            /* \"#utility.yul\":796:797   */\n          dup1\n            /* \"#utility.yul\":789:801   */\n          revert\n            /* \"#utility.yul\":813:915   */\n        tag_156:\n            /* \"#utility.yul\":854:860   */\n          0x00\n            /* \"#utility.yul\":905:907   */\n          0x1f\n            /* \"#utility.yul\":901:908   */\n          not\n            /* \"#utility.yul\":896:898   */\n          0x1f\n            /* \"#utility.yul\":889:894   */\n          dup4\n            /* \"#utility.yul\":885:899   */\n          add\n            /* \"#utility.yul\":881:909   */\n          and\n            /* \"#utility.yul\":871:909   */\n          swap1\n          pop\n            /* \"#utility.yul\":813:915   */\n          swap2\n          swap1\n          pop\n          jump\t// out\n            /* \"#utility.yul\":921:1101   */\n        tag_101:\n            /* \"#utility.yul\":969:1046   */\n          0x4e487b7100000000000000000000000000000000000000000000000000000000\n            /* \"#utility.yul\":966:967   */\n          0x00\n            /* \"#utility.yul\":959:1047   */\n          mstore\n            /* \"#utility.yul\":1066:1070   */\n          0x41\n            /* \"#utility.yul\":1063:1064   */\n          0x04\n            /* \"#utility.yul\":1056:1071   */\n          mstore\n            /* \"#utility.yul\":1090:1094   */\n          0x24\n            /* \"#utility.yul\":1087:1088   */\n          0x00\n            /* \"#utility.yul\":1080:1095   */\n          revert\n            /* \"#utility.yul\":1107:1388   */\n        tag_157:\n            /* \"#utility.yul\":1190:1217   */\n          tag_216\n            /* \"#utility.yul\":1212:1216   */\n          dup3\n            /* \"#utility.yul\":1190:1217   */\n          tag_156\n          jump\t// in\n        tag_216:\n            /* \"#utility.yul\":1182:1188   */\n          dup2\n            /* \"#utility.yul\":1178:1218   */\n          add\n            /* \"#utility.yul\":1320:1326   */\n          dup2\n            /* \"#utility.yul\":1308:1318   */\n          dup2\n            /* \"#utility.yul\":1305:1327   */\n          lt\n            /* \"#utility.yul\":1284:1302   */\n          0xffffffffffffffff\n            /* \"#utility.yul\":1272:1282   */\n          dup3\n            /* \"#utility.yul\":1269:1303   */\n          gt\n            /* \"#utility.yul\":1266:1328   */\n          or\n            /* \"#utility.yul\":1263:1351   */\n          iszero\n          tag_217\n          jumpi\n            /* \"#utility.yul\":1331:1349   */\n          tag_218\n          tag_101\n          jump\t// in\n        tag_218:\n            /* \"#utility.yul\":1263:1351   */\n        tag_217:\n            /* \"#utility.yul\":1371:1381   */\n          dup1\n            /* \"#utility.yul\":1367:1369   */\n          0x40\n            /* \"#utility.yul\":1360:1382   */\n          mstore\n            /* \"#utility.yul\":1150:1388   */\n          pop\n            /* \"#utility.yul\":1107:1388   */\n          pop\n          pop\n          jump\t// out\n            /* \"#utility.yul\":1394:1523   */\n        tag_158:\n            /* \"#utility.yul\":1428:1434   */\n          0x00\n            /* \"#utility.yul\":1455:1475   */\n          tag_220\n          tag_149\n          jump\t// in\n        tag_220:\n            /* \"#utility.yul\":1445:1475   */\n          swap1\n          pop\n            /* \"#utility.yul\":1484:1517   */\n          tag_221\n            /* \"#utility.yul\":1512:1516   */\n          dup3\n            /* \"#utility.yul\":1504:1510   */\n          dup3\n            /* \"#utility.yul\":1484:1517   */\n          tag_157\n          jump\t// in\n        tag_221:\n            /* \"#utility.yul\":1394:1523   */\n          swap2\n          swap1\n          pop\n          jump\t// out\n            /* \"#utility.yul\":1529:1840   */\n        tag_159:\n            /* \"#utility.yul\":1606:1610   */\n          0x00\n            /* \"#utility.yul\":1696:1714   */\n          0xffffffffffffffff\n            /* \"#utility.yul\":1688:1694   */\n          dup3\n            /* \"#utility.yul\":1685:1715   */\n          gt\n            /* \"#utility.yul\":1682:1738   */\n          iszero\n          tag_223\n          jumpi\n            /* \"#utility.yul\":1718:1736   */\n          tag_224\n          tag_101\n          jump\t// in\n        tag_224:\n            /* \"#utility.yul\":1682:1738   */\n        tag_223:\n            /* \"#utility.yul\":1768:1772   */\n          0x20\n            /* \"#utility.yul\":1760:1766   */\n          dup3\n            /* \"#utility.yul\":1756:1773   */\n          mul\n            /* \"#utility.yul\":1748:1773   */\n          swap1\n          pop\n            /* \"#utility.yul\":1828:1832   */\n          0x20\n            /* \"#utility.yul\":1822:1826   */\n          dup2\n            /* \"#utility.yul\":1818:1833   */\n          add\n            /* \"#utility.yul\":1810:1833   */\n          swap1\n          pop\n            /* \"#utility.yul\":1529:1840   */\n          swap2\n          swap1\n          pop\n          jump\t// out\n            /* \"#utility.yul\":1846:1963   */\n        tag_160:\n            /* \"#utility.yul\":1955:1956   */\n          0x00\n            /* \"#utility.yul\":1952:1953   */\n          dup1\n            /* \"#utility.yul\":1945:1957   */\n          revert\n            /* \"#utility.yul\":1986:2696   */\n        tag_161:\n            /* \"#utility.yul\":2082:2087   */\n          0x00\n            /* \"#utility.yul\":2107:2188   */\n          tag_227\n            /* \"#utility.yul\":2123:2187   */\n          tag_228\n            /* \"#utility.yul\":2180:2186   */\n          dup5\n            /* \"#utility.yul\":2123:2187   */\n          tag_159\n          jump\t// in\n        tag_228:\n            /* \"#utility.yul\":2107:2188   */\n          tag_158\n          jump\t// in\n        tag_227:\n            /* \"#utility.yul\":2098:2188   */\n          swap1\n          pop\n            /* \"#utility.yul\":2208:2213   */\n          dup1\n            /* \"#utility.yul\":2237:2243   */\n          dup4\n            /* \"#utility.yul\":2230:2235   */\n          dup3\n            /* \"#utility.yul\":2223:2244   */\n          mstore\n            /* \"#utility.yul\":2271:2275   */\n          0x20\n            /* \"#utility.yul\":2264:2269   */\n          dup3\n            /* \"#utility.yul\":2260:2276   */\n          add\n            /* \"#utility.yul\":2253:2276   */\n          swap1\n          pop\n            /* \"#utility.yul\":2324:2328   */\n          0x20\n            /* \"#utility.yul\":2316:2322   */\n          dup5\n            /* \"#utility.yul\":2312:2329   */\n          mul\n            /* \"#utility.yul\":2304:2310   */\n          dup4\n            /* \"#utility.yul\":2300:2330   */\n          add\n            /* \"#utility.yul\":2353:2356   */\n          dup6\n            /* \"#utility.yul\":2345:2351   */\n          dup2\n            /* \"#utility.yul\":2342:2357   */\n          gt\n            /* \"#utility.yul\":2339:2461   */\n          iszero\n          tag_229\n          jumpi\n            /* \"#utility.yul\":2372:2451   */\n          tag_230\n          tag_160\n          jump\t// in\n        tag_230:\n            /* \"#utility.yul\":2339:2461   */\n        tag_229:\n            /* \"#utility.yul\":2487:2493   */\n          dup4\n            /* \"#utility.yul\":2470:2690   */\n        tag_231:\n            /* \"#utility.yul\":2504:2510   */\n          dup2\n            /* \"#utility.yul\":2499:2502   */\n          dup2\n            /* \"#utility.yul\":2496:2511   */\n          lt\n            /* \"#utility.yul\":2470:2690   */\n          iszero\n          tag_233\n          jumpi\n            /* \"#utility.yul\":2579:2582   */\n          dup1\n            /* \"#utility.yul\":2608:2645   */\n          tag_234\n            /* \"#utility.yul\":2641:2644   */\n          dup9\n            /* \"#utility.yul\":2629:2639   */\n          dup3\n            /* \"#utility.yul\":2608:2645   */\n          tag_154\n          jump\t// in\n        tag_234:\n            /* \"#utility.yul\":2603:2606   */\n          dup5\n            /* \"#utility.yul\":2596:2646   */\n          mstore\n            /* \"#utility.yul\":2675:2679   */\n          0x20\n            /* \"#utility.yul\":2670:2673   */\n          dup5\n            /* \"#utility.yul\":2666:2680   */\n          add\n            /* \"#utility.yul\":2659:2680   */\n          swap4\n          pop\n            /* \"#utility.yul\":2546:2690   */\n          pop\n            /* \"#utility.yul\":2530:2534   */\n          0x20\n            /* \"#utility.yul\":2525:2528   */\n          dup2\n            /* \"#utility.yul\":2521:2535   */\n          add\n            /* \"#utility.yul\":2514:2535   */\n          swap1\n          pop\n            /* \"#utility.yul\":2470:2690   */\n          jump(tag_231)\n        tag_233:\n            /* \"#utility.yul\":2474:2495   */\n          pop\n            /* \"#utility.yul\":2088:2696   */\n          pop\n          pop\n            /* \"#utility.yul\":1986:2696   */\n          swap4\n          swap3\n          pop\n          pop\n          pop\n          jump\t// out\n            /* \"#utility.yul\":2719:3089   */\n        tag_162:\n            /* \"#utility.yul\":2790:2795   */\n          0x00\n            /* \"#utility.yul\":2839:2842   */\n          dup3\n            /* \"#utility.yul\":2832:2836   */\n          0x1f\n            /* \"#utility.yul\":2824:2830   */\n          dup4\n            /* \"#utility.yul\":2820:2837   */\n          add\n            /* \"#utility.yul\":2816:2843   */\n          slt\n            /* \"#utility.yul\":2806:2928   */\n          tag_236\n          jumpi\n            /* \"#utility.yul\":2847:2926   */\n          tag_237\n          tag_155\n          jump\t// in\n        tag_237:\n            /* \"#utility.yul\":2806:2928   */\n        tag_236:\n            /* \"#utility.yul\":2964:2970   */\n          dup2\n            /* \"#utility.yul\":2951:2971   */\n          calldataload\n            /* \"#utility.yul\":2989:3083   */\n          tag_238\n            /* \"#utility.yul\":3079:3082   */\n          dup5\n            /* \"#utility.yul\":3071:3077   */\n          dup3\n            /* \"#utility.yul\":3064:3068   */\n          0x20\n            /* \"#utility.yul\":3056:3062   */\n          dup7\n            /* \"#utility.yul\":3052:3069   */\n          add\n            /* \"#utility.yul\":2989:3083   */\n          tag_161\n          jump\t// in\n        tag_238:\n            /* \"#utility.yul\":2980:3083   */\n          swap2\n          pop\n            /* \"#utility.yul\":2796:3089   */\n          pop\n            /* \"#utility.yul\":2719:3089   */\n          swap3\n          swap2\n          pop\n          pop\n          jump\t// out\n            /* \"#utility.yul\":3095:3779   */\n        tag_16:\n            /* \"#utility.yul\":3188:3194   */\n          0x00\n            /* \"#utility.yul\":3196:3202   */\n          dup1\n            /* \"#utility.yul\":3245:3247   */\n          0x40\n            /* \"#utility.yul\":3233:3242   */\n          dup4\n            /* \"#utility.yul\":3224:3231   */\n          dup6\n            /* \"#utility.yul\":3220:3243   */\n          sub\n            /* \"#utility.yul\":3216:3248   */\n          slt\n            /* \"#utility.yul\":3213:3332   */\n          iszero\n          tag_240\n          jumpi\n            /* \"#utility.yul\":3251:3330   */\n          tag_241\n          tag_150\n          jump\t// in\n        tag_241:\n            /* \"#utility.yul\":3213:3332   */\n        tag_240:\n            /* \"#utility.yul\":3371:3372   */\n          0x00\n            /* \"#utility.yul\":3396:3449   */\n          tag_242\n            /* \"#utility.yul\":3441:3448   */\n          dup6\n            /* \"#utility.yul\":3432:3438   */\n          dup3\n            /* \"#utility.yul\":3421:3430   */\n          dup7\n            /* \"#utility.yul\":3417:3439   */\n          add\n            /* \"#utility.yul\":3396:3449   */\n          tag_154\n          jump\t// in\n        tag_242:\n            /* \"#utility.yul\":3386:3449   */\n          swap3\n          pop\n            /* \"#utility.yul\":3342:3459   */\n          pop\n            /* \"#utility.yul\":3526:3528   */\n          0x20\n            /* \"#utility.yul\":3515:3524   */\n          dup4\n            /* \"#utility.yul\":3511:3529   */\n          add\n            /* \"#utility.yul\":3498:3530   */\n          calldataload\n            /* \"#utility.yul\":3557:3575   */\n          0xffffffffffffffff\n            /* \"#utility.yul\":3549:3555   */\n          dup2\n            /* \"#utility.yul\":3546:3576   */\n          gt\n            /* \"#utility.yul\":3543:3660   */\n          iszero\n          tag_243\n          jumpi\n            /* \"#utility.yul\":3579:3658   */\n          tag_244\n          tag_151\n          jump\t// in\n        tag_244:\n            /* \"#utility.yul\":3543:3660   */\n        tag_243:\n            /* \"#utility.yul\":3684:3762   */\n          tag_245\n            /* \"#utility.yul\":3754:3761   */\n          dup6\n            /* \"#utility.yul\":3745:3751   */\n          dup3\n            /* \"#utility.yul\":3734:3743   */\n          dup7\n            /* \"#utility.yul\":3730:3752   */\n          add\n            /* \"#utility.yul\":3684:3762   */\n          tag_162\n          jump\t// in\n        tag_245:\n            /* \"#utility.yul\":3674:3762   */\n          swap2\n          pop\n            /* \"#utility.yul\":3469:3772   */\n          pop\n            /* \"#utility.yul\":3095:3779   */\n          swap3\n          pop\n          swap3\n          swap1\n          pop\n          jump\t// out\n            /* \"#utility.yul\":3785:4114   */\n        tag_22:\n            /* \"#utility.yul\":3844:3850   */\n          0x00\n            /* \"#utility.yul\":3893:3895   */\n          0x20\n            /* \"#utility.yul\":3881:3890   */\n          dup3\n            /* \"#utility.yul\":3872:3879   */\n          dup5\n            /* \"#utility.yul\":3868:3891   */\n          sub\n            /* \"#utility.yul\":3864:3896   */\n          slt\n            /* \"#utility.yul\":3861:3980   */\n          iszero\n          tag_247\n          jumpi\n            /* \"#utility.yul\":3899:3978   */\n          tag_248\n          tag_150\n          jump\t// in\n        tag_248:\n            /* \"#utility.yul\":3861:3980   */\n        tag_247:\n            /* \"#utility.yul\":4019:4020   */\n          0x00\n            /* \"#utility.yul\":4044:4097   */\n          tag_249\n            /* \"#utility.yul\":4089:4096   */\n          dup5\n            /* \"#utility.yul\":4080:4086   */\n          dup3\n            /* \"#utility.yul\":4069:4078   */\n          dup6\n            /* \"#utility.yul\":4065:4087   */\n          add\n            /* \"#utility.yul\":4044:4097   */\n          tag_154\n          jump\t// in\n        tag_249:\n            /* \"#utility.yul\":4034:4097   */\n          swap2\n          pop\n            /* \"#utility.yul\":3990:4107   */\n          pop\n            /* \"#utility.yul\":3785:4114   */\n          swap3\n          swap2\n          pop\n          pop\n          jump\t// out\n            /* \"#utility.yul\":4120:4238   */\n        tag_163:\n            /* \"#utility.yul\":4207:4231   */\n          tag_251\n            /* \"#utility.yul\":4225:4230   */\n          dup2\n            /* \"#utility.yul\":4207:4231   */\n          tag_152\n          jump\t// in\n        tag_251:\n            /* \"#utility.yul\":4202:4205   */\n          dup3\n            /* \"#utility.yul\":4195:4232   */\n          mstore\n            /* \"#utility.yul\":4120:4238   */\n          pop\n          pop\n          jump\t// out\n            /* \"#utility.yul\":4244:4466   */\n        tag_25:\n            /* \"#utility.yul\":4337:4341   */\n          0x00\n            /* \"#utility.yul\":4375:4377   */\n          0x20\n            /* \"#utility.yul\":4364:4373   */\n          dup3\n            /* \"#utility.yul\":4360:4378   */\n          add\n            /* \"#utility.yul\":4352:4378   */\n          swap1\n          pop\n            /* \"#utility.yul\":4388:4459   */\n          tag_253\n            /* \"#utility.yul\":4456:4457   */\n          0x00\n            /* \"#utility.yul\":4445:4454   */\n          dup4\n            /* \"#utility.yul\":4441:4458   */\n          add\n            /* \"#utility.yul\":4432:4438   */\n          dup5\n            /* \"#utility.yul\":4388:4459   */\n          tag_163\n          jump\t// in\n        tag_253:\n            /* \"#utility.yul\":4244:4466   */\n          swap3\n          swap2\n          pop\n          pop\n          jump\t// out\n            /* \"#utility.yul\":4472:4598   */\n        tag_164:\n            /* \"#utility.yul\":4509:4516   */\n          0x00\n            /* \"#utility.yul\":4549:4591   */\n          0xffffffffffffffffffffffffffffffffffffffff\n            /* \"#utility.yul\":4542:4547   */\n          dup3\n            /* \"#utility.yul\":4538:4592   */\n          and\n            /* \"#utility.yul\":4527:4592   */\n          swap1\n          pop\n            /* \"#utility.yul\":4472:4598   */\n          swap2\n          swap1\n          pop\n          jump\t// out\n            /* \"#utility.yul\":4604:4700   */\n        tag_165:\n            /* \"#utility.yul\":4641:4648   */\n          0x00\n            /* \"#utility.yul\":4670:4694   */\n          tag_256\n            /* \"#utility.yul\":4688:4693   */\n          dup3\n            /* \"#utility.yul\":4670:4694   */\n          tag_164\n          jump\t// in\n        tag_256:\n            /* \"#utility.yul\":4659:4694   */\n          swap1\n          pop\n            /* \"#utility.yul\":4604:4700   */\n          swap2\n          swap1\n          pop\n          jump\t// out\n            /* \"#utility.yul\":4706:4824   */\n        tag_166:\n            /* \"#utility.yul\":4793:4817   */\n          tag_258\n            /* \"#utility.yul\":4811:4816   */\n          dup2\n            /* \"#utility.yul\":4793:4817   */\n          tag_165\n          jump\t// in\n        tag_258:\n            /* \"#utility.yul\":4788:4791   */\n          dup3\n            /* \"#utility.yul\":4781:4818   */\n          mstore\n            /* \"#utility.yul\":4706:4824   */\n          pop\n          pop\n          jump\t// out\n            /* \"#utility.yul\":4830:5052   */\n        tag_29:\n            /* \"#utility.yul\":4923:4927   */\n          0x00\n            /* \"#utility.yul\":4961:4963   */\n          0x20\n            /* \"#utility.yul\":4950:4959   */\n          dup3\n            /* \"#utility.yul\":4946:4964   */\n          add\n            /* \"#utility.yul\":4938:4964   */\n          swap1\n          pop\n            /* \"#utility.yul\":4974:5045   */\n          tag_260\n            /* \"#utility.yul\":5042:5043   */\n          0x00\n            /* \"#utility.yul\":5031:5040   */\n          dup4\n            /* \"#utility.yul\":5027:5044   */\n          add\n            /* \"#utility.yul\":5018:5024   */\n          dup5\n            /* \"#utility.yul\":4974:5045   */\n          tag_166\n          jump\t// in\n        tag_260:\n            /* \"#utility.yul\":4830:5052   */\n          swap3\n          swap2\n          pop\n          pop\n          jump\t// out\n            /* \"#utility.yul\":5058:5148   */\n        tag_167:\n            /* \"#utility.yul\":5092:5099   */\n          0x00\n            /* \"#utility.yul\":5135:5140   */\n          dup2\n            /* \"#utility.yul\":5128:5141   */\n          iszero\n            /* \"#utility.yul\":5121:5142   */\n          iszero\n            /* \"#utility.yul\":5110:5142   */\n          swap1\n          pop\n            /* \"#utility.yul\":5058:5148   */\n          swap2\n          swap1\n          pop\n          jump\t// out\n            /* \"#utility.yul\":5154:5263   */\n        tag_168:\n            /* \"#utility.yul\":5235:5256   */\n          tag_263\n            /* \"#utility.yul\":5250:5255   */\n          dup2\n            /* \"#utility.yul\":5235:5256   */\n          tag_167\n          jump\t// in\n        tag_263:\n            /* \"#utility.yul\":5230:5233   */\n          dup3\n            /* \"#utility.yul\":5223:5257   */\n          mstore\n            /* \"#utility.yul\":5154:5263   */\n          pop\n          pop\n          jump\t// out\n            /* \"#utility.yul\":5269:5589   */\n        tag_36:\n            /* \"#utility.yul\":5384:5388   */\n          0x00\n            /* \"#utility.yul\":5422:5424   */\n          0x40\n            /* \"#utility.yul\":5411:5420   */\n          dup3\n            /* \"#utility.yul\":5407:5425   */\n          add\n            /* \"#utility.yul\":5399:5425   */\n          swap1\n          pop\n            /* \"#utility.yul\":5435:5506   */\n          tag_265\n            /* \"#utility.yul\":5503:5504   */\n          0x00\n            /* \"#utility.yul\":5492:5501   */\n          dup4\n            /* \"#utility.yul\":5488:5505   */\n          add\n            /* \"#utility.yul\":5479:5485   */\n          dup6\n            /* \"#utility.yul\":5435:5506   */\n          tag_163\n          jump\t// in\n        tag_265:\n            /* \"#utility.yul\":5516:5582   */\n          tag_266\n            /* \"#utility.yul\":5578:5580   */\n          0x20\n            /* \"#utility.yul\":5567:5576   */\n          dup4\n            /* \"#utility.yul\":5563:5581   */\n          add\n            /* \"#utility.yul\":5554:5560   */\n          dup5\n            /* \"#utility.yul\":5516:5582   */\n          tag_168\n          jump\t// in\n        tag_266:\n            /* \"#utility.yul\":5269:5589   */\n          swap4\n          swap3\n          pop\n          pop\n          pop\n          jump\t// out\n            /* \"#utility.yul\":5595:5709   */\n        tag_169:\n            /* \"#utility.yul\":5662:5668   */\n          0x00\n            /* \"#utility.yul\":5696:5701   */\n          dup2\n            /* \"#utility.yul\":5690:5702   */\n          mload\n            /* \"#utility.yul\":5680:5702   */\n          swap1\n          pop\n            /* \"#utility.yul\":5595:5709   */\n          swap2\n          swap1\n          pop\n          jump\t// out\n            /* \"#utility.yul\":5715:5899   */\n        tag_170:\n            /* \"#utility.yul\":5814:5825   */\n          0x00\n            /* \"#utility.yul\":5848:5854   */\n          dup3\n            /* \"#utility.yul\":5843:5846   */\n          dup3\n            /* \"#utility.yul\":5836:5855   */\n          mstore\n            /* \"#utility.yul\":5888:5892   */\n          0x20\n            /* \"#utility.yul\":5883:5886   */\n          dup3\n            /* \"#utility.yul\":5879:5893   */\n          add\n            /* \"#utility.yul\":5864:5893   */\n          swap1\n          pop\n            /* \"#utility.yul\":5715:5899   */\n          swap3\n          swap2\n          pop\n          pop\n          jump\t// out\n            /* \"#utility.yul\":5905:6037   */\n        tag_171:\n            /* \"#utility.yul\":5972:5976   */\n          0x00\n            /* \"#utility.yul\":5995:5998   */\n          dup2\n            /* \"#utility.yul\":5987:5998   */\n          swap1\n          pop\n            /* \"#utility.yul\":6025:6029   */\n          0x20\n            /* \"#utility.yul\":6020:6023   */\n          dup3\n            /* \"#utility.yul\":6016:6030   */\n          add\n            /* \"#utility.yul\":6008:6030   */\n          swap1\n          pop\n            /* \"#utility.yul\":5905:6037   */\n          swap2\n          swap1\n          pop\n          jump\t// out\n            /* \"#utility.yul\":6043:6151   */\n        tag_172:\n            /* \"#utility.yul\":6120:6144   */\n          tag_271\n            /* \"#utility.yul\":6138:6143   */\n          dup2\n            /* \"#utility.yul\":6120:6144   */\n          tag_152\n          jump\t// in\n        tag_271:\n            /* \"#utility.yul\":6115:6118   */\n          dup3\n            /* \"#utility.yul\":6108:6145   */\n          mstore\n            /* \"#utility.yul\":6043:6151   */\n          pop\n          pop\n          jump\t// out\n            /* \"#utility.yul\":6157:6336   */\n        tag_173:\n            /* \"#utility.yul\":6226:6236   */\n          0x00\n            /* \"#utility.yul\":6247:6293   */\n          tag_273\n            /* \"#utility.yul\":6289:6292   */\n          dup4\n            /* \"#utility.yul\":6281:6287   */\n          dup4\n            /* \"#utility.yul\":6247:6293   */\n          tag_172\n          jump\t// in\n        tag_273:\n            /* \"#utility.yul\":6325:6329   */\n          0x20\n            /* \"#utility.yul\":6320:6323   */\n          dup4\n            /* \"#utility.yul\":6316:6330   */\n          add\n            /* \"#utility.yul\":6302:6330   */\n          swap1\n          pop\n            /* \"#utility.yul\":6157:6336   */\n          swap3\n          swap2\n          pop\n          pop\n          jump\t// out\n            /* \"#utility.yul\":6342:6455   */\n        tag_174:\n            /* \"#utility.yul\":6412:6416   */\n          0x00\n            /* \"#utility.yul\":6444:6448   */\n          0x20\n            /* \"#utility.yul\":6439:6442   */\n          dup3\n            /* \"#utility.yul\":6435:6449   */\n          add\n            /* \"#utility.yul\":6427:6449   */\n          swap1\n          pop\n            /* \"#utility.yul\":6342:6455   */\n          swap2\n          swap1\n          pop\n          jump\t// out\n            /* \"#utility.yul\":6491:7223   */\n        tag_175:\n            /* \"#utility.yul\":6610:6613   */\n          0x00\n            /* \"#utility.yul\":6639:6693   */\n          tag_276\n            /* \"#utility.yul\":6687:6692   */\n          dup3\n            /* \"#utility.yul\":6639:6693   */\n          tag_169\n          jump\t// in\n        tag_276:\n            /* \"#utility.yul\":6709:6795   */\n          tag_277\n            /* \"#utility.yul\":6788:6794   */\n          dup2\n            /* \"#utility.yul\":6783:6786   */\n          dup6\n            /* \"#utility.yul\":6709:6795   */\n          tag_170\n          jump\t// in\n        tag_277:\n            /* \"#utility.yul\":6702:6795   */\n          swap4\n          pop\n            /* \"#utility.yul\":6819:6875   */\n          tag_278\n            /* \"#utility.yul\":6869:6874   */\n          dup4\n            /* \"#utility.yul\":6819:6875   */\n          tag_171\n          jump\t// in\n        tag_278:\n            /* \"#utility.yul\":6898:6905   */\n          dup1\n            /* \"#utility.yul\":6929:6930   */\n          0x00\n            /* \"#utility.yul\":6914:7198   */\n        tag_279:\n            /* \"#utility.yul\":6939:6945   */\n          dup4\n            /* \"#utility.yul\":6936:6937   */\n          dup2\n            /* \"#utility.yul\":6933:6946   */\n          lt\n            /* \"#utility.yul\":6914:7198   */\n          iszero\n          tag_281\n          jumpi\n            /* \"#utility.yul\":7015:7021   */\n          dup2\n            /* \"#utility.yul\":7009:7022   */\n          mload\n            /* \"#utility.yul\":7042:7105   */\n          tag_282\n            /* \"#utility.yul\":7101:7104   */\n          dup9\n            /* \"#utility.yul\":7086:7099   */\n          dup3\n            /* \"#utility.yul\":7042:7105   */\n          tag_173\n          jump\t// in\n        tag_282:\n            /* \"#utility.yul\":7035:7105   */\n          swap8\n          pop\n            /* \"#utility.yul\":7128:7188   */\n          tag_283\n            /* \"#utility.yul\":7181:7187   */\n          dup4\n            /* \"#utility.yul\":7128:7188   */\n          tag_174\n          jump\t// in\n        tag_283:\n            /* \"#utility.yul\":7118:7188   */\n          swap3\n          pop\n            /* \"#utility.yul\":6974:7198   */\n          pop\n            /* \"#utility.yul\":6961:6962   */\n          0x01\n            /* \"#utility.yul\":6958:6959   */\n          dup2\n            /* \"#utility.yul\":6954:6963   */\n          add\n            /* \"#utility.yul\":6949:6963   */\n          swap1\n          pop\n            /* \"#utility.yul\":6914:7198   */\n          jump(tag_279)\n        tag_281:\n            /* \"#utility.yul\":6918:6932   */\n          pop\n            /* \"#utility.yul\":7214:7217   */\n          dup6\n            /* \"#utility.yul\":7207:7217   */\n          swap4\n          pop\n            /* \"#utility.yul\":6615:7223   */\n          pop\n          pop\n          pop\n            /* \"#utility.yul\":6491:7223   */\n          swap3\n          swap2\n          pop\n          pop\n          jump\t// out\n            /* \"#utility.yul\":7229:7810   */\n        tag_41:\n            /* \"#utility.yul\":7422:7426   */\n          0x00\n            /* \"#utility.yul\":7460:7462   */\n          0x60\n            /* \"#utility.yul\":7449:7458   */\n          dup3\n            /* \"#utility.yul\":7445:7463   */\n          add\n            /* \"#utility.yul\":7437:7463   */\n          swap1\n          pop\n            /* \"#utility.yul\":7473:7544   */\n          tag_285\n            /* \"#utility.yul\":7541:7542   */\n          0x00\n            /* \"#utility.yul\":7530:7539   */\n          dup4\n            /* \"#utility.yul\":7526:7543   */\n          add\n            /* \"#utility.yul\":7517:7523   */\n          dup7\n            /* \"#utility.yul\":7473:7544   */\n          tag_163\n          jump\t// in\n        tag_285:\n            /* \"#utility.yul\":7554:7620   */\n          tag_286\n            /* \"#utility.yul\":7616:7618   */\n          0x20\n            /* \"#utility.yul\":7605:7614   */\n          dup4\n            /* \"#utility.yul\":7601:7619   */\n          add\n            /* \"#utility.yul\":7592:7598   */\n          dup6\n            /* \"#utility.yul\":7554:7620   */\n          tag_168\n          jump\t// in\n        tag_286:\n            /* \"#utility.yul\":7667:7676   */\n          dup2\n            /* \"#utility.yul\":7661:7665   */\n          dup2\n            /* \"#utility.yul\":7657:7677   */\n          sub\n            /* \"#utility.yul\":7652:7654   */\n          0x40\n            /* \"#utility.yul\":7641:7650   */\n          dup4\n            /* \"#utility.yul\":7637:7655   */\n          add\n            /* \"#utility.yul\":7630:7678   */\n          mstore\n            /* \"#utility.yul\":7695:7803   */\n          tag_287\n            /* \"#utility.yul\":7798:7802   */\n          dup2\n            /* \"#utility.yul\":7789:7795   */\n          dup5\n            /* \"#utility.yul\":7695:7803   */\n          tag_175\n          jump\t// in\n        tag_287:\n            /* \"#utility.yul\":7687:7803   */\n          swap1\n          pop\n            /* \"#utility.yul\":7229:7810   */\n          swap5\n          swap4\n          pop\n          pop\n          pop\n          pop\n          jump\t// out\n            /* \"#utility.yul\":7816:7938   */\n        tag_176:\n            /* \"#utility.yul\":7889:7913   */\n          tag_289\n            /* \"#utility.yul\":7907:7912   */\n          dup2\n            /* \"#utility.yul\":7889:7913   */\n          tag_165\n          jump\t// in\n        tag_289:\n            /* \"#utility.yul\":7882:7887   */\n          dup2\n            /* \"#utility.yul\":7879:7914   */\n          eq\n            /* \"#utility.yul\":7869:7932   */\n          tag_290\n          jumpi\n            /* \"#utility.yul\":7928:7929   */\n          0x00\n            /* \"#utility.yul\":7925:7926   */\n          dup1\n            /* \"#utility.yul\":7918:7930   */\n          revert\n            /* \"#utility.yul\":7869:7932   */\n        tag_290:\n            /* \"#utility.yul\":7816:7938   */\n          pop\n          jump\t// out\n            /* \"#utility.yul\":7944:8083   */\n        tag_177:\n            /* \"#utility.yul\":7990:7995   */\n          0x00\n            /* \"#utility.yul\":8028:8034   */\n          dup2\n            /* \"#utility.yul\":8015:8035   */\n          calldataload\n            /* \"#utility.yul\":8006:8035   */\n          swap1\n          pop\n            /* \"#utility.yul\":8044:8077   */\n          tag_292\n            /* \"#utility.yul\":8071:8076   */\n          dup2\n            /* \"#utility.yul\":8044:8077   */\n          tag_176\n          jump\t// in\n        tag_292:\n            /* \"#utility.yul\":7944:8083   */\n          swap3\n          swap2\n          pop\n          pop\n          jump\t// out\n            /* \"#utility.yul\":8089:8418   */\n        tag_47:\n            /* \"#utility.yul\":8148:8154   */\n          0x00\n            /* \"#utility.yul\":8197:8199   */\n          0x20\n            /* \"#utility.yul\":8185:8194   */\n          dup3\n            /* \"#utility.yul\":8176:8183   */\n          dup5\n            /* \"#utility.yul\":8172:8195   */\n          sub\n            /* \"#utility.yul\":8168:8200   */\n          slt\n            /* \"#utility.yul\":8165:8284   */\n          iszero\n          tag_294\n          jumpi\n            /* \"#utility.yul\":8203:8282   */\n          tag_295\n          tag_150\n          jump\t// in\n        tag_295:\n            /* \"#utility.yul\":8165:8284   */\n        tag_294:\n            /* \"#utility.yul\":8323:8324   */\n          0x00\n            /* \"#utility.yul\":8348:8401   */\n          tag_296\n            /* \"#utility.yul\":8393:8400   */\n          dup5\n            /* \"#utility.yul\":8384:8390   */\n          dup3\n            /* \"#utility.yul\":8373:8382   */\n          dup6\n            /* \"#utility.yul\":8369:8391   */\n          add\n            /* \"#utility.yul\":8348:8401   */\n          tag_177\n          jump\t// in\n        tag_296:\n            /* \"#utility.yul\":8338:8401   */\n          swap2\n          pop\n            /* \"#utility.yul\":8294:8411   */\n          pop\n            /* \"#utility.yul\":8089:8418   */\n          swap3\n          swap2\n          pop\n          pop\n          jump\t// out\n            /* \"#utility.yul\":8424:8593   */\n        tag_178:\n            /* \"#utility.yul\":8508:8519   */\n          0x00\n            /* \"#utility.yul\":8542:8548   */\n          dup3\n            /* \"#utility.yul\":8537:8540   */\n          dup3\n            /* \"#utility.yul\":8530:8549   */\n          mstore\n            /* \"#utility.yul\":8582:8586   */\n          0x20\n            /* \"#utility.yul\":8577:8580   */\n          dup3\n            /* \"#utility.yul\":8573:8587   */\n          add\n            /* \"#utility.yul\":8558:8587   */\n          swap1\n          pop\n            /* \"#utility.yul\":8424:8593   */\n          swap3\n          swap2\n          pop\n          pop\n          jump\t// out\n            /* \"#utility.yul\":8599:8780   */\n        tag_179:\n            /* \"#utility.yul\":8739:8772   */\n          0x6f6e6c792056524620563220777261707065722063616e2066756c66696c6c00\n            /* \"#utility.yul\":8735:8736   */\n          0x00\n            /* \"#utility.yul\":8727:8733   */\n          dup3\n            /* \"#utility.yul\":8723:8737   */\n          add\n            /* \"#utility.yul\":8716:8773   */\n          mstore\n            /* \"#utility.yul\":8599:8780   */\n          pop\n          jump\t// out\n            /* \"#utility.yul\":8786:9152   */\n        tag_180:\n            /* \"#utility.yul\":8928:8931   */\n          0x00\n            /* \"#utility.yul\":8949:9016   */\n          tag_300\n            /* \"#utility.yul\":9013:9015   */\n          0x1f\n            /* \"#utility.yul\":9008:9011   */\n          dup4\n            /* \"#utility.yul\":8949:9016   */\n          tag_178\n          jump\t// in\n        tag_300:\n            /* \"#utility.yul\":8942:9016   */\n          swap2\n          pop\n            /* \"#utility.yul\":9025:9118   */\n          tag_301\n            /* \"#utility.yul\":9114:9117   */\n          dup3\n            /* \"#utility.yul\":9025:9118   */\n          tag_179\n          jump\t// in\n        tag_301:\n            /* \"#utility.yul\":9143:9145   */\n          0x20\n            /* \"#utility.yul\":9138:9141   */\n          dup3\n            /* \"#utility.yul\":9134:9146   */\n          add\n            /* \"#utility.yul\":9127:9146   */\n          swap1\n          pop\n            /* \"#utility.yul\":8786:9152   */\n          swap2\n          swap1\n          pop\n          jump\t// out\n            /* \"#utility.yul\":9158:9577   */\n        tag_55:\n            /* \"#utility.yul\":9324:9328   */\n          0x00\n            /* \"#utility.yul\":9362:9364   */\n          0x20\n            /* \"#utility.yul\":9351:9360   */\n          dup3\n            /* \"#utility.yul\":9347:9365   */\n          add\n            /* \"#utility.yul\":9339:9365   */\n          swap1\n          pop\n            /* \"#utility.yul\":9411:9420   */\n          dup2\n            /* \"#utility.yul\":9405:9409   */\n          dup2\n            /* \"#utility.yul\":9401:9421   */\n          sub\n            /* \"#utility.yul\":9397:9398   */\n          0x00\n            /* \"#utility.yul\":9386:9395   */\n          dup4\n            /* \"#utility.yul\":9382:9399   */\n          add\n            /* \"#utility.yul\":9375:9422   */\n          mstore\n            /* \"#utility.yul\":9439:9570   */\n          tag_303\n            /* \"#utility.yul\":9565:9569   */\n          dup2\n            /* \"#utility.yul\":9439:9570   */\n          tag_180\n          jump\t// in\n        tag_303:\n            /* \"#utility.yul\":9431:9570   */\n          swap1\n          pop\n            /* \"#utility.yul\":9158:9577   */\n          swap2\n          swap1\n          pop\n          jump\t// out\n            /* \"#utility.yul\":9583:9755   */\n        tag_181:\n            /* \"#utility.yul\":9723:9747   */\n          0x4d7573742062652070726f706f736564206f776e657200000000000000000000\n            /* \"#utility.yul\":9719:9720   */\n          0x00\n            /* \"#utility.yul\":9711:9717   */\n          dup3\n            /* \"#utility.yul\":9707:9721   */\n          add\n            /* \"#utility.yul\":9700:9748   */\n          mstore\n            /* \"#utility.yul\":9583:9755   */\n          pop\n          jump\t// out\n            /* \"#utility.yul\":9761:10127   */\n        tag_182:\n            /* \"#utility.yul\":9903:9906   */\n          0x00\n            /* \"#utility.yul\":9924:9991   */\n          tag_306\n            /* \"#utility.yul\":9988:9990   */\n          0x16\n            /* \"#utility.yul\":9983:9986   */\n          dup4\n            /* \"#utility.yul\":9924:9991   */\n          tag_178\n          jump\t// in\n        tag_306:\n            /* \"#utility.yul\":9917:9991   */\n          swap2\n          pop\n            /* \"#utility.yul\":10000:10093   */\n          tag_307\n            /* \"#utility.yul\":10089:10092   */\n          dup3\n            /* \"#utility.yul\":10000:10093   */\n          tag_181\n          jump\t// in\n        tag_307:\n            /* \"#utility.yul\":10118:10120   */\n          0x20\n            /* \"#utility.yul\":10113:10116   */\n          dup3\n            /* \"#utility.yul\":10109:10121   */\n          add\n            /* \"#utility.yul\":10102:10121   */\n          swap1\n          pop\n            /* \"#utility.yul\":9761:10127   */\n          swap2\n          swap1\n          pop\n          jump\t// out\n            /* \"#utility.yul\":10133:10552   */\n        tag_61:\n            /* \"#utility.yul\":10299:10303   */\n          0x00\n            /* \"#utility.yul\":10337:10339   */\n          0x20\n            /* \"#utility.yul\":10326:10335   */\n          dup3\n            /* \"#utility.yul\":10322:10340   */\n          add\n            /* \"#utility.yul\":10314:10340   */\n          swap1\n          pop\n            /* \"#utility.yul\":10386:10395   */\n          dup2\n            /* \"#utility.yul\":10380:10384   */\n          dup2\n            /* \"#utility.yul\":10376:10396   */\n          sub\n            /* \"#utility.yul\":10372:10373   */\n          0x00\n            /* \"#utility.yul\":10361:10370   */\n          dup4\n            /* \"#utility.yul\":10357:10374   */\n          add\n            /* \"#utility.yul\":10350:10397   */\n          mstore\n            /* \"#utility.yul\":10414:10545   */\n          tag_309\n            /* \"#utility.yul\":10540:10544   */\n          dup2\n            /* \"#utility.yul\":10414:10545   */\n          tag_182\n          jump\t// in\n        tag_309:\n            /* \"#utility.yul\":10406:10545   */\n          swap1\n          pop\n            /* \"#utility.yul\":10133:10552   */\n          swap2\n          swap1\n          pop\n          jump\t// out\n            /* \"#utility.yul\":10558:10701   */\n        tag_183:\n            /* \"#utility.yul\":10615:10620   */\n          0x00\n            /* \"#utility.yul\":10646:10652   */\n          dup2\n            /* \"#utility.yul\":10640:10653   */\n          mload\n            /* \"#utility.yul\":10631:10653   */\n          swap1\n          pop\n            /* \"#utility.yul\":10662:10695   */\n          tag_311\n            /* \"#utility.yul\":10689:10694   */\n          dup2\n            /* \"#utility.yul\":10662:10695   */\n          tag_153\n          jump\t// in\n        tag_311:\n            /* \"#utility.yul\":10558:10701   */\n          swap3\n          swap2\n          pop\n          pop\n          jump\t// out\n            /* \"#utility.yul\":10707:11058   */\n        tag_73:\n            /* \"#utility.yul\":10777:10783   */\n          0x00\n            /* \"#utility.yul\":10826:10828   */\n          0x20\n            /* \"#utility.yul\":10814:10823   */\n          dup3\n            /* \"#utility.yul\":10805:10812   */\n          dup5\n            /* \"#utility.yul\":10801:10824   */\n          sub\n            /* \"#utility.yul\":10797:10829   */\n          slt\n            /* \"#utility.yul\":10794:10913   */\n          iszero\n          tag_313\n          jumpi\n            /* \"#utility.yul\":10832:10911   */\n          tag_314\n          tag_150\n          jump\t// in\n        tag_314:\n            /* \"#utility.yul\":10794:10913   */\n        tag_313:\n            /* \"#utility.yul\":10952:10953   */\n          0x00\n            /* \"#utility.yul\":10977:11041   */\n          tag_315\n            /* \"#utility.yul\":11033:11040   */\n          dup5\n            /* \"#utility.yul\":11024:11030   */\n          dup3\n            /* \"#utility.yul\":11013:11022   */\n          dup6\n            /* \"#utility.yul\":11009:11031   */\n          add\n            /* \"#utility.yul\":10977:11041   */\n          tag_183\n          jump\t// in\n        tag_315:\n            /* \"#utility.yul\":10967:11041   */\n          swap2\n          pop\n            /* \"#utility.yul\":10923:11051   */\n          pop\n            /* \"#utility.yul\":10707:11058   */\n          swap3\n          swap2\n          pop\n          pop\n          jump\t// out\n            /* \"#utility.yul\":11064:11396   */\n        tag_75:\n            /* \"#utility.yul\":11185:11189   */\n          0x00\n            /* \"#utility.yul\":11223:11225   */\n          0x40\n            /* \"#utility.yul\":11212:11221   */\n          dup3\n            /* \"#utility.yul\":11208:11226   */\n          add\n            /* \"#utility.yul\":11200:11226   */\n          swap1\n          pop\n            /* \"#utility.yul\":11236:11307   */\n          tag_317\n            /* \"#utility.yul\":11304:11305   */\n          0x00\n            /* \"#utility.yul\":11293:11302   */\n          dup4\n            /* \"#utility.yul\":11289:11306   */\n          add\n            /* \"#utility.yul\":11280:11286   */\n          dup6\n            /* \"#utility.yul\":11236:11307   */\n          tag_166\n          jump\t// in\n        tag_317:\n            /* \"#utility.yul\":11317:11389   */\n          tag_318\n            /* \"#utility.yul\":11385:11387   */\n          0x20\n            /* \"#utility.yul\":11374:11383   */\n          dup4\n            /* \"#utility.yul\":11370:11388   */\n          add\n            /* \"#utility.yul\":11361:11367   */\n          dup5\n            /* \"#utility.yul\":11317:11389   */\n          tag_163\n          jump\t// in\n        tag_318:\n            /* \"#utility.yul\":11064:11396   */\n          swap4\n          swap3\n          pop\n          pop\n          pop\n          jump\t// out\n            /* \"#utility.yul\":11402:11518   */\n        tag_184:\n            /* \"#utility.yul\":11472:11493   */\n          tag_320\n            /* \"#utility.yul\":11487:11492   */\n          dup2\n            /* \"#utility.yul\":11472:11493   */\n          tag_167\n          jump\t// in\n        tag_320:\n            /* \"#utility.yul\":11465:11470   */\n          dup2\n            /* \"#utility.yul\":11462:11494   */\n          eq\n            /* \"#utility.yul\":11452:11512   */\n          tag_321\n          jumpi\n            /* \"#utility.yul\":11508:11509   */\n          0x00\n            /* \"#utility.yul\":11505:11506   */\n          dup1\n            /* \"#utility.yul\":11498:11510   */\n          revert\n            /* \"#utility.yul\":11452:11512   */\n        tag_321:\n            /* \"#utility.yul\":11402:11518   */\n          pop\n          jump\t// out\n            /* \"#utility.yul\":11524:11661   */\n        tag_185:\n            /* \"#utility.yul\":11578:11583   */\n          0x00\n            /* \"#utility.yul\":11609:11615   */\n          dup2\n            /* \"#utility.yul\":11603:11616   */\n          mload\n            /* \"#utility.yul\":11594:11616   */\n          swap1\n          pop\n            /* \"#utility.yul\":11625:11655   */\n          tag_323\n            /* \"#utility.yul\":11649:11654   */\n          dup2\n            /* \"#utility.yul\":11625:11655   */\n          tag_184\n          jump\t// in\n        tag_323:\n            /* \"#utility.yul\":11524:11661   */\n          swap3\n          swap2\n          pop\n          pop\n          jump\t// out\n            /* \"#utility.yul\":11667:12012   */\n        tag_79:\n            /* \"#utility.yul\":11734:11740   */\n          0x00\n            /* \"#utility.yul\":11783:11785   */\n          0x20\n            /* \"#utility.yul\":11771:11780   */\n          dup3\n            /* \"#utility.yul\":11762:11769   */\n          dup5\n            /* \"#utility.yul\":11758:11781   */\n          sub\n            /* \"#utility.yul\":11754:11786   */\n          slt\n            /* \"#utility.yul\":11751:11870   */\n          iszero\n          tag_325\n          jumpi\n            /* \"#utility.yul\":11789:11868   */\n          tag_326\n          tag_150\n          jump\t// in\n        tag_326:\n            /* \"#utility.yul\":11751:11870   */\n        tag_325:\n            /* \"#utility.yul\":11909:11910   */\n          0x00\n            /* \"#utility.yul\":11934:11995   */\n          tag_327\n            /* \"#utility.yul\":11987:11994   */\n          dup5\n            /* \"#utility.yul\":11978:11984   */\n          dup3\n            /* \"#utility.yul\":11967:11976   */\n          dup6\n            /* \"#utility.yul\":11963:11985   */\n          add\n            /* \"#utility.yul\":11934:11995   */\n          tag_185\n          jump\t// in\n        tag_327:\n            /* \"#utility.yul\":11924:11995   */\n          swap2\n          pop\n            /* \"#utility.yul\":11880:12005   */\n          pop\n            /* \"#utility.yul\":11667:12012   */\n          swap3\n          swap2\n          pop\n          pop\n          jump\t// out\n            /* \"#utility.yul\":12018:12186   */\n        tag_186:\n            /* \"#utility.yul\":12158:12178   */\n          0x556e61626c6520746f207472616e736665720000000000000000000000000000\n            /* \"#utility.yul\":12154:12155   */\n          0x00\n            /* \"#utility.yul\":12146:12152   */\n          dup3\n            /* \"#utility.yul\":12142:12156   */\n          add\n            /* \"#utility.yul\":12135:12179   */\n          mstore\n            /* \"#utility.yul\":12018:12186   */\n          pop\n          jump\t// out\n            /* \"#utility.yul\":12192:12558   */\n        tag_187:\n            /* \"#utility.yul\":12334:12337   */\n          0x00\n            /* \"#utility.yul\":12355:12422   */\n          tag_330\n            /* \"#utility.yul\":12419:12421   */\n          0x12\n            /* \"#utility.yul\":12414:12417   */\n          dup4\n            /* \"#utility.yul\":12355:12422   */\n          tag_178\n          jump\t// in\n        tag_330:\n            /* \"#utility.yul\":12348:12422   */\n          swap2\n          pop\n            /* \"#utility.yul\":12431:12524   */\n          tag_331\n            /* \"#utility.yul\":12520:12523   */\n          dup3\n            /* \"#utility.yul\":12431:12524   */\n          tag_186\n          jump\t// in\n        tag_331:\n            /* \"#utility.yul\":12549:12551   */\n          0x20\n            /* \"#utility.yul\":12544:12547   */\n          dup3\n            /* \"#utility.yul\":12540:12552   */\n          add\n            /* \"#utility.yul\":12533:12552   */\n          swap1\n          pop\n            /* \"#utility.yul\":12192:12558   */\n          swap2\n          swap1\n          pop\n          jump\t// out\n            /* \"#utility.yul\":12564:12983   */\n        tag_82:\n            /* \"#utility.yul\":12730:12734   */\n          0x00\n            /* \"#utility.yul\":12768:12770   */\n          0x20\n            /* \"#utility.yul\":12757:12766   */\n          dup3\n            /* \"#utility.yul\":12753:12771   */\n          add\n            /* \"#utility.yul\":12745:12771   */\n          swap1\n          pop\n            /* \"#utility.yul\":12817:12826   */\n          dup2\n            /* \"#utility.yul\":12811:12815   */\n          dup2\n            /* \"#utility.yul\":12807:12827   */\n          sub\n            /* \"#utility.yul\":12803:12804   */\n          0x00\n            /* \"#utility.yul\":12792:12801   */\n          dup4\n            /* \"#utility.yul\":12788:12805   */\n          add\n            /* \"#utility.yul\":12781:12828   */\n          mstore\n            /* \"#utility.yul\":12845:12976   */\n          tag_333\n            /* \"#utility.yul\":12971:12975   */\n          dup2\n            /* \"#utility.yul\":12845:12976   */\n          tag_187\n          jump\t// in\n        tag_333:\n            /* \"#utility.yul\":12837:12976   */\n          swap1\n          pop\n            /* \"#utility.yul\":12564:12983   */\n          swap2\n          swap1\n          pop\n          jump\t// out\n            /* \"#utility.yul\":12989:13156   */\n        tag_188:\n            /* \"#utility.yul\":13129:13148   */\n          0x72657175657374206e6f7420666f756e64000000000000000000000000000000\n            /* \"#utility.yul\":13125:13126   */\n          0x00\n            /* \"#utility.yul\":13117:13123   */\n          dup3\n            /* \"#utility.yul\":13113:13127   */\n          add\n            /* \"#utility.yul\":13106:13149   */\n          mstore\n            /* \"#utility.yul\":12989:13156   */\n          pop\n          jump\t// out\n            /* \"#utility.yul\":13162:13528   */\n        tag_189:\n            /* \"#utility.yul\":13304:13307   */\n          0x00\n            /* \"#utility.yul\":13325:13392   */\n          tag_336\n            /* \"#utility.yul\":13389:13391   */\n          0x11\n            /* \"#utility.yul\":13384:13387   */\n          dup4\n            /* \"#utility.yul\":13325:13392   */\n          tag_178\n          jump\t// in\n        tag_336:\n            /* \"#utility.yul\":13318:13392   */\n          swap2\n          pop\n            /* \"#utility.yul\":13401:13494   */\n          tag_337\n            /* \"#utility.yul\":13490:13493   */\n          dup3\n            /* \"#utility.yul\":13401:13494   */\n          tag_188\n          jump\t// in\n        tag_337:\n            /* \"#utility.yul\":13519:13521   */\n          0x20\n            /* \"#utility.yul\":13514:13517   */\n          dup3\n            /* \"#utility.yul\":13510:13522   */\n          add\n            /* \"#utility.yul\":13503:13522   */\n          swap1\n          pop\n            /* \"#utility.yul\":13162:13528   */\n          swap2\n          swap1\n          pop\n          jump\t// out\n            /* \"#utility.yul\":13534:13953   */\n        tag_86:\n            /* \"#utility.yul\":13700:13704   */\n          0x00\n            /* \"#utility.yul\":13738:13740   */\n          0x20\n            /* \"#utility.yul\":13727:13736   */\n          dup3\n            /* \"#utility.yul\":13723:13741   */\n          add\n            /* \"#utility.yul\":13715:13741   */\n          swap1\n          pop\n            /* \"#utility.yul\":13787:13796   */\n          dup2\n            /* \"#utility.yul\":13781:13785   */\n          dup2\n            /* \"#utility.yul\":13777:13797   */\n          sub\n            /* \"#utility.yul\":13773:13774   */\n          0x00\n            /* \"#utility.yul\":13762:13771   */\n          dup4\n            /* \"#utility.yul\":13758:13775   */\n          add\n            /* \"#utility.yul\":13751:13798   */\n          mstore\n            /* \"#utility.yul\":13815:13946   */\n          tag_339\n            /* \"#utility.yul\":13941:13945   */\n          dup2\n            /* \"#utility.yul\":13815:13946   */\n          tag_189\n          jump\t// in\n        tag_339:\n            /* \"#utility.yul\":13807:13946   */\n          swap1\n          pop\n            /* \"#utility.yul\":13534:13953   */\n          swap2\n          swap1\n          pop\n          jump\t// out\n            /* \"#utility.yul\":13959:14052   */\n        tag_190:\n            /* \"#utility.yul\":13995:14002   */\n          0x00\n            /* \"#utility.yul\":14035:14045   */\n          0xffffffff\n            /* \"#utility.yul\":14028:14033   */\n          dup3\n            /* \"#utility.yul\":14024:14046   */\n          and\n            /* \"#utility.yul\":14013:14046   */\n          swap1\n          pop\n            /* \"#utility.yul\":13959:14052   */\n          swap2\n          swap1\n          pop\n          jump\t// out\n            /* \"#utility.yul\":14058:14173   */\n        tag_191:\n            /* \"#utility.yul\":14143:14166   */\n          tag_342\n            /* \"#utility.yul\":14160:14165   */\n          dup2\n            /* \"#utility.yul\":14143:14166   */\n          tag_190\n          jump\t// in\n        tag_342:\n            /* \"#utility.yul\":14138:14141   */\n          dup3\n            /* \"#utility.yul\":14131:14167   */\n          mstore\n            /* \"#utility.yul\":14058:14173   */\n          pop\n          pop\n          jump\t// out\n            /* \"#utility.yul\":14179:14397   */\n        tag_95:\n            /* \"#utility.yul\":14270:14274   */\n          0x00\n            /* \"#utility.yul\":14308:14310   */\n          0x20\n            /* \"#utility.yul\":14297:14306   */\n          dup3\n            /* \"#utility.yul\":14293:14311   */\n          add\n            /* \"#utility.yul\":14285:14311   */\n          swap1\n          pop\n            /* \"#utility.yul\":14321:14390   */\n          tag_344\n            /* \"#utility.yul\":14387:14388   */\n          0x00\n            /* \"#utility.yul\":14376:14385   */\n          dup4\n            /* \"#utility.yul\":14372:14389   */\n          add\n            /* \"#utility.yul\":14363:14369   */\n          dup5\n            /* \"#utility.yul\":14321:14390   */\n          tag_191\n          jump\t// in\n        tag_344:\n            /* \"#utility.yul\":14179:14397   */\n          swap3\n          swap2\n          pop\n          pop\n          jump\t// out\n            /* \"#utility.yul\":14403:14731   */\n        tag_107:\n            /* \"#utility.yul\":14522:14526   */\n          0x00\n            /* \"#utility.yul\":14560:14562   */\n          0x40\n            /* \"#utility.yul\":14549:14558   */\n          dup3\n            /* \"#utility.yul\":14545:14563   */\n          add\n            /* \"#utility.yul\":14537:14563   */\n          swap1\n          pop\n            /* \"#utility.yul\":14573:14644   */\n          tag_346\n            /* \"#utility.yul\":14641:14642   */\n          0x00\n            /* \"#utility.yul\":14630:14639   */\n          dup4\n            /* \"#utility.yul\":14626:14643   */\n          add\n            /* \"#utility.yul\":14617:14623   */\n          dup6\n            /* \"#utility.yul\":14573:14644   */\n          tag_163\n          jump\t// in\n        tag_346:\n            /* \"#utility.yul\":14654:14724   */\n          tag_347\n            /* \"#utility.yul\":14720:14722   */\n          0x20\n            /* \"#utility.yul\":14709:14718   */\n          dup4\n            /* \"#utility.yul\":14705:14723   */\n          add\n            /* \"#utility.yul\":14696:14702   */\n          dup5\n            /* \"#utility.yul\":14654:14724   */\n          tag_191\n          jump\t// in\n        tag_347:\n            /* \"#utility.yul\":14403:14731   */\n          swap4\n          swap3\n          pop\n          pop\n          pop\n          jump\t// out\n            /* \"#utility.yul\":14737:15330   */\n        tag_118:\n            /* \"#utility.yul\":14936:14940   */\n          0x00\n            /* \"#utility.yul\":14974:14976   */\n          0x60\n            /* \"#utility.yul\":14963:14972   */\n          dup3\n            /* \"#utility.yul\":14959:14977   */\n          add\n            /* \"#utility.yul\":14951:14977   */\n          swap1\n          pop\n            /* \"#utility.yul\":14987:15058   */\n          tag_349\n            /* \"#utility.yul\":15055:15056   */\n          0x00\n            /* \"#utility.yul\":15044:15053   */\n          dup4\n            /* \"#utility.yul\":15040:15057   */\n          add\n            /* \"#utility.yul\":15031:15037   */\n          dup7\n            /* \"#utility.yul\":14987:15058   */\n          tag_163\n          jump\t// in\n        tag_349:\n            /* \"#utility.yul\":15105:15114   */\n          dup2\n            /* \"#utility.yul\":15099:15103   */\n          dup2\n            /* \"#utility.yul\":15095:15115   */\n          sub\n            /* \"#utility.yul\":15090:15092   */\n          0x20\n            /* \"#utility.yul\":15079:15088   */\n          dup4\n            /* \"#utility.yul\":15075:15093   */\n          add\n            /* \"#utility.yul\":15068:15116   */\n          mstore\n            /* \"#utility.yul\":15133:15241   */\n          tag_350\n            /* \"#utility.yul\":15236:15240   */\n          dup2\n            /* \"#utility.yul\":15227:15233   */\n          dup6\n            /* \"#utility.yul\":15133:15241   */\n          tag_175\n          jump\t// in\n        tag_350:\n            /* \"#utility.yul\":15125:15241   */\n          swap1\n          pop\n            /* \"#utility.yul\":15251:15323   */\n          tag_351\n            /* \"#utility.yul\":15319:15321   */\n          0x40\n            /* \"#utility.yul\":15308:15317   */\n          dup4\n            /* \"#utility.yul\":15304:15322   */\n          add\n            /* \"#utility.yul\":15295:15301   */\n          dup5\n            /* \"#utility.yul\":15251:15323   */\n          tag_163\n          jump\t// in\n        tag_351:\n            /* \"#utility.yul\":14737:15330   */\n          swap5\n          swap4\n          pop\n          pop\n          pop\n          pop\n          jump\t// out\n            /* \"#utility.yul\":15336:15508   */\n        tag_192:\n            /* \"#utility.yul\":15476:15500   */\n          0x4f6e6c792063616c6c61626c65206279206f776e657200000000000000000000\n            /* \"#utility.yul\":15472:15473   */\n          0x00\n            /* \"#utility.yul\":15464:15470   */\n          dup3\n            /* \"#utility.yul\":15460:15474   */\n          add\n            /* \"#utility.yul\":15453:15501   */\n          mstore\n            /* \"#utility.yul\":15336:15508   */\n          pop\n          jump\t// out\n            /* \"#utility.yul\":15514:15880   */\n        tag_193:\n            /* \"#utility.yul\":15656:15659   */\n          0x00\n            /* \"#utility.yul\":15677:15744   */\n          tag_354\n            /* \"#utility.yul\":15741:15743   */\n          0x16\n            /* \"#utility.yul\":15736:15739   */\n          dup4\n            /* \"#utility.yul\":15677:15744   */\n          tag_178\n          jump\t// in\n        tag_354:\n            /* \"#utility.yul\":15670:15744   */\n          swap2\n          pop\n            /* \"#utility.yul\":15753:15846   */\n          tag_355\n            /* \"#utility.yul\":15842:15845   */\n          dup3\n            /* \"#utility.yul\":15753:15846   */\n          tag_192\n          jump\t// in\n        tag_355:\n            /* \"#utility.yul\":15871:15873   */\n          0x20\n            /* \"#utility.yul\":15866:15869   */\n          dup3\n            /* \"#utility.yul\":15862:15874   */\n          add\n            /* \"#utility.yul\":15855:15874   */\n          swap1\n          pop\n            /* \"#utility.yul\":15514:15880   */\n          swap2\n          swap1\n          pop\n          jump\t// out\n            /* \"#utility.yul\":15886:16305   */\n        tag_122:\n            /* \"#utility.yul\":16052:16056   */\n          0x00\n            /* \"#utility.yul\":16090:16092   */\n          0x20\n            /* \"#utility.yul\":16079:16088   */\n          dup3\n            /* \"#utility.yul\":16075:16093   */\n          add\n            /* \"#utility.yul\":16067:16093   */\n          swap1\n          pop\n            /* \"#utility.yul\":16139:16148   */\n          dup2\n            /* \"#utility.yul\":16133:16137   */\n          dup2\n            /* \"#utility.yul\":16129:16149   */\n          sub\n            /* \"#utility.yul\":16125:16126   */\n          0x00\n            /* \"#utility.yul\":16114:16123   */\n          dup4\n            /* \"#utility.yul\":16110:16127   */\n          add\n            /* \"#utility.yul\":16103:16150   */\n          mstore\n            /* \"#utility.yul\":16167:16298   */\n          tag_357\n            /* \"#utility.yul\":16293:16297   */\n          dup2\n            /* \"#utility.yul\":16167:16298   */\n          tag_193\n          jump\t// in\n        tag_357:\n            /* \"#utility.yul\":16159:16298   */\n          swap1\n          pop\n            /* \"#utility.yul\":15886:16305   */\n          swap2\n          swap1\n          pop\n          jump\t// out\n            /* \"#utility.yul\":16311:16400   */\n        tag_194:\n            /* \"#utility.yul\":16347:16354   */\n          0x00\n            /* \"#utility.yul\":16387:16393   */\n          0xffff\n            /* \"#utility.yul\":16380:16385   */\n          dup3\n            /* \"#utility.yul\":16376:16394   */\n          and\n            /* \"#utility.yul\":16365:16394   */\n          swap1\n          pop\n            /* \"#utility.yul\":16311:16400   */\n          swap2\n          swap1\n          pop\n          jump\t// out\n            /* \"#utility.yul\":16406:16521   */\n        tag_195:\n            /* \"#utility.yul\":16491:16514   */\n          tag_360\n            /* \"#utility.yul\":16508:16513   */\n          dup2\n            /* \"#utility.yul\":16491:16514   */\n          tag_194\n          jump\t// in\n        tag_360:\n            /* \"#utility.yul\":16486:16489   */\n          dup3\n            /* \"#utility.yul\":16479:16515   */\n          mstore\n            /* \"#utility.yul\":16406:16521   */\n          pop\n          pop\n          jump\t// out\n            /* \"#utility.yul\":16527:16957   */\n        tag_129:\n            /* \"#utility.yul\":16670:16674   */\n          0x00\n            /* \"#utility.yul\":16708:16710   */\n          0x60\n            /* \"#utility.yul\":16697:16706   */\n          dup3\n            /* \"#utility.yul\":16693:16711   */\n          add\n            /* \"#utility.yul\":16685:16711   */\n          swap1\n          pop\n            /* \"#utility.yul\":16721:16790   */\n          tag_362\n            /* \"#utility.yul\":16787:16788   */\n          0x00\n            /* \"#utility.yul\":16776:16785   */\n          dup4\n            /* \"#utility.yul\":16772:16789   */\n          add\n            /* \"#utility.yul\":16763:16769   */\n          dup7\n            /* \"#utility.yul\":16721:16790   */\n          tag_191\n          jump\t// in\n        tag_362:\n            /* \"#utility.yul\":16800:16870   */\n          tag_363\n            /* \"#utility.yul\":16866:16868   */\n          0x20\n            /* \"#utility.yul\":16855:16864   */\n          dup4\n            /* \"#utility.yul\":16851:16869   */\n          add\n            /* \"#utility.yul\":16842:16848   */\n          dup6\n            /* \"#utility.yul\":16800:16870   */\n          tag_195\n          jump\t// in\n        tag_363:\n            /* \"#utility.yul\":16880:16950   */\n          tag_364\n            /* \"#utility.yul\":16946:16948   */\n          0x40\n            /* \"#utility.yul\":16935:16944   */\n          dup4\n            /* \"#utility.yul\":16931:16949   */\n          add\n            /* \"#utility.yul\":16922:16928   */\n          dup5\n            /* \"#utility.yul\":16880:16950   */\n          tag_191\n          jump\t// in\n        tag_364:\n            /* \"#utility.yul\":16527:16957   */\n          swap5\n          swap4\n          pop\n          pop\n          pop\n          pop\n          jump\t// out\n            /* \"#utility.yul\":16963:17061   */\n        tag_196:\n            /* \"#utility.yul\":17014:17020   */\n          0x00\n            /* \"#utility.yul\":17048:17053   */\n          dup2\n            /* \"#utility.yul\":17042:17054   */\n          mload\n            /* \"#utility.yul\":17032:17054   */\n          swap1\n          pop\n            /* \"#utility.yul\":16963:17061   */\n          swap2\n          swap1\n          pop\n          jump\t// out\n            /* \"#utility.yul\":17067:17235   */\n        tag_197:\n            /* \"#utility.yul\":17150:17161   */\n          0x00\n            /* \"#utility.yul\":17184:17190   */\n          dup3\n            /* \"#utility.yul\":17179:17182   */\n          dup3\n            /* \"#utility.yul\":17172:17191   */\n          mstore\n            /* \"#utility.yul\":17224:17228   */\n          0x20\n            /* \"#utility.yul\":17219:17222   */\n          dup3\n            /* \"#utility.yul\":17215:17229   */\n          add\n            /* \"#utility.yul\":17200:17229   */\n          swap1\n          pop\n            /* \"#utility.yul\":17067:17235   */\n          swap3\n          swap2\n          pop\n          pop\n          jump\t// out\n            /* \"#utility.yul\":17241:17487   */\n        tag_198:\n            /* \"#utility.yul\":17322:17323   */\n          0x00\n            /* \"#utility.yul\":17332:17445   */\n        tag_368:\n            /* \"#utility.yul\":17346:17352   */\n          dup4\n            /* \"#utility.yul\":17343:17344   */\n          dup2\n            /* \"#utility.yul\":17340:17353   */\n          lt\n            /* \"#utility.yul\":17332:17445   */\n          iszero\n          tag_370\n          jumpi\n            /* \"#utility.yul\":17431:17432   */\n          dup1\n            /* \"#utility.yul\":17426:17429   */\n          dup3\n            /* \"#utility.yul\":17422:17433   */\n          add\n            /* \"#utility.yul\":17416:17434   */\n          mload\n            /* \"#utility.yul\":17412:17413   */\n          dup2\n            /* \"#utility.yul\":17407:17410   */\n          dup5\n            /* \"#utility.yul\":17403:17414   */\n          add\n            /* \"#utility.yul\":17396:17435   */\n          mstore\n            /* \"#utility.yul\":17368:17370   */\n          0x20\n            /* \"#utility.yul\":17365:17366   */\n          dup2\n            /* \"#utility.yul\":17361:17371   */\n          add\n            /* \"#utility.yul\":17356:17371   */\n          swap1\n          pop\n            /* \"#utility.yul\":17332:17445   */\n          jump(tag_368)\n        tag_370:\n            /* \"#utility.yul\":17479:17480   */\n          0x00\n            /* \"#utility.yul\":17470:17476   */\n          dup5\n            /* \"#utility.yul\":17465:17468   */\n          dup5\n            /* \"#utility.yul\":17461:17477   */\n          add\n            /* \"#utility.yul\":17454:17481   */\n          mstore\n            /* \"#utility.yul\":17303:17487   */\n          pop\n            /* \"#utility.yul\":17241:17487   */\n          pop\n          pop\n          pop\n          jump\t// out\n            /* \"#utility.yul\":17493:17866   */\n        tag_199:\n            /* \"#utility.yul\":17579:17582   */\n          0x00\n            /* \"#utility.yul\":17607:17645   */\n          tag_372\n            /* \"#utility.yul\":17639:17644   */\n          dup3\n            /* \"#utility.yul\":17607:17645   */\n          tag_196\n          jump\t// in\n        tag_372:\n            /* \"#utility.yul\":17661:17731   */\n          tag_373\n            /* \"#utility.yul\":17724:17730   */\n          dup2\n            /* \"#utility.yul\":17719:17722   */\n          dup6\n            /* \"#utility.yul\":17661:17731   */\n          tag_197\n          jump\t// in\n        tag_373:\n            /* \"#utility.yul\":17654:17731   */\n          swap4\n          pop\n            /* \"#utility.yul\":17740:17805   */\n          tag_374\n            /* \"#utility.yul\":17798:17804   */\n          dup2\n            /* \"#utility.yul\":17793:17796   */\n          dup6\n            /* \"#utility.yul\":17786:17790   */\n          0x20\n            /* \"#utility.yul\":17779:17784   */\n          dup7\n            /* \"#utility.yul\":17775:17791   */\n          add\n            /* \"#utility.yul\":17740:17805   */\n          tag_198\n          jump\t// in\n        tag_374:\n            /* \"#utility.yul\":17830:17859   */\n          tag_375\n            /* \"#utility.yul\":17852:17858   */\n          dup2\n            /* \"#utility.yul\":17830:17859   */\n          tag_156\n          jump\t// in\n        tag_375:\n            /* \"#utility.yul\":17825:17828   */\n          dup5\n            /* \"#utility.yul\":17821:17860   */\n          add\n            /* \"#utility.yul\":17814:17860   */\n          swap2\n          pop\n            /* \"#utility.yul\":17583:17866   */\n          pop\n            /* \"#utility.yul\":17493:17866   */\n          swap3\n          swap2\n          pop\n          pop\n          jump\t// out\n            /* \"#utility.yul\":17872:18401   */\n        tag_131:\n            /* \"#utility.yul\":18039:18043   */\n          0x00\n            /* \"#utility.yul\":18077:18079   */\n          0x60\n            /* \"#utility.yul\":18066:18075   */\n          dup3\n            /* \"#utility.yul\":18062:18080   */\n          add\n            /* \"#utility.yul\":18054:18080   */\n          swap1\n          pop\n            /* \"#utility.yul\":18090:18161   */\n          tag_377\n            /* \"#utility.yul\":18158:18159   */\n          0x00\n            /* \"#utility.yul\":18147:18156   */\n          dup4\n            /* \"#utility.yul\":18143:18160   */\n          add\n            /* \"#utility.yul\":18134:18140   */\n          dup7\n            /* \"#utility.yul\":18090:18161   */\n          tag_166\n          jump\t// in\n        tag_377:\n            /* \"#utility.yul\":18171:18243   */\n          tag_378\n            /* \"#utility.yul\":18239:18241   */\n          0x20\n            /* \"#utility.yul\":18228:18237   */\n          dup4\n            /* \"#utility.yul\":18224:18242   */\n          add\n            /* \"#utility.yul\":18215:18221   */\n          dup6\n            /* \"#utility.yul\":18171:18243   */\n          tag_163\n          jump\t// in\n        tag_378:\n            /* \"#utility.yul\":18290:18299   */\n          dup2\n            /* \"#utility.yul\":18284:18288   */\n          dup2\n            /* \"#utility.yul\":18280:18300   */\n          sub\n            /* \"#utility.yul\":18275:18277   */\n          0x40\n            /* \"#utility.yul\":18264:18273   */\n          dup4\n            /* \"#utility.yul\":18260:18278   */\n          add\n            /* \"#utility.yul\":18253:18301   */\n          mstore\n            /* \"#utility.yul\":18318:18394   */\n          tag_379\n            /* \"#utility.yul\":18389:18393   */\n          dup2\n            /* \"#utility.yul\":18380:18386   */\n          dup5\n            /* \"#utility.yul\":18318:18394   */\n          tag_199\n          jump\t// in\n        tag_379:\n            /* \"#utility.yul\":18310:18394   */\n          swap1\n          pop\n            /* \"#utility.yul\":17872:18401   */\n          swap5\n          swap4\n          pop\n          pop\n          pop\n          pop\n          jump\t// out\n            /* \"#utility.yul\":18407:18580   */\n        tag_200:\n            /* \"#utility.yul\":18547:18572   */\n          0x43616e6e6f74207472616e7366657220746f2073656c66000000000000000000\n            /* \"#utility.yul\":18543:18544   */\n          0x00\n            /* \"#utility.yul\":18535:18541   */\n          dup3\n            /* \"#utility.yul\":18531:18545   */\n          add\n            /* \"#utility.yul\":18524:18573   */\n          mstore\n            /* \"#utility.yul\":18407:18580   */\n          pop\n          jump\t// out\n            /* \"#utility.yul\":18586:18952   */\n        tag_201:\n            /* \"#utility.yul\":18728:18731   */\n          0x00\n            /* \"#utility.yul\":18749:18816   */\n          tag_382\n            /* \"#utility.yul\":18813:18815   */\n          0x17\n            /* \"#utility.yul\":18808:18811   */\n          dup4\n            /* \"#utility.yul\":18749:18816   */\n          tag_178\n          jump\t// in\n        tag_382:\n            /* \"#utility.yul\":18742:18816   */\n          swap2\n          pop\n            /* \"#utility.yul\":18825:18918   */\n          tag_383\n            /* \"#utility.yul\":18914:18917   */\n          dup3\n            /* \"#utility.yul\":18825:18918   */\n          tag_200\n          jump\t// in\n        tag_383:\n            /* \"#utility.yul\":18943:18945   */\n          0x20\n            /* \"#utility.yul\":18938:18941   */\n          dup3\n            /* \"#utility.yul\":18934:18946   */\n          add\n            /* \"#utility.yul\":18927:18946   */\n          swap1\n          pop\n            /* \"#utility.yul\":18586:18952   */\n          swap2\n          swap1\n          pop\n          jump\t// out\n            /* \"#utility.yul\":18958:19377   */\n        tag_141:\n            /* \"#utility.yul\":19124:19128   */\n          0x00\n            /* \"#utility.yul\":19162:19164   */\n          0x20\n            /* \"#utility.yul\":19151:19160   */\n          dup3\n            /* \"#utility.yul\":19147:19165   */\n          add\n            /* \"#utility.yul\":19139:19165   */\n          swap1\n          pop\n            /* \"#utility.yul\":19211:19220   */\n          dup2\n            /* \"#utility.yul\":19205:19209   */\n          dup2\n            /* \"#utility.yul\":19201:19221   */\n          sub\n            /* \"#utility.yul\":19197:19198   */\n          0x00\n            /* \"#utility.yul\":19186:19195   */\n          dup4\n            /* \"#utility.yul\":19182:19199   */\n          add\n            /* \"#utility.yul\":19175:19222   */\n          mstore\n            /* \"#utility.yul\":19239:19370   */\n          tag_385\n            /* \"#utility.yul\":19365:19369   */\n          dup2\n            /* \"#utility.yul\":19239:19370   */\n          tag_201\n          jump\t// in\n        tag_385:\n            /* \"#utility.yul\":19231:19370   */\n          swap1\n          pop\n            /* \"#utility.yul\":18958:19377   */\n          swap2\n          swap1\n          pop\n          jump\t// out\n\n        auxdata: 0xa26469706673582212204c5c7d6b258d9b677b85b4ed680f85c2b6d254b296dcbbf61b780d3c3d0804df64736f6c63430008120033\n    }\n}\n",
				"bytecode": {
					"linkReferences": {},
					"object": "608060405273326c977e6efc84e512bb9c30f76e30c160ed06fb600160006101000a81548173ffffffffffffffffffffffffffffffffffffffff021916908373ffffffffffffffffffffffffffffffffffffffff16021790555034801561006557600080fd5b5060405161007290610136565b604051809103906000f08015801561008e573d6000803e3d6000fd5b506000806101000a81548173ffffffffffffffffffffffffffffffffffffffff021916908373ffffffffffffffffffffffffffffffffffffffff160217905550600160009054906101000a900473ffffffffffffffffffffffffffffffffffffffff16600260006101000a81548173ffffffffffffffffffffffffffffffffffffffff021916908373ffffffffffffffffffffffffffffffffffffffff160217905550610143565b611d708061086883390190565b610716806101526000396000f3fe608060405234801561001057600080fd5b50600436106100415760003560e01c8063330b4655146100465780635a8ad5b514610076578063c199121914610094575b600080fd5b610060600480360381019061005b919061028e565b6100b2565b60405161006d9190610379565b60405180910390f35b61007e610169565b60405161008b91906103b6565b60405180910390f35b61009c610231565b6040516100a991906103b6565b60405180910390f35b606060008060008054906101000a900473ffffffffffffffffffffffffffffffffffffffff1673ffffffffffffffffffffffffffffffffffffffff1663d8a4676f856040518263ffffffff1660e01b815260040161011091906103e0565b600060405180830381865afa15801561012d573d6000803e3d6000fd5b505050506040513d6000823e3d601f19601f820116820180604052508101906101569190610595565b8095508193508294505050505050919050565b6000600260009054906101000a900473ffffffffffffffffffffffffffffffffffffffff1673ffffffffffffffffffffffffffffffffffffffff1663a9059cbb60008054906101000a900473ffffffffffffffffffffffffffffffffffffffff1660016040518363ffffffff1660e01b81526004016101e992919061068a565b6020604051808303816000875af1158015610208573d6000803e3d6000fd5b505050506040513d601f19601f8201168201806040525081019061022c91906106b3565b905090565b600260149054906101000a900460ff1681565b6000604051905090565b600080fd5b600080fd5b6000819050919050565b61026b81610258565b811461027657600080fd5b50565b60008135905061028881610262565b92915050565b6000602082840312156102a4576102a361024e565b5b60006102b284828501610279565b91505092915050565b600081519050919050565b600082825260208201905092915050565b6000819050602082019050919050565b6102f081610258565b82525050565b600061030283836102e7565b60208301905092915050565b6000602082019050919050565b6000610326826102bb565b61033081856102c6565b935061033b836102d7565b8060005b8381101561036c57815161035388826102f6565b975061035e8361030e565b92505060018101905061033f565b5085935050505092915050565b60006020820190508181036000830152610393818461031b565b905092915050565b60008115159050919050565b6103b08161039b565b82525050565b60006020820190506103cb60008301846103a7565b92915050565b6103da81610258565b82525050565b60006020820190506103f560008301846103d1565b92915050565b60008151905061040a81610262565b92915050565b6104198161039b565b811461042457600080fd5b50565b60008151905061043681610410565b92915050565b600080fd5b6000601f19601f8301169050919050565b7f4e487b7100000000000000000000000000000000000000000000000000000000600052604160045260246000fd5b61048a82610441565b810181811067ffffffffffffffff821117156104a9576104a8610452565b5b80604052505050565b60006104bc610244565b90506104c88282610481565b919050565b600067ffffffffffffffff8211156104e8576104e7610452565b5b602082029050602081019050919050565b600080fd5b600061051161050c846104cd565b6104b2565b90508083825260208201905060208402830185811115610534576105336104f9565b5b835b8181101561055d578061054988826103fb565b845260208401935050602081019050610536565b5050509392505050565b600082601f83011261057c5761057b61043c565b5b815161058c8482602086016104fe565b91505092915050565b6000806000606084860312156105ae576105ad61024e565b5b60006105bc868287016103fb565b93505060206105cd86828701610427565b925050604084015167ffffffffffffffff8111156105ee576105ed610253565b5b6105fa86828701610567565b9150509250925092565b600073ffffffffffffffffffffffffffffffffffffffff82169050919050565b600061062f82610604565b9050919050565b61063f81610624565b82525050565b6000819050919050565b6000819050919050565b600061067461066f61066a84610645565b61064f565b610258565b9050919050565b61068481610659565b82525050565b600060408201905061069f6000830185610636565b6106ac602083018461067b565b9392505050565b6000602082840312156106c9576106c861024e565b5b60006106d784828501610427565b9150509291505056fea2646970667358221220052f26890c702fbca9ea8ab5cae7a5b960152da53b13ca7c6c63091f9aa5c88264736f6c6343000812003360c0604052620186a0600560006101000a81548163ffffffff021916908363ffffffff1602179055506003600560046101000a81548161ffff021916908361ffff1602179055506002600560066101000a81548163ffffffff021916908363ffffffff16021790555073326c977e6efc84e512bb9c30f76e30c160ed06fb6005600a6101000a81548173ffffffffffffffffffffffffffffffffffffffff021916908373ffffffffffffffffffffffffffffffffffffffff1602179055507399afaf084eba697e584501b8ed2c0b37dd136693600660006101000a81548173ffffffffffffffffffffffffffffffffffffffff021916908373ffffffffffffffffffffffffffffffffffffffff1602179055503480156200011f57600080fd5b50338060006005600a9054906101000a900473ffffffffffffffffffffffffffffffffffffffff16600660009054906101000a900473ffffffffffffffffffffffffffffffffffffffff168173ffffffffffffffffffffffffffffffffffffffff1660808173ffffffffffffffffffffffffffffffffffffffff16815250508073ffffffffffffffffffffffffffffffffffffffff1660a08173ffffffffffffffffffffffffffffffffffffffff16815250505050600073ffffffffffffffffffffffffffffffffffffffff168273ffffffffffffffffffffffffffffffffffffffff160362000246576040517f08c379a00000000000000000000000000000000000000000000000000000000081526004016200023d9062000466565b60405180910390fd5b816000806101000a81548173ffffffffffffffffffffffffffffffffffffffff021916908373ffffffffffffffffffffffffffffffffffffffff160217905550600073ffffffffffffffffffffffffffffffffffffffff168173ffffffffffffffffffffffffffffffffffffffff1614620002cd57620002cc81620002d660201b60201c565b5b505050620004fa565b3373ffffffffffffffffffffffffffffffffffffffff168173ffffffffffffffffffffffffffffffffffffffff160362000347576040517f08c379a00000000000000000000000000000000000000000000000000000000081526004016200033e90620004d8565b60405180910390fd5b80600160006101000a81548173ffffffffffffffffffffffffffffffffffffffff021916908373ffffffffffffffffffffffffffffffffffffffff1602179055508073ffffffffffffffffffffffffffffffffffffffff1660008054906101000a900473ffffffffffffffffffffffffffffffffffffffff1673ffffffffffffffffffffffffffffffffffffffff167fed8889f560326eb138920d842192f0eb3dd22b4f139c87a2c57538e05bae127860405160405180910390a350565b600082825260208201905092915050565b7f43616e6e6f7420736574206f776e657220746f207a65726f0000000000000000600082015250565b60006200044e60188362000405565b91506200045b8262000416565b602082019050919050565b6000602082019050818103600083015262000481816200043f565b9050919050565b7f43616e6e6f74207472616e7366657220746f2073656c66000000000000000000600082015250565b6000620004c060178362000405565b9150620004cd8262000488565b602082019050919050565b60006020820190508181036000830152620004f381620004b1565b9050919050565b60805160a0516118346200053c600039600081816101de0152818161076501528181610b3701528181610b580152610c7801526000610afb01526118346000f3fe608060405234801561001057600080fd5b506004361061009e5760003560e01c8063a168fa8911610066578063a168fa8914610121578063d8a4676f14610152578063e0c8628914610184578063f2fde38b146101a2578063fc2a88c3146101be5761009e565b80631fe543e3146100a357806379ba5097146100bf5780638796ba8c146100c95780638da5cb5b146100f95780638dc654a214610117575b600080fd5b6100bd60048036038101906100b89190611047565b6101dc565b005b6100c7610278565b005b6100e360048036038101906100de91906110a3565b61040d565b6040516100f091906110df565b60405180910390f35b610101610431565b60405161010e919061113b565b60405180910390f35b61011f61045a565b005b61013b600480360381019061013691906110a3565b6105c2565b604051610149929190611171565b60405180910390f35b61016c600480360381019061016791906110a3565b6105f3565b60405161017b93929190611258565b60405180910390f35b61018c61070d565b60405161019991906110df565b60405180910390f35b6101bc60048036038101906101b791906112c2565b610945565b005b6101c6610959565b6040516101d391906110df565b60405180910390f35b7f000000000000000000000000000000000000000000000000000000000000000073ffffffffffffffffffffffffffffffffffffffff163373ffffffffffffffffffffffffffffffffffffffff161461026a576040517f08c379a00000000000000000000000000000000000000000000000000000000081526004016102619061134c565b60405180910390fd5b610274828261095f565b5050565b600160009054906101000a900473ffffffffffffffffffffffffffffffffffffffff1673ffffffffffffffffffffffffffffffffffffffff163373ffffffffffffffffffffffffffffffffffffffff1614610308576040517f08c379a00000000000000000000000000000000000000000000000000000000081526004016102ff906113b8565b60405180910390fd5b60008060009054906101000a900473ffffffffffffffffffffffffffffffffffffffff169050336000806101000a81548173ffffffffffffffffffffffffffffffffffffffff021916908373ffffffffffffffffffffffffffffffffffffffff1602179055506000600160006101000a81548173ffffffffffffffffffffffffffffffffffffffff021916908373ffffffffffffffffffffffffffffffffffffffff1602179055503373ffffffffffffffffffffffffffffffffffffffff168173ffffffffffffffffffffffffffffffffffffffff167f8be0079c531659141344cd1fd0a4f28419497f9722a3daafe3b4186f6b6457e060405160405180910390a350565b6003818154811061041d57600080fd5b906000526020600020016000915090505481565b60008060009054906101000a900473ffffffffffffffffffffffffffffffffffffffff16905090565b610462610a67565b60006005600a9054906101000a900473ffffffffffffffffffffffffffffffffffffffff1690508073ffffffffffffffffffffffffffffffffffffffff1663a9059cbb338373ffffffffffffffffffffffffffffffffffffffff166370a08231306040518263ffffffff1660e01b81526004016104df919061113b565b602060405180830381865afa1580156104fc573d6000803e3d6000fd5b505050506040513d601f19601f8201168201806040525081019061052091906113ed565b6040518363ffffffff1660e01b815260040161053d92919061141a565b6020604051808303816000875af115801561055c573d6000803e3d6000fd5b505050506040513d601f19601f82011682018060405250810190610580919061146f565b6105bf576040517f08c379a00000000000000000000000000000000000000000000000000000000081526004016105b6906114e8565b60405180910390fd5b50565b60026020528060005260406000206000915090508060000154908060010160009054906101000a900460ff16905082565b60008060606000600260008681526020019081526020016000206000015411610651576040517f08c379a000000000000000000000000000000000000000000000000000000000815260040161064890611554565b60405180910390fd5b600060026000868152602001908152602001600020604051806060016040529081600082015481526020016001820160009054906101000a900460ff16151515158152602001600282018054806020026020016040519081016040528092919081815260200182805480156106e557602002820191906000526020600020905b8154815260200190600101908083116106d1575b5050505050815250509050806000015181602001518260400151935093509350509193909250565b6000610717610a67565b610756600560009054906101000a900463ffffffff16600560049054906101000a900461ffff16600560069054906101000a900463ffffffff16610af7565b905060405180606001604052807f000000000000000000000000000000000000000000000000000000000000000073ffffffffffffffffffffffffffffffffffffffff16634306d354600560009054906101000a900463ffffffff166040518263ffffffff1660e01b81526004016107ce9190611593565b602060405180830381865afa1580156107eb573d6000803e3d6000fd5b505050506040513d601f19601f8201168201806040525081019061080f91906113ed565b8152602001600015158152602001600067ffffffffffffffff81111561083857610837610f04565b5b6040519080825280602002602001820160405280156108665781602001602082028036833780820191505090505b50815250600260008381526020019081526020016000206000820151816000015560208201518160010160006101000a81548160ff02191690831515021790555060408201518160020190805190602001906108c3929190610e3a565b509050506003819080600181540180825580915050600190039060005260206000200160009091909190915055806004819055507fcc58b13ad3eab50626c6a6300b1d139cd6ebb1688a7cced9461c2f7e762665ee81600560069054906101000a900463ffffffff1660405161093a9291906115ae565b60405180910390a190565b61094d610a67565b61095681610d0e565b50565b60045481565b60006002600084815260200190815260200160002060000154116109b8576040517f08c379a00000000000000000000000000000000000000000000000000000000081526004016109af90611554565b60405180910390fd5b60016002600084815260200190815260200160002060010160006101000a81548160ff02191690831515021790555080600260008481526020019081526020016000206002019080519060200190610a11929190610e3a565b507f147eb1ff0c82f87f2b03e2c43f5a36488ff63ec6b730195fde4605f612f8db5182826002600086815260200190815260200160002060000154604051610a5b939291906115d7565b60405180910390a15050565b60008054906101000a900473ffffffffffffffffffffffffffffffffffffffff1673ffffffffffffffffffffffffffffffffffffffff163373ffffffffffffffffffffffffffffffffffffffff1614610af5576040517f08c379a0000000000000000000000000000000000000000000000000000000008152600401610aec90611661565b60405180910390fd5b565b60007f000000000000000000000000000000000000000000000000000000000000000073ffffffffffffffffffffffffffffffffffffffff16634000aea07f00000000000000000000000000000000000000000000000000000000000000007f000000000000000000000000000000000000000000000000000000000000000073ffffffffffffffffffffffffffffffffffffffff16634306d354886040518263ffffffff1660e01b8152600401610baf9190611593565b602060405180830381865afa158015610bcc573d6000803e3d6000fd5b505050506040513d601f19601f82011682018060405250810190610bf091906113ed565b878787604051602001610c059392919061169e565b6040516020818303038152906040526040518463ffffffff1660e01b8152600401610c3293929190611754565b6020604051808303816000875af1158015610c51573d6000803e3d6000fd5b505050506040513d601f19601f82011682018060405250810190610c75919061146f565b507f000000000000000000000000000000000000000000000000000000000000000073ffffffffffffffffffffffffffffffffffffffff1663fc2a88c36040518163ffffffff1660e01b8152600401602060405180830381865afa158015610ce1573d6000803e3d6000fd5b505050506040513d601f19601f82011682018060405250810190610d0591906113ed565b90509392505050565b3373ffffffffffffffffffffffffffffffffffffffff168173ffffffffffffffffffffffffffffffffffffffff1603610d7c576040517f08c379a0000000000000000000000000000000000000000000000000000000008152600401610d73906117de565b60405180910390fd5b80600160006101000a81548173ffffffffffffffffffffffffffffffffffffffff021916908373ffffffffffffffffffffffffffffffffffffffff1602179055508073ffffffffffffffffffffffffffffffffffffffff1660008054906101000a900473ffffffffffffffffffffffffffffffffffffffff1673ffffffffffffffffffffffffffffffffffffffff167fed8889f560326eb138920d842192f0eb3dd22b4f139c87a2c57538e05bae127860405160405180910390a350565b828054828255906000526020600020908101928215610e76579160200282015b82811115610e75578251825591602001919060010190610e5a565b5b509050610e839190610e87565b5090565b5b80821115610ea0576000816000905550600101610e88565b5090565b6000604051905090565b600080fd5b600080fd5b6000819050919050565b610ecb81610eb8565b8114610ed657600080fd5b50565b600081359050610ee881610ec2565b92915050565b600080fd5b6000601f19601f8301169050919050565b7f4e487b7100000000000000000000000000000000000000000000000000000000600052604160045260246000fd5b610f3c82610ef3565b810181811067ffffffffffffffff82111715610f5b57610f5a610f04565b5b80604052505050565b6000610f6e610ea4565b9050610f7a8282610f33565b919050565b600067ffffffffffffffff821115610f9a57610f99610f04565b5b602082029050602081019050919050565b600080fd5b6000610fc3610fbe84610f7f565b610f64565b90508083825260208201905060208402830185811115610fe657610fe5610fab565b5b835b8181101561100f5780610ffb8882610ed9565b845260208401935050602081019050610fe8565b5050509392505050565b600082601f83011261102e5761102d610eee565b5b813561103e848260208601610fb0565b91505092915050565b6000806040838503121561105e5761105d610eae565b5b600061106c85828601610ed9565b925050602083013567ffffffffffffffff81111561108d5761108c610eb3565b5b61109985828601611019565b9150509250929050565b6000602082840312156110b9576110b8610eae565b5b60006110c784828501610ed9565b91505092915050565b6110d981610eb8565b82525050565b60006020820190506110f460008301846110d0565b92915050565b600073ffffffffffffffffffffffffffffffffffffffff82169050919050565b6000611125826110fa565b9050919050565b6111358161111a565b82525050565b6000602082019050611150600083018461112c565b92915050565b60008115159050919050565b61116b81611156565b82525050565b600060408201905061118660008301856110d0565b6111936020830184611162565b9392505050565b600081519050919050565b600082825260208201905092915050565b6000819050602082019050919050565b6111cf81610eb8565b82525050565b60006111e183836111c6565b60208301905092915050565b6000602082019050919050565b60006112058261119a565b61120f81856111a5565b935061121a836111b6565b8060005b8381101561124b57815161123288826111d5565b975061123d836111ed565b92505060018101905061121e565b5085935050505092915050565b600060608201905061126d60008301866110d0565b61127a6020830185611162565b818103604083015261128c81846111fa565b9050949350505050565b61129f8161111a565b81146112aa57600080fd5b50565b6000813590506112bc81611296565b92915050565b6000602082840312156112d8576112d7610eae565b5b60006112e6848285016112ad565b91505092915050565b600082825260208201905092915050565b7f6f6e6c792056524620563220777261707065722063616e2066756c66696c6c00600082015250565b6000611336601f836112ef565b915061134182611300565b602082019050919050565b6000602082019050818103600083015261136581611329565b9050919050565b7f4d7573742062652070726f706f736564206f776e657200000000000000000000600082015250565b60006113a26016836112ef565b91506113ad8261136c565b602082019050919050565b600060208201905081810360008301526113d181611395565b9050919050565b6000815190506113e781610ec2565b92915050565b60006020828403121561140357611402610eae565b5b6000611411848285016113d8565b91505092915050565b600060408201905061142f600083018561112c565b61143c60208301846110d0565b9392505050565b61144c81611156565b811461145757600080fd5b50565b60008151905061146981611443565b92915050565b60006020828403121561148557611484610eae565b5b60006114938482850161145a565b91505092915050565b7f556e61626c6520746f207472616e736665720000000000000000000000000000600082015250565b60006114d26012836112ef565b91506114dd8261149c565b602082019050919050565b60006020820190508181036000830152611501816114c5565b9050919050565b7f72657175657374206e6f7420666f756e64000000000000000000000000000000600082015250565b600061153e6011836112ef565b915061154982611508565b602082019050919050565b6000602082019050818103600083015261156d81611531565b9050919050565b600063ffffffff82169050919050565b61158d81611574565b82525050565b60006020820190506115a86000830184611584565b92915050565b60006040820190506115c360008301856110d0565b6115d06020830184611584565b9392505050565b60006060820190506115ec60008301866110d0565b81810360208301526115fe81856111fa565b905061160d60408301846110d0565b949350505050565b7f4f6e6c792063616c6c61626c65206279206f776e657200000000000000000000600082015250565b600061164b6016836112ef565b915061165682611615565b602082019050919050565b6000602082019050818103600083015261167a8161163e565b9050919050565b600061ffff82169050919050565b61169881611681565b82525050565b60006060820190506116b36000830186611584565b6116c0602083018561168f565b6116cd6040830184611584565b949350505050565b600081519050919050565b600082825260208201905092915050565b60005b8381101561170f5780820151818401526020810190506116f4565b60008484015250505050565b6000611726826116d5565b61173081856116e0565b93506117408185602086016116f1565b61174981610ef3565b840191505092915050565b6000606082019050611769600083018661112c565b61177660208301856110d0565b8181036040830152611788818461171b565b9050949350505050565b7f43616e6e6f74207472616e7366657220746f2073656c66000000000000000000600082015250565b60006117c86017836112ef565b91506117d382611792565b602082019050919050565b600060208201905081810360008301526117f7816117bb565b905091905056fea26469706673582212204c5c7d6b258d9b677b85b4ed680f85c2b6d254b296dcbbf61b780d3c3d0804df64736f6c63430008120033",
					"opcodes": "PUSH1 0x80 PUSH1 0x40 MSTORE PUSH20 0x326C977E6EFC84E512BB9C30F76E30C160ED06FB PUSH1 0x1 PUSH1 0x0 PUSH2 0x100 EXP DUP2 SLOAD DUP2 PUSH20 0xFFFFFFFFFFFFFFFFFFFFFFFFFFFFFFFFFFFFFFFF MUL NOT AND SWAP1 DUP4 PUSH20 0xFFFFFFFFFFFFFFFFFFFFFFFFFFFFFFFFFFFFFFFF AND MUL OR SWAP1 SSTORE POP CALLVALUE DUP1 ISZERO PUSH2 0x65 JUMPI PUSH1 0x0 DUP1 REVERT JUMPDEST POP PUSH1 0x40 MLOAD PUSH2 0x72 SWAP1 PUSH2 0x136 JUMP JUMPDEST PUSH1 0x40 MLOAD DUP1 SWAP2 SUB SWAP1 PUSH1 0x0 CREATE DUP1 ISZERO DUP1 ISZERO PUSH2 0x8E JUMPI RETURNDATASIZE PUSH1 0x0 DUP1 RETURNDATACOPY RETURNDATASIZE PUSH1 0x0 REVERT JUMPDEST POP PUSH1 0x0 DUP1 PUSH2 0x100 EXP DUP2 SLOAD DUP2 PUSH20 0xFFFFFFFFFFFFFFFFFFFFFFFFFFFFFFFFFFFFFFFF MUL NOT AND SWAP1 DUP4 PUSH20 0xFFFFFFFFFFFFFFFFFFFFFFFFFFFFFFFFFFFFFFFF AND MUL OR SWAP1 SSTORE POP PUSH1 0x1 PUSH1 0x0 SWAP1 SLOAD SWAP1 PUSH2 0x100 EXP SWAP1 DIV PUSH20 0xFFFFFFFFFFFFFFFFFFFFFFFFFFFFFFFFFFFFFFFF AND PUSH1 0x2 PUSH1 0x0 PUSH2 0x100 EXP DUP2 SLOAD DUP2 PUSH20 0xFFFFFFFFFFFFFFFFFFFFFFFFFFFFFFFFFFFFFFFF MUL NOT AND SWAP1 DUP4 PUSH20 0xFFFFFFFFFFFFFFFFFFFFFFFFFFFFFFFFFFFFFFFF AND MUL OR SWAP1 SSTORE POP PUSH2 0x143 JUMP JUMPDEST PUSH2 0x1D70 DUP1 PUSH2 0x868 DUP4 CODECOPY ADD SWAP1 JUMP JUMPDEST PUSH2 0x716 DUP1 PUSH2 0x152 PUSH1 0x0 CODECOPY PUSH1 0x0 RETURN INVALID PUSH1 0x80 PUSH1 0x40 MSTORE CALLVALUE DUP1 ISZERO PUSH2 0x10 JUMPI PUSH1 0x0 DUP1 REVERT JUMPDEST POP PUSH1 0x4 CALLDATASIZE LT PUSH2 0x41 JUMPI PUSH1 0x0 CALLDATALOAD PUSH1 0xE0 SHR DUP1 PUSH4 0x330B4655 EQ PUSH2 0x46 JUMPI DUP1 PUSH4 0x5A8AD5B5 EQ PUSH2 0x76 JUMPI DUP1 PUSH4 0xC1991219 EQ PUSH2 0x94 JUMPI JUMPDEST PUSH1 0x0 DUP1 REVERT JUMPDEST PUSH2 0x60 PUSH1 0x4 DUP1 CALLDATASIZE SUB DUP2 ADD SWAP1 PUSH2 0x5B SWAP2 SWAP1 PUSH2 0x28E JUMP JUMPDEST PUSH2 0xB2 JUMP JUMPDEST PUSH1 0x40 MLOAD PUSH2 0x6D SWAP2 SWAP1 PUSH2 0x379 JUMP JUMPDEST PUSH1 0x40 MLOAD DUP1 SWAP2 SUB SWAP1 RETURN JUMPDEST PUSH2 0x7E PUSH2 0x169 JUMP JUMPDEST PUSH1 0x40 MLOAD PUSH2 0x8B SWAP2 SWAP1 PUSH2 0x3B6 JUMP JUMPDEST PUSH1 0x40 MLOAD DUP1 SWAP2 SUB SWAP1 RETURN JUMPDEST PUSH2 0x9C PUSH2 0x231 JUMP JUMPDEST PUSH1 0x40 MLOAD PUSH2 0xA9 SWAP2 SWAP1 PUSH2 0x3B6 JUMP JUMPDEST PUSH1 0x40 MLOAD DUP1 SWAP2 SUB SWAP1 RETURN JUMPDEST PUSH1 0x60 PUSH1 0x0 DUP1 PUSH1 0x0 DUP1 SLOAD SWAP1 PUSH2 0x100 EXP SWAP1 DIV PUSH20 0xFFFFFFFFFFFFFFFFFFFFFFFFFFFFFFFFFFFFFFFF AND PUSH20 0xFFFFFFFFFFFFFFFFFFFFFFFFFFFFFFFFFFFFFFFF AND PUSH4 0xD8A4676F DUP6 PUSH1 0x40 MLOAD DUP3 PUSH4 0xFFFFFFFF AND PUSH1 0xE0 SHL DUP2 MSTORE PUSH1 0x4 ADD PUSH2 0x110 SWAP2 SWAP1 PUSH2 0x3E0 JUMP JUMPDEST PUSH1 0x0 PUSH1 0x40 MLOAD DUP1 DUP4 SUB DUP2 DUP7 GAS STATICCALL ISZERO DUP1 ISZERO PUSH2 0x12D JUMPI RETURNDATASIZE PUSH1 0x0 DUP1 RETURNDATACOPY RETURNDATASIZE PUSH1 0x0 REVERT JUMPDEST POP POP POP POP PUSH1 0x40 MLOAD RETURNDATASIZE PUSH1 0x0 DUP3 RETURNDATACOPY RETURNDATASIZE PUSH1 0x1F NOT PUSH1 0x1F DUP3 ADD AND DUP3 ADD DUP1 PUSH1 0x40 MSTORE POP DUP2 ADD SWAP1 PUSH2 0x156 SWAP2 SWAP1 PUSH2 0x595 JUMP JUMPDEST DUP1 SWAP6 POP DUP2 SWAP4 POP DUP3 SWAP5 POP POP POP POP POP POP SWAP2 SWAP1 POP JUMP JUMPDEST PUSH1 0x0 PUSH1 0x2 PUSH1 0x0 SWAP1 SLOAD SWAP1 PUSH2 0x100 EXP SWAP1 DIV PUSH20 0xFFFFFFFFFFFFFFFFFFFFFFFFFFFFFFFFFFFFFFFF AND PUSH20 0xFFFFFFFFFFFFFFFFFFFFFFFFFFFFFFFFFFFFFFFF AND PUSH4 0xA9059CBB PUSH1 0x0 DUP1 SLOAD SWAP1 PUSH2 0x100 EXP SWAP1 DIV PUSH20 0xFFFFFFFFFFFFFFFFFFFFFFFFFFFFFFFFFFFFFFFF AND PUSH1 0x1 PUSH1 0x40 MLOAD DUP4 PUSH4 0xFFFFFFFF AND PUSH1 0xE0 SHL DUP2 MSTORE PUSH1 0x4 ADD PUSH2 0x1E9 SWAP3 SWAP2 SWAP1 PUSH2 0x68A JUMP JUMPDEST PUSH1 0x20 PUSH1 0x40 MLOAD DUP1 DUP4 SUB DUP2 PUSH1 0x0 DUP8 GAS CALL ISZERO DUP1 ISZERO PUSH2 0x208 JUMPI RETURNDATASIZE PUSH1 0x0 DUP1 RETURNDATACOPY RETURNDATASIZE PUSH1 0x0 REVERT JUMPDEST POP POP POP POP PUSH1 0x40 MLOAD RETURNDATASIZE PUSH1 0x1F NOT PUSH1 0x1F DUP3 ADD AND DUP3 ADD DUP1 PUSH1 0x40 MSTORE POP DUP2 ADD SWAP1 PUSH2 0x22C SWAP2 SWAP1 PUSH2 0x6B3 JUMP JUMPDEST SWAP1 POP SWAP1 JUMP JUMPDEST PUSH1 0x2 PUSH1 0x14 SWAP1 SLOAD SWAP1 PUSH2 0x100 EXP SWAP1 DIV PUSH1 0xFF AND DUP2 JUMP JUMPDEST PUSH1 0x0 PUSH1 0x40 MLOAD SWAP1 POP SWAP1 JUMP JUMPDEST PUSH1 0x0 DUP1 REVERT JUMPDEST PUSH1 0x0 DUP1 REVERT JUMPDEST PUSH1 0x0 DUP2 SWAP1 POP SWAP2 SWAP1 POP JUMP JUMPDEST PUSH2 0x26B DUP2 PUSH2 0x258 JUMP JUMPDEST DUP2 EQ PUSH2 0x276 JUMPI PUSH1 0x0 DUP1 REVERT JUMPDEST POP JUMP JUMPDEST PUSH1 0x0 DUP2 CALLDATALOAD SWAP1 POP PUSH2 0x288 DUP2 PUSH2 0x262 JUMP JUMPDEST SWAP3 SWAP2 POP POP JUMP JUMPDEST PUSH1 0x0 PUSH1 0x20 DUP3 DUP5 SUB SLT ISZERO PUSH2 0x2A4 JUMPI PUSH2 0x2A3 PUSH2 0x24E JUMP JUMPDEST JUMPDEST PUSH1 0x0 PUSH2 0x2B2 DUP5 DUP3 DUP6 ADD PUSH2 0x279 JUMP JUMPDEST SWAP2 POP POP SWAP3 SWAP2 POP POP JUMP JUMPDEST PUSH1 0x0 DUP2 MLOAD SWAP1 POP SWAP2 SWAP1 POP JUMP JUMPDEST PUSH1 0x0 DUP3 DUP3 MSTORE PUSH1 0x20 DUP3 ADD SWAP1 POP SWAP3 SWAP2 POP POP JUMP JUMPDEST PUSH1 0x0 DUP2 SWAP1 POP PUSH1 0x20 DUP3 ADD SWAP1 POP SWAP2 SWAP1 POP JUMP JUMPDEST PUSH2 0x2F0 DUP2 PUSH2 0x258 JUMP JUMPDEST DUP3 MSTORE POP POP JUMP JUMPDEST PUSH1 0x0 PUSH2 0x302 DUP4 DUP4 PUSH2 0x2E7 JUMP JUMPDEST PUSH1 0x20 DUP4 ADD SWAP1 POP SWAP3 SWAP2 POP POP JUMP JUMPDEST PUSH1 0x0 PUSH1 0x20 DUP3 ADD SWAP1 POP SWAP2 SWAP1 POP JUMP JUMPDEST PUSH1 0x0 PUSH2 0x326 DUP3 PUSH2 0x2BB JUMP JUMPDEST PUSH2 0x330 DUP2 DUP6 PUSH2 0x2C6 JUMP JUMPDEST SWAP4 POP PUSH2 0x33B DUP4 PUSH2 0x2D7 JUMP JUMPDEST DUP1 PUSH1 0x0 JUMPDEST DUP4 DUP2 LT ISZERO PUSH2 0x36C JUMPI DUP2 MLOAD PUSH2 0x353 DUP9 DUP3 PUSH2 0x2F6 JUMP JUMPDEST SWAP8 POP PUSH2 0x35E DUP4 PUSH2 0x30E JUMP JUMPDEST SWAP3 POP POP PUSH1 0x1 DUP2 ADD SWAP1 POP PUSH2 0x33F JUMP JUMPDEST POP DUP6 SWAP4 POP POP POP POP SWAP3 SWAP2 POP POP JUMP JUMPDEST PUSH1 0x0 PUSH1 0x20 DUP3 ADD SWAP1 POP DUP2 DUP2 SUB PUSH1 0x0 DUP4 ADD MSTORE PUSH2 0x393 DUP2 DUP5 PUSH2 0x31B JUMP JUMPDEST SWAP1 POP SWAP3 SWAP2 POP POP JUMP JUMPDEST PUSH1 0x0 DUP2 ISZERO ISZERO SWAP1 POP SWAP2 SWAP1 POP JUMP JUMPDEST PUSH2 0x3B0 DUP2 PUSH2 0x39B JUMP JUMPDEST DUP3 MSTORE POP POP JUMP JUMPDEST PUSH1 0x0 PUSH1 0x20 DUP3 ADD SWAP1 POP PUSH2 0x3CB PUSH1 0x0 DUP4 ADD DUP5 PUSH2 0x3A7 JUMP JUMPDEST SWAP3 SWAP2 POP POP JUMP JUMPDEST PUSH2 0x3DA DUP2 PUSH2 0x258 JUMP JUMPDEST DUP3 MSTORE POP POP JUMP JUMPDEST PUSH1 0x0 PUSH1 0x20 DUP3 ADD SWAP1 POP PUSH2 0x3F5 PUSH1 0x0 DUP4 ADD DUP5 PUSH2 0x3D1 JUMP JUMPDEST SWAP3 SWAP2 POP POP JUMP JUMPDEST PUSH1 0x0 DUP2 MLOAD SWAP1 POP PUSH2 0x40A DUP2 PUSH2 0x262 JUMP JUMPDEST SWAP3 SWAP2 POP POP JUMP JUMPDEST PUSH2 0x419 DUP2 PUSH2 0x39B JUMP JUMPDEST DUP2 EQ PUSH2 0x424 JUMPI PUSH1 0x0 DUP1 REVERT JUMPDEST POP JUMP JUMPDEST PUSH1 0x0 DUP2 MLOAD SWAP1 POP PUSH2 0x436 DUP2 PUSH2 0x410 JUMP JUMPDEST SWAP3 SWAP2 POP POP JUMP JUMPDEST PUSH1 0x0 DUP1 REVERT JUMPDEST PUSH1 0x0 PUSH1 0x1F NOT PUSH1 0x1F DUP4 ADD AND SWAP1 POP SWAP2 SWAP1 POP JUMP JUMPDEST PUSH32 0x4E487B7100000000000000000000000000000000000000000000000000000000 PUSH1 0x0 MSTORE PUSH1 0x41 PUSH1 0x4 MSTORE PUSH1 0x24 PUSH1 0x0 REVERT JUMPDEST PUSH2 0x48A DUP3 PUSH2 0x441 JUMP JUMPDEST DUP2 ADD DUP2 DUP2 LT PUSH8 0xFFFFFFFFFFFFFFFF DUP3 GT OR ISZERO PUSH2 0x4A9 JUMPI PUSH2 0x4A8 PUSH2 0x452 JUMP JUMPDEST JUMPDEST DUP1 PUSH1 0x40 MSTORE POP POP POP JUMP JUMPDEST PUSH1 0x0 PUSH2 0x4BC PUSH2 0x244 JUMP JUMPDEST SWAP1 POP PUSH2 0x4C8 DUP3 DUP3 PUSH2 0x481 JUMP JUMPDEST SWAP2 SWAP1 POP JUMP JUMPDEST PUSH1 0x0 PUSH8 0xFFFFFFFFFFFFFFFF DUP3 GT ISZERO PUSH2 0x4E8 JUMPI PUSH2 0x4E7 PUSH2 0x452 JUMP JUMPDEST JUMPDEST PUSH1 0x20 DUP3 MUL SWAP1 POP PUSH1 0x20 DUP2 ADD SWAP1 POP SWAP2 SWAP1 POP JUMP JUMPDEST PUSH1 0x0 DUP1 REVERT JUMPDEST PUSH1 0x0 PUSH2 0x511 PUSH2 0x50C DUP5 PUSH2 0x4CD JUMP JUMPDEST PUSH2 0x4B2 JUMP JUMPDEST SWAP1 POP DUP1 DUP4 DUP3 MSTORE PUSH1 0x20 DUP3 ADD SWAP1 POP PUSH1 0x20 DUP5 MUL DUP4 ADD DUP6 DUP2 GT ISZERO PUSH2 0x534 JUMPI PUSH2 0x533 PUSH2 0x4F9 JUMP JUMPDEST JUMPDEST DUP4 JUMPDEST DUP2 DUP2 LT ISZERO PUSH2 0x55D JUMPI DUP1 PUSH2 0x549 DUP9 DUP3 PUSH2 0x3FB JUMP JUMPDEST DUP5 MSTORE PUSH1 0x20 DUP5 ADD SWAP4 POP POP PUSH1 0x20 DUP2 ADD SWAP1 POP PUSH2 0x536 JUMP JUMPDEST POP POP POP SWAP4 SWAP3 POP POP POP JUMP JUMPDEST PUSH1 0x0 DUP3 PUSH1 0x1F DUP4 ADD SLT PUSH2 0x57C JUMPI PUSH2 0x57B PUSH2 0x43C JUMP JUMPDEST JUMPDEST DUP2 MLOAD PUSH2 0x58C DUP5 DUP3 PUSH1 0x20 DUP7 ADD PUSH2 0x4FE JUMP JUMPDEST SWAP2 POP POP SWAP3 SWAP2 POP POP JUMP JUMPDEST PUSH1 0x0 DUP1 PUSH1 0x0 PUSH1 0x60 DUP5 DUP7 SUB SLT ISZERO PUSH2 0x5AE JUMPI PUSH2 0x5AD PUSH2 0x24E JUMP JUMPDEST JUMPDEST PUSH1 0x0 PUSH2 0x5BC DUP7 DUP3 DUP8 ADD PUSH2 0x3FB JUMP JUMPDEST SWAP4 POP POP PUSH1 0x20 PUSH2 0x5CD DUP7 DUP3 DUP8 ADD PUSH2 0x427 JUMP JUMPDEST SWAP3 POP POP PUSH1 0x40 DUP5 ADD MLOAD PUSH8 0xFFFFFFFFFFFFFFFF DUP2 GT ISZERO PUSH2 0x5EE JUMPI PUSH2 0x5ED PUSH2 0x253 JUMP JUMPDEST JUMPDEST PUSH2 0x5FA DUP7 DUP3 DUP8 ADD PUSH2 0x567 JUMP JUMPDEST SWAP2 POP POP SWAP3 POP SWAP3 POP SWAP3 JUMP JUMPDEST PUSH1 0x0 PUSH20 0xFFFFFFFFFFFFFFFFFFFFFFFFFFFFFFFFFFFFFFFF DUP3 AND SWAP1 POP SWAP2 SWAP1 POP JUMP JUMPDEST PUSH1 0x0 PUSH2 0x62F DUP3 PUSH2 0x604 JUMP JUMPDEST SWAP1 POP SWAP2 SWAP1 POP JUMP JUMPDEST PUSH2 0x63F DUP2 PUSH2 0x624 JUMP JUMPDEST DUP3 MSTORE POP POP JUMP JUMPDEST PUSH1 0x0 DUP2 SWAP1 POP SWAP2 SWAP1 POP JUMP JUMPDEST PUSH1 0x0 DUP2 SWAP1 POP SWAP2 SWAP1 POP JUMP JUMPDEST PUSH1 0x0 PUSH2 0x674 PUSH2 0x66F PUSH2 0x66A DUP5 PUSH2 0x645 JUMP JUMPDEST PUSH2 0x64F JUMP JUMPDEST PUSH2 0x258 JUMP JUMPDEST SWAP1 POP SWAP2 SWAP1 POP JUMP JUMPDEST PUSH2 0x684 DUP2 PUSH2 0x659 JUMP JUMPDEST DUP3 MSTORE POP POP JUMP JUMPDEST PUSH1 0x0 PUSH1 0x40 DUP3 ADD SWAP1 POP PUSH2 0x69F PUSH1 0x0 DUP4 ADD DUP6 PUSH2 0x636 JUMP JUMPDEST PUSH2 0x6AC PUSH1 0x20 DUP4 ADD DUP5 PUSH2 0x67B JUMP JUMPDEST SWAP4 SWAP3 POP POP POP JUMP JUMPDEST PUSH1 0x0 PUSH1 0x20 DUP3 DUP5 SUB SLT ISZERO PUSH2 0x6C9 JUMPI PUSH2 0x6C8 PUSH2 0x24E JUMP JUMPDEST JUMPDEST PUSH1 0x0 PUSH2 0x6D7 DUP5 DUP3 DUP6 ADD PUSH2 0x427 JUMP JUMPDEST SWAP2 POP POP SWAP3 SWAP2 POP POP JUMP INVALID LOG2 PUSH5 0x6970667358 0x22 SLT KECCAK256 SDIV 0x2F 0x26 DUP10 0xC PUSH17 0x2FBCA9EA8AB5CAE7A5B960152DA53B13CA PUSH29 0x6C63091F9AA5C88264736F6C6343000812003360C0604052620186A060 SDIV PUSH1 0x0 PUSH2 0x100 EXP DUP2 SLOAD DUP2 PUSH4 0xFFFFFFFF MUL NOT AND SWAP1 DUP4 PUSH4 0xFFFFFFFF AND MUL OR SWAP1 SSTORE POP PUSH1 0x3 PUSH1 0x5 PUSH1 0x4 PUSH2 0x100 EXP DUP2 SLOAD DUP2 PUSH2 0xFFFF MUL NOT AND SWAP1 DUP4 PUSH2 0xFFFF AND MUL OR SWAP1 SSTORE POP PUSH1 0x2 PUSH1 0x5 PUSH1 0x6 PUSH2 0x100 EXP DUP2 SLOAD DUP2 PUSH4 0xFFFFFFFF MUL NOT AND SWAP1 DUP4 PUSH4 0xFFFFFFFF AND MUL OR SWAP1 SSTORE POP PUSH20 0x326C977E6EFC84E512BB9C30F76E30C160ED06FB PUSH1 0x5 PUSH1 0xA PUSH2 0x100 EXP DUP2 SLOAD DUP2 PUSH20 0xFFFFFFFFFFFFFFFFFFFFFFFFFFFFFFFFFFFFFFFF MUL NOT AND SWAP1 DUP4 PUSH20 0xFFFFFFFFFFFFFFFFFFFFFFFFFFFFFFFFFFFFFFFF AND MUL OR SWAP1 SSTORE POP PUSH20 0x99AFAF084EBA697E584501B8ED2C0B37DD136693 PUSH1 0x6 PUSH1 0x0 PUSH2 0x100 EXP DUP2 SLOAD DUP2 PUSH20 0xFFFFFFFFFFFFFFFFFFFFFFFFFFFFFFFFFFFFFFFF MUL NOT AND SWAP1 DUP4 PUSH20 0xFFFFFFFFFFFFFFFFFFFFFFFFFFFFFFFFFFFFFFFF AND MUL OR SWAP1 SSTORE POP CALLVALUE DUP1 ISZERO PUSH3 0x11F JUMPI PUSH1 0x0 DUP1 REVERT JUMPDEST POP CALLER DUP1 PUSH1 0x0 PUSH1 0x5 PUSH1 0xA SWAP1 SLOAD SWAP1 PUSH2 0x100 EXP SWAP1 DIV PUSH20 0xFFFFFFFFFFFFFFFFFFFFFFFFFFFFFFFFFFFFFFFF AND PUSH1 0x6 PUSH1 0x0 SWAP1 SLOAD SWAP1 PUSH2 0x100 EXP SWAP1 DIV PUSH20 0xFFFFFFFFFFFFFFFFFFFFFFFFFFFFFFFFFFFFFFFF AND DUP2 PUSH20 0xFFFFFFFFFFFFFFFFFFFFFFFFFFFFFFFFFFFFFFFF AND PUSH1 0x80 DUP2 PUSH20 0xFFFFFFFFFFFFFFFFFFFFFFFFFFFFFFFFFFFFFFFF AND DUP2 MSTORE POP POP DUP1 PUSH20 0xFFFFFFFFFFFFFFFFFFFFFFFFFFFFFFFFFFFFFFFF AND PUSH1 0xA0 DUP2 PUSH20 0xFFFFFFFFFFFFFFFFFFFFFFFFFFFFFFFFFFFFFFFF AND DUP2 MSTORE POP POP POP POP PUSH1 0x0 PUSH20 0xFFFFFFFFFFFFFFFFFFFFFFFFFFFFFFFFFFFFFFFF AND DUP3 PUSH20 0xFFFFFFFFFFFFFFFFFFFFFFFFFFFFFFFFFFFFFFFF AND SUB PUSH3 0x246 JUMPI PUSH1 0x40 MLOAD PUSH32 0x8C379A000000000000000000000000000000000000000000000000000000000 DUP2 MSTORE PUSH1 0x4 ADD PUSH3 0x23D SWAP1 PUSH3 0x466 JUMP JUMPDEST PUSH1 0x40 MLOAD DUP1 SWAP2 SUB SWAP1 REVERT JUMPDEST DUP2 PUSH1 0x0 DUP1 PUSH2 0x100 EXP DUP2 SLOAD DUP2 PUSH20 0xFFFFFFFFFFFFFFFFFFFFFFFFFFFFFFFFFFFFFFFF MUL NOT AND SWAP1 DUP4 PUSH20 0xFFFFFFFFFFFFFFFFFFFFFFFFFFFFFFFFFFFFFFFF AND MUL OR SWAP1 SSTORE POP PUSH1 0x0 PUSH20 0xFFFFFFFFFFFFFFFFFFFFFFFFFFFFFFFFFFFFFFFF AND DUP2 PUSH20 0xFFFFFFFFFFFFFFFFFFFFFFFFFFFFFFFFFFFFFFFF AND EQ PUSH3 0x2CD JUMPI PUSH3 0x2CC DUP2 PUSH3 0x2D6 PUSH1 0x20 SHL PUSH1 0x20 SHR JUMP JUMPDEST JUMPDEST POP POP POP PUSH3 0x4FA JUMP JUMPDEST CALLER PUSH20 0xFFFFFFFFFFFFFFFFFFFFFFFFFFFFFFFFFFFFFFFF AND DUP2 PUSH20 0xFFFFFFFFFFFFFFFFFFFFFFFFFFFFFFFFFFFFFFFF AND SUB PUSH3 0x347 JUMPI PUSH1 0x40 MLOAD PUSH32 0x8C379A000000000000000000000000000000000000000000000000000000000 DUP2 MSTORE PUSH1 0x4 ADD PUSH3 0x33E SWAP1 PUSH3 0x4D8 JUMP JUMPDEST PUSH1 0x40 MLOAD DUP1 SWAP2 SUB SWAP1 REVERT JUMPDEST DUP1 PUSH1 0x1 PUSH1 0x0 PUSH2 0x100 EXP DUP2 SLOAD DUP2 PUSH20 0xFFFFFFFFFFFFFFFFFFFFFFFFFFFFFFFFFFFFFFFF MUL NOT AND SWAP1 DUP4 PUSH20 0xFFFFFFFFFFFFFFFFFFFFFFFFFFFFFFFFFFFFFFFF AND MUL OR SWAP1 SSTORE POP DUP1 PUSH20 0xFFFFFFFFFFFFFFFFFFFFFFFFFFFFFFFFFFFFFFFF AND PUSH1 0x0 DUP1 SLOAD SWAP1 PUSH2 0x100 EXP SWAP1 DIV PUSH20 0xFFFFFFFFFFFFFFFFFFFFFFFFFFFFFFFFFFFFFFFF AND PUSH20 0xFFFFFFFFFFFFFFFFFFFFFFFFFFFFFFFFFFFFFFFF AND PUSH32 0xED8889F560326EB138920D842192F0EB3DD22B4F139C87A2C57538E05BAE1278 PUSH1 0x40 MLOAD PUSH1 0x40 MLOAD DUP1 SWAP2 SUB SWAP1 LOG3 POP JUMP JUMPDEST PUSH1 0x0 DUP3 DUP3 MSTORE PUSH1 0x20 DUP3 ADD SWAP1 POP SWAP3 SWAP2 POP POP JUMP JUMPDEST PUSH32 0x43616E6E6F7420736574206F776E657220746F207A65726F0000000000000000 PUSH1 0x0 DUP3 ADD MSTORE POP JUMP JUMPDEST PUSH1 0x0 PUSH3 0x44E PUSH1 0x18 DUP4 PUSH3 0x405 JUMP JUMPDEST SWAP2 POP PUSH3 0x45B DUP3 PUSH3 0x416 JUMP JUMPDEST PUSH1 0x20 DUP3 ADD SWAP1 POP SWAP2 SWAP1 POP JUMP JUMPDEST PUSH1 0x0 PUSH1 0x20 DUP3 ADD SWAP1 POP DUP2 DUP2 SUB PUSH1 0x0 DUP4 ADD MSTORE PUSH3 0x481 DUP2 PUSH3 0x43F JUMP JUMPDEST SWAP1 POP SWAP2 SWAP1 POP JUMP JUMPDEST PUSH32 0x43616E6E6F74207472616E7366657220746F2073656C66000000000000000000 PUSH1 0x0 DUP3 ADD MSTORE POP JUMP JUMPDEST PUSH1 0x0 PUSH3 0x4C0 PUSH1 0x17 DUP4 PUSH3 0x405 JUMP JUMPDEST SWAP2 POP PUSH3 0x4CD DUP3 PUSH3 0x488 JUMP JUMPDEST PUSH1 0x20 DUP3 ADD SWAP1 POP SWAP2 SWAP1 POP JUMP JUMPDEST PUSH1 0x0 PUSH1 0x20 DUP3 ADD SWAP1 POP DUP2 DUP2 SUB PUSH1 0x0 DUP4 ADD MSTORE PUSH3 0x4F3 DUP2 PUSH3 0x4B1 JUMP JUMPDEST SWAP1 POP SWAP2 SWAP1 POP JUMP JUMPDEST PUSH1 0x80 MLOAD PUSH1 0xA0 MLOAD PUSH2 0x1834 PUSH3 0x53C PUSH1 0x0 CODECOPY PUSH1 0x0 DUP2 DUP2 PUSH2 0x1DE ADD MSTORE DUP2 DUP2 PUSH2 0x765 ADD MSTORE DUP2 DUP2 PUSH2 0xB37 ADD MSTORE DUP2 DUP2 PUSH2 0xB58 ADD MSTORE PUSH2 0xC78 ADD MSTORE PUSH1 0x0 PUSH2 0xAFB ADD MSTORE PUSH2 0x1834 PUSH1 0x0 RETURN INVALID PUSH1 0x80 PUSH1 0x40 MSTORE CALLVALUE DUP1 ISZERO PUSH2 0x10 JUMPI PUSH1 0x0 DUP1 REVERT JUMPDEST POP PUSH1 0x4 CALLDATASIZE LT PUSH2 0x9E JUMPI PUSH1 0x0 CALLDATALOAD PUSH1 0xE0 SHR DUP1 PUSH4 0xA168FA89 GT PUSH2 0x66 JUMPI DUP1 PUSH4 0xA168FA89 EQ PUSH2 0x121 JUMPI DUP1 PUSH4 0xD8A4676F EQ PUSH2 0x152 JUMPI DUP1 PUSH4 0xE0C86289 EQ PUSH2 0x184 JUMPI DUP1 PUSH4 0xF2FDE38B EQ PUSH2 0x1A2 JUMPI DUP1 PUSH4 0xFC2A88C3 EQ PUSH2 0x1BE JUMPI PUSH2 0x9E JUMP JUMPDEST DUP1 PUSH4 0x1FE543E3 EQ PUSH2 0xA3 JUMPI DUP1 PUSH4 0x79BA5097 EQ PUSH2 0xBF JUMPI DUP1 PUSH4 0x8796BA8C EQ PUSH2 0xC9 JUMPI DUP1 PUSH4 0x8DA5CB5B EQ PUSH2 0xF9 JUMPI DUP1 PUSH4 0x8DC654A2 EQ PUSH2 0x117 JUMPI JUMPDEST PUSH1 0x0 DUP1 REVERT JUMPDEST PUSH2 0xBD PUSH1 0x4 DUP1 CALLDATASIZE SUB DUP2 ADD SWAP1 PUSH2 0xB8 SWAP2 SWAP1 PUSH2 0x1047 JUMP JUMPDEST PUSH2 0x1DC JUMP JUMPDEST STOP JUMPDEST PUSH2 0xC7 PUSH2 0x278 JUMP JUMPDEST STOP JUMPDEST PUSH2 0xE3 PUSH1 0x4 DUP1 CALLDATASIZE SUB DUP2 ADD SWAP1 PUSH2 0xDE SWAP2 SWAP1 PUSH2 0x10A3 JUMP JUMPDEST PUSH2 0x40D JUMP JUMPDEST PUSH1 0x40 MLOAD PUSH2 0xF0 SWAP2 SWAP1 PUSH2 0x10DF JUMP JUMPDEST PUSH1 0x40 MLOAD DUP1 SWAP2 SUB SWAP1 RETURN JUMPDEST PUSH2 0x101 PUSH2 0x431 JUMP JUMPDEST PUSH1 0x40 MLOAD PUSH2 0x10E SWAP2 SWAP1 PUSH2 0x113B JUMP JUMPDEST PUSH1 0x40 MLOAD DUP1 SWAP2 SUB SWAP1 RETURN JUMPDEST PUSH2 0x11F PUSH2 0x45A JUMP JUMPDEST STOP JUMPDEST PUSH2 0x13B PUSH1 0x4 DUP1 CALLDATASIZE SUB DUP2 ADD SWAP1 PUSH2 0x136 SWAP2 SWAP1 PUSH2 0x10A3 JUMP JUMPDEST PUSH2 0x5C2 JUMP JUMPDEST PUSH1 0x40 MLOAD PUSH2 0x149 SWAP3 SWAP2 SWAP1 PUSH2 0x1171 JUMP JUMPDEST PUSH1 0x40 MLOAD DUP1 SWAP2 SUB SWAP1 RETURN JUMPDEST PUSH2 0x16C PUSH1 0x4 DUP1 CALLDATASIZE SUB DUP2 ADD SWAP1 PUSH2 0x167 SWAP2 SWAP1 PUSH2 0x10A3 JUMP JUMPDEST PUSH2 0x5F3 JUMP JUMPDEST PUSH1 0x40 MLOAD PUSH2 0x17B SWAP4 SWAP3 SWAP2 SWAP1 PUSH2 0x1258 JUMP JUMPDEST PUSH1 0x40 MLOAD DUP1 SWAP2 SUB SWAP1 RETURN JUMPDEST PUSH2 0x18C PUSH2 0x70D JUMP JUMPDEST PUSH1 0x40 MLOAD PUSH2 0x199 SWAP2 SWAP1 PUSH2 0x10DF JUMP JUMPDEST PUSH1 0x40 MLOAD DUP1 SWAP2 SUB SWAP1 RETURN JUMPDEST PUSH2 0x1BC PUSH1 0x4 DUP1 CALLDATASIZE SUB DUP2 ADD SWAP1 PUSH2 0x1B7 SWAP2 SWAP1 PUSH2 0x12C2 JUMP JUMPDEST PUSH2 0x945 JUMP JUMPDEST STOP JUMPDEST PUSH2 0x1C6 PUSH2 0x959 JUMP JUMPDEST PUSH1 0x40 MLOAD PUSH2 0x1D3 SWAP2 SWAP1 PUSH2 0x10DF JUMP JUMPDEST PUSH1 0x40 MLOAD DUP1 SWAP2 SUB SWAP1 RETURN JUMPDEST PUSH32 0x0 PUSH20 0xFFFFFFFFFFFFFFFFFFFFFFFFFFFFFFFFFFFFFFFF AND CALLER PUSH20 0xFFFFFFFFFFFFFFFFFFFFFFFFFFFFFFFFFFFFFFFF AND EQ PUSH2 0x26A JUMPI PUSH1 0x40 MLOAD PUSH32 0x8C379A000000000000000000000000000000000000000000000000000000000 DUP2 MSTORE PUSH1 0x4 ADD PUSH2 0x261 SWAP1 PUSH2 0x134C JUMP JUMPDEST PUSH1 0x40 MLOAD DUP1 SWAP2 SUB SWAP1 REVERT JUMPDEST PUSH2 0x274 DUP3 DUP3 PUSH2 0x95F JUMP JUMPDEST POP POP JUMP JUMPDEST PUSH1 0x1 PUSH1 0x0 SWAP1 SLOAD SWAP1 PUSH2 0x100 EXP SWAP1 DIV PUSH20 0xFFFFFFFFFFFFFFFFFFFFFFFFFFFFFFFFFFFFFFFF AND PUSH20 0xFFFFFFFFFFFFFFFFFFFFFFFFFFFFFFFFFFFFFFFF AND CALLER PUSH20 0xFFFFFFFFFFFFFFFFFFFFFFFFFFFFFFFFFFFFFFFF AND EQ PUSH2 0x308 JUMPI PUSH1 0x40 MLOAD PUSH32 0x8C379A000000000000000000000000000000000000000000000000000000000 DUP2 MSTORE PUSH1 0x4 ADD PUSH2 0x2FF SWAP1 PUSH2 0x13B8 JUMP JUMPDEST PUSH1 0x40 MLOAD DUP1 SWAP2 SUB SWAP1 REVERT JUMPDEST PUSH1 0x0 DUP1 PUSH1 0x0 SWAP1 SLOAD SWAP1 PUSH2 0x100 EXP SWAP1 DIV PUSH20 0xFFFFFFFFFFFFFFFFFFFFFFFFFFFFFFFFFFFFFFFF AND SWAP1 POP CALLER PUSH1 0x0 DUP1 PUSH2 0x100 EXP DUP2 SLOAD DUP2 PUSH20 0xFFFFFFFFFFFFFFFFFFFFFFFFFFFFFFFFFFFFFFFF MUL NOT AND SWAP1 DUP4 PUSH20 0xFFFFFFFFFFFFFFFFFFFFFFFFFFFFFFFFFFFFFFFF AND MUL OR SWAP1 SSTORE POP PUSH1 0x0 PUSH1 0x1 PUSH1 0x0 PUSH2 0x100 EXP DUP2 SLOAD DUP2 PUSH20 0xFFFFFFFFFFFFFFFFFFFFFFFFFFFFFFFFFFFFFFFF MUL NOT AND SWAP1 DUP4 PUSH20 0xFFFFFFFFFFFFFFFFFFFFFFFFFFFFFFFFFFFFFFFF AND MUL OR SWAP1 SSTORE POP CALLER PUSH20 0xFFFFFFFFFFFFFFFFFFFFFFFFFFFFFFFFFFFFFFFF AND DUP2 PUSH20 0xFFFFFFFFFFFFFFFFFFFFFFFFFFFFFFFFFFFFFFFF AND PUSH32 0x8BE0079C531659141344CD1FD0A4F28419497F9722A3DAAFE3B4186F6B6457E0 PUSH1 0x40 MLOAD PUSH1 0x40 MLOAD DUP1 SWAP2 SUB SWAP1 LOG3 POP JUMP JUMPDEST PUSH1 0x3 DUP2 DUP2 SLOAD DUP2 LT PUSH2 0x41D JUMPI PUSH1 0x0 DUP1 REVERT JUMPDEST SWAP1 PUSH1 0x0 MSTORE PUSH1 0x20 PUSH1 0x0 KECCAK256 ADD PUSH1 0x0 SWAP2 POP SWAP1 POP SLOAD DUP2 JUMP JUMPDEST PUSH1 0x0 DUP1 PUSH1 0x0 SWAP1 SLOAD SWAP1 PUSH2 0x100 EXP SWAP1 DIV PUSH20 0xFFFFFFFFFFFFFFFFFFFFFFFFFFFFFFFFFFFFFFFF AND SWAP1 POP SWAP1 JUMP JUMPDEST PUSH2 0x462 PUSH2 0xA67 JUMP JUMPDEST PUSH1 0x0 PUSH1 0x5 PUSH1 0xA SWAP1 SLOAD SWAP1 PUSH2 0x100 EXP SWAP1 DIV PUSH20 0xFFFFFFFFFFFFFFFFFFFFFFFFFFFFFFFFFFFFFFFF AND SWAP1 POP DUP1 PUSH20 0xFFFFFFFFFFFFFFFFFFFFFFFFFFFFFFFFFFFFFFFF AND PUSH4 0xA9059CBB CALLER DUP4 PUSH20 0xFFFFFFFFFFFFFFFFFFFFFFFFFFFFFFFFFFFFFFFF AND PUSH4 0x70A08231 ADDRESS PUSH1 0x40 MLOAD DUP3 PUSH4 0xFFFFFFFF AND PUSH1 0xE0 SHL DUP2 MSTORE PUSH1 0x4 ADD PUSH2 0x4DF SWAP2 SWAP1 PUSH2 0x113B JUMP JUMPDEST PUSH1 0x20 PUSH1 0x40 MLOAD DUP1 DUP4 SUB DUP2 DUP7 GAS STATICCALL ISZERO DUP1 ISZERO PUSH2 0x4FC JUMPI RETURNDATASIZE PUSH1 0x0 DUP1 RETURNDATACOPY RETURNDATASIZE PUSH1 0x0 REVERT JUMPDEST POP POP POP POP PUSH1 0x40 MLOAD RETURNDATASIZE PUSH1 0x1F NOT PUSH1 0x1F DUP3 ADD AND DUP3 ADD DUP1 PUSH1 0x40 MSTORE POP DUP2 ADD SWAP1 PUSH2 0x520 SWAP2 SWAP1 PUSH2 0x13ED JUMP JUMPDEST PUSH1 0x40 MLOAD DUP4 PUSH4 0xFFFFFFFF AND PUSH1 0xE0 SHL DUP2 MSTORE PUSH1 0x4 ADD PUSH2 0x53D SWAP3 SWAP2 SWAP1 PUSH2 0x141A JUMP JUMPDEST PUSH1 0x20 PUSH1 0x40 MLOAD DUP1 DUP4 SUB DUP2 PUSH1 0x0 DUP8 GAS CALL ISZERO DUP1 ISZERO PUSH2 0x55C JUMPI RETURNDATASIZE PUSH1 0x0 DUP1 RETURNDATACOPY RETURNDATASIZE PUSH1 0x0 REVERT JUMPDEST POP POP POP POP PUSH1 0x40 MLOAD RETURNDATASIZE PUSH1 0x1F NOT PUSH1 0x1F DUP3 ADD AND DUP3 ADD DUP1 PUSH1 0x40 MSTORE POP DUP2 ADD SWAP1 PUSH2 0x580 SWAP2 SWAP1 PUSH2 0x146F JUMP JUMPDEST PUSH2 0x5BF JUMPI PUSH1 0x40 MLOAD PUSH32 0x8C379A000000000000000000000000000000000000000000000000000000000 DUP2 MSTORE PUSH1 0x4 ADD PUSH2 0x5B6 SWAP1 PUSH2 0x14E8 JUMP JUMPDEST PUSH1 0x40 MLOAD DUP1 SWAP2 SUB SWAP1 REVERT JUMPDEST POP JUMP JUMPDEST PUSH1 0x2 PUSH1 0x20 MSTORE DUP1 PUSH1 0x0 MSTORE PUSH1 0x40 PUSH1 0x0 KECCAK256 PUSH1 0x0 SWAP2 POP SWAP1 POP DUP1 PUSH1 0x0 ADD SLOAD SWAP1 DUP1 PUSH1 0x1 ADD PUSH1 0x0 SWAP1 SLOAD SWAP1 PUSH2 0x100 EXP SWAP1 DIV PUSH1 0xFF AND SWAP1 POP DUP3 JUMP JUMPDEST PUSH1 0x0 DUP1 PUSH1 0x60 PUSH1 0x0 PUSH1 0x2 PUSH1 0x0 DUP7 DUP2 MSTORE PUSH1 0x20 ADD SWAP1 DUP2 MSTORE PUSH1 0x20 ADD PUSH1 0x0 KECCAK256 PUSH1 0x0 ADD SLOAD GT PUSH2 0x651 JUMPI PUSH1 0x40 MLOAD PUSH32 0x8C379A000000000000000000000000000000000000000000000000000000000 DUP2 MSTORE PUSH1 0x4 ADD PUSH2 0x648 SWAP1 PUSH2 0x1554 JUMP JUMPDEST PUSH1 0x40 MLOAD DUP1 SWAP2 SUB SWAP1 REVERT JUMPDEST PUSH1 0x0 PUSH1 0x2 PUSH1 0x0 DUP7 DUP2 MSTORE PUSH1 0x20 ADD SWAP1 DUP2 MSTORE PUSH1 0x20 ADD PUSH1 0x0 KECCAK256 PUSH1 0x40 MLOAD DUP1 PUSH1 0x60 ADD PUSH1 0x40 MSTORE SWAP1 DUP2 PUSH1 0x0 DUP3 ADD SLOAD DUP2 MSTORE PUSH1 0x20 ADD PUSH1 0x1 DUP3 ADD PUSH1 0x0 SWAP1 SLOAD SWAP1 PUSH2 0x100 EXP SWAP1 DIV PUSH1 0xFF AND ISZERO ISZERO ISZERO ISZERO DUP2 MSTORE PUSH1 0x20 ADD PUSH1 0x2 DUP3 ADD DUP1 SLOAD DUP1 PUSH1 0x20 MUL PUSH1 0x20 ADD PUSH1 0x40 MLOAD SWAP1 DUP2 ADD PUSH1 0x40 MSTORE DUP1 SWAP3 SWAP2 SWAP1 DUP2 DUP2 MSTORE PUSH1 0x20 ADD DUP3 DUP1 SLOAD DUP1 ISZERO PUSH2 0x6E5 JUMPI PUSH1 0x20 MUL DUP3 ADD SWAP2 SWAP1 PUSH1 0x0 MSTORE PUSH1 0x20 PUSH1 0x0 KECCAK256 SWAP1 JUMPDEST DUP2 SLOAD DUP2 MSTORE PUSH1 0x20 ADD SWAP1 PUSH1 0x1 ADD SWAP1 DUP1 DUP4 GT PUSH2 0x6D1 JUMPI JUMPDEST POP POP POP POP POP DUP2 MSTORE POP POP SWAP1 POP DUP1 PUSH1 0x0 ADD MLOAD DUP2 PUSH1 0x20 ADD MLOAD DUP3 PUSH1 0x40 ADD MLOAD SWAP4 POP SWAP4 POP SWAP4 POP POP SWAP2 SWAP4 SWAP1 SWAP3 POP JUMP JUMPDEST PUSH1 0x0 PUSH2 0x717 PUSH2 0xA67 JUMP JUMPDEST PUSH2 0x756 PUSH1 0x5 PUSH1 0x0 SWAP1 SLOAD SWAP1 PUSH2 0x100 EXP SWAP1 DIV PUSH4 0xFFFFFFFF AND PUSH1 0x5 PUSH1 0x4 SWAP1 SLOAD SWAP1 PUSH2 0x100 EXP SWAP1 DIV PUSH2 0xFFFF AND PUSH1 0x5 PUSH1 0x6 SWAP1 SLOAD SWAP1 PUSH2 0x100 EXP SWAP1 DIV PUSH4 0xFFFFFFFF AND PUSH2 0xAF7 JUMP JUMPDEST SWAP1 POP PUSH1 0x40 MLOAD DUP1 PUSH1 0x60 ADD PUSH1 0x40 MSTORE DUP1 PUSH32 0x0 PUSH20 0xFFFFFFFFFFFFFFFFFFFFFFFFFFFFFFFFFFFFFFFF AND PUSH4 0x4306D354 PUSH1 0x5 PUSH1 0x0 SWAP1 SLOAD SWAP1 PUSH2 0x100 EXP SWAP1 DIV PUSH4 0xFFFFFFFF AND PUSH1 0x40 MLOAD DUP3 PUSH4 0xFFFFFFFF AND PUSH1 0xE0 SHL DUP2 MSTORE PUSH1 0x4 ADD PUSH2 0x7CE SWAP2 SWAP1 PUSH2 0x1593 JUMP JUMPDEST PUSH1 0x20 PUSH1 0x40 MLOAD DUP1 DUP4 SUB DUP2 DUP7 GAS STATICCALL ISZERO DUP1 ISZERO PUSH2 0x7EB JUMPI RETURNDATASIZE PUSH1 0x0 DUP1 RETURNDATACOPY RETURNDATASIZE PUSH1 0x0 REVERT JUMPDEST POP POP POP POP PUSH1 0x40 MLOAD RETURNDATASIZE PUSH1 0x1F NOT PUSH1 0x1F DUP3 ADD AND DUP3 ADD DUP1 PUSH1 0x40 MSTORE POP DUP2 ADD SWAP1 PUSH2 0x80F SWAP2 SWAP1 PUSH2 0x13ED JUMP JUMPDEST DUP2 MSTORE PUSH1 0x20 ADD PUSH1 0x0 ISZERO ISZERO DUP2 MSTORE PUSH1 0x20 ADD PUSH1 0x0 PUSH8 0xFFFFFFFFFFFFFFFF DUP2 GT ISZERO PUSH2 0x838 JUMPI PUSH2 0x837 PUSH2 0xF04 JUMP JUMPDEST JUMPDEST PUSH1 0x40 MLOAD SWAP1 DUP1 DUP3 MSTORE DUP1 PUSH1 0x20 MUL PUSH1 0x20 ADD DUP3 ADD PUSH1 0x40 MSTORE DUP1 ISZERO PUSH2 0x866 JUMPI DUP2 PUSH1 0x20 ADD PUSH1 0x20 DUP3 MUL DUP1 CALLDATASIZE DUP4 CALLDATACOPY DUP1 DUP3 ADD SWAP2 POP POP SWAP1 POP JUMPDEST POP DUP2 MSTORE POP PUSH1 0x2 PUSH1 0x0 DUP4 DUP2 MSTORE PUSH1 0x20 ADD SWAP1 DUP2 MSTORE PUSH1 0x20 ADD PUSH1 0x0 KECCAK256 PUSH1 0x0 DUP3 ADD MLOAD DUP2 PUSH1 0x0 ADD SSTORE PUSH1 0x20 DUP3 ADD MLOAD DUP2 PUSH1 0x1 ADD PUSH1 0x0 PUSH2 0x100 EXP DUP2 SLOAD DUP2 PUSH1 0xFF MUL NOT AND SWAP1 DUP4 ISZERO ISZERO MUL OR SWAP1 SSTORE POP PUSH1 0x40 DUP3 ADD MLOAD DUP2 PUSH1 0x2 ADD SWAP1 DUP1 MLOAD SWAP1 PUSH1 0x20 ADD SWAP1 PUSH2 0x8C3 SWAP3 SWAP2 SWAP1 PUSH2 0xE3A JUMP JUMPDEST POP SWAP1 POP POP PUSH1 0x3 DUP2 SWAP1 DUP1 PUSH1 0x1 DUP2 SLOAD ADD DUP1 DUP3 SSTORE DUP1 SWAP2 POP POP PUSH1 0x1 SWAP1 SUB SWAP1 PUSH1 0x0 MSTORE PUSH1 0x20 PUSH1 0x0 KECCAK256 ADD PUSH1 0x0 SWAP1 SWAP2 SWAP1 SWAP2 SWAP1 SWAP2 POP SSTORE DUP1 PUSH1 0x4 DUP2 SWAP1 SSTORE POP PUSH32 0xCC58B13AD3EAB50626C6A6300B1D139CD6EBB1688A7CCED9461C2F7E762665EE DUP2 PUSH1 0x5 PUSH1 0x6 SWAP1 SLOAD SWAP1 PUSH2 0x100 EXP SWAP1 DIV PUSH4 0xFFFFFFFF AND PUSH1 0x40 MLOAD PUSH2 0x93A SWAP3 SWAP2 SWAP1 PUSH2 0x15AE JUMP JUMPDEST PUSH1 0x40 MLOAD DUP1 SWAP2 SUB SWAP1 LOG1 SWAP1 JUMP JUMPDEST PUSH2 0x94D PUSH2 0xA67 JUMP JUMPDEST PUSH2 0x956 DUP2 PUSH2 0xD0E JUMP JUMPDEST POP JUMP JUMPDEST PUSH1 0x4 SLOAD DUP2 JUMP JUMPDEST PUSH1 0x0 PUSH1 0x2 PUSH1 0x0 DUP5 DUP2 MSTORE PUSH1 0x20 ADD SWAP1 DUP2 MSTORE PUSH1 0x20 ADD PUSH1 0x0 KECCAK256 PUSH1 0x0 ADD SLOAD GT PUSH2 0x9B8 JUMPI PUSH1 0x40 MLOAD PUSH32 0x8C379A000000000000000000000000000000000000000000000000000000000 DUP2 MSTORE PUSH1 0x4 ADD PUSH2 0x9AF SWAP1 PUSH2 0x1554 JUMP JUMPDEST PUSH1 0x40 MLOAD DUP1 SWAP2 SUB SWAP1 REVERT JUMPDEST PUSH1 0x1 PUSH1 0x2 PUSH1 0x0 DUP5 DUP2 MSTORE PUSH1 0x20 ADD SWAP1 DUP2 MSTORE PUSH1 0x20 ADD PUSH1 0x0 KECCAK256 PUSH1 0x1 ADD PUSH1 0x0 PUSH2 0x100 EXP DUP2 SLOAD DUP2 PUSH1 0xFF MUL NOT AND SWAP1 DUP4 ISZERO ISZERO MUL OR SWAP1 SSTORE POP DUP1 PUSH1 0x2 PUSH1 0x0 DUP5 DUP2 MSTORE PUSH1 0x20 ADD SWAP1 DUP2 MSTORE PUSH1 0x20 ADD PUSH1 0x0 KECCAK256 PUSH1 0x2 ADD SWAP1 DUP1 MLOAD SWAP1 PUSH1 0x20 ADD SWAP1 PUSH2 0xA11 SWAP3 SWAP2 SWAP1 PUSH2 0xE3A JUMP JUMPDEST POP PUSH32 0x147EB1FF0C82F87F2B03E2C43F5A36488FF63EC6B730195FDE4605F612F8DB51 DUP3 DUP3 PUSH1 0x2 PUSH1 0x0 DUP7 DUP2 MSTORE PUSH1 0x20 ADD SWAP1 DUP2 MSTORE PUSH1 0x20 ADD PUSH1 0x0 KECCAK256 PUSH1 0x0 ADD SLOAD PUSH1 0x40 MLOAD PUSH2 0xA5B SWAP4 SWAP3 SWAP2 SWAP1 PUSH2 0x15D7 JUMP JUMPDEST PUSH1 0x40 MLOAD DUP1 SWAP2 SUB SWAP1 LOG1 POP POP JUMP JUMPDEST PUSH1 0x0 DUP1 SLOAD SWAP1 PUSH2 0x100 EXP SWAP1 DIV PUSH20 0xFFFFFFFFFFFFFFFFFFFFFFFFFFFFFFFFFFFFFFFF AND PUSH20 0xFFFFFFFFFFFFFFFFFFFFFFFFFFFFFFFFFFFFFFFF AND CALLER PUSH20 0xFFFFFFFFFFFFFFFFFFFFFFFFFFFFFFFFFFFFFFFF AND EQ PUSH2 0xAF5 JUMPI PUSH1 0x40 MLOAD PUSH32 0x8C379A000000000000000000000000000000000000000000000000000000000 DUP2 MSTORE PUSH1 0x4 ADD PUSH2 0xAEC SWAP1 PUSH2 0x1661 JUMP JUMPDEST PUSH1 0x40 MLOAD DUP1 SWAP2 SUB SWAP1 REVERT JUMPDEST JUMP JUMPDEST PUSH1 0x0 PUSH32 0x0 PUSH20 0xFFFFFFFFFFFFFFFFFFFFFFFFFFFFFFFFFFFFFFFF AND PUSH4 0x4000AEA0 PUSH32 0x0 PUSH32 0x0 PUSH20 0xFFFFFFFFFFFFFFFFFFFFFFFFFFFFFFFFFFFFFFFF AND PUSH4 0x4306D354 DUP9 PUSH1 0x40 MLOAD DUP3 PUSH4 0xFFFFFFFF AND PUSH1 0xE0 SHL DUP2 MSTORE PUSH1 0x4 ADD PUSH2 0xBAF SWAP2 SWAP1 PUSH2 0x1593 JUMP JUMPDEST PUSH1 0x20 PUSH1 0x40 MLOAD DUP1 DUP4 SUB DUP2 DUP7 GAS STATICCALL ISZERO DUP1 ISZERO PUSH2 0xBCC JUMPI RETURNDATASIZE PUSH1 0x0 DUP1 RETURNDATACOPY RETURNDATASIZE PUSH1 0x0 REVERT JUMPDEST POP POP POP POP PUSH1 0x40 MLOAD RETURNDATASIZE PUSH1 0x1F NOT PUSH1 0x1F DUP3 ADD AND DUP3 ADD DUP1 PUSH1 0x40 MSTORE POP DUP2 ADD SWAP1 PUSH2 0xBF0 SWAP2 SWAP1 PUSH2 0x13ED JUMP JUMPDEST DUP8 DUP8 DUP8 PUSH1 0x40 MLOAD PUSH1 0x20 ADD PUSH2 0xC05 SWAP4 SWAP3 SWAP2 SWAP1 PUSH2 0x169E JUMP JUMPDEST PUSH1 0x40 MLOAD PUSH1 0x20 DUP2 DUP4 SUB SUB DUP2 MSTORE SWAP1 PUSH1 0x40 MSTORE PUSH1 0x40 MLOAD DUP5 PUSH4 0xFFFFFFFF AND PUSH1 0xE0 SHL DUP2 MSTORE PUSH1 0x4 ADD PUSH2 0xC32 SWAP4 SWAP3 SWAP2 SWAP1 PUSH2 0x1754 JUMP JUMPDEST PUSH1 0x20 PUSH1 0x40 MLOAD DUP1 DUP4 SUB DUP2 PUSH1 0x0 DUP8 GAS CALL ISZERO DUP1 ISZERO PUSH2 0xC51 JUMPI RETURNDATASIZE PUSH1 0x0 DUP1 RETURNDATACOPY RETURNDATASIZE PUSH1 0x0 REVERT JUMPDEST POP POP POP POP PUSH1 0x40 MLOAD RETURNDATASIZE PUSH1 0x1F NOT PUSH1 0x1F DUP3 ADD AND DUP3 ADD DUP1 PUSH1 0x40 MSTORE POP DUP2 ADD SWAP1 PUSH2 0xC75 SWAP2 SWAP1 PUSH2 0x146F JUMP JUMPDEST POP PUSH32 0x0 PUSH20 0xFFFFFFFFFFFFFFFFFFFFFFFFFFFFFFFFFFFFFFFF AND PUSH4 0xFC2A88C3 PUSH1 0x40 MLOAD DUP2 PUSH4 0xFFFFFFFF AND PUSH1 0xE0 SHL DUP2 MSTORE PUSH1 0x4 ADD PUSH1 0x20 PUSH1 0x40 MLOAD DUP1 DUP4 SUB DUP2 DUP7 GAS STATICCALL ISZERO DUP1 ISZERO PUSH2 0xCE1 JUMPI RETURNDATASIZE PUSH1 0x0 DUP1 RETURNDATACOPY RETURNDATASIZE PUSH1 0x0 REVERT JUMPDEST POP POP POP POP PUSH1 0x40 MLOAD RETURNDATASIZE PUSH1 0x1F NOT PUSH1 0x1F DUP3 ADD AND DUP3 ADD DUP1 PUSH1 0x40 MSTORE POP DUP2 ADD SWAP1 PUSH2 0xD05 SWAP2 SWAP1 PUSH2 0x13ED JUMP JUMPDEST SWAP1 POP SWAP4 SWAP3 POP POP POP JUMP JUMPDEST CALLER PUSH20 0xFFFFFFFFFFFFFFFFFFFFFFFFFFFFFFFFFFFFFFFF AND DUP2 PUSH20 0xFFFFFFFFFFFFFFFFFFFFFFFFFFFFFFFFFFFFFFFF AND SUB PUSH2 0xD7C JUMPI PUSH1 0x40 MLOAD PUSH32 0x8C379A000000000000000000000000000000000000000000000000000000000 DUP2 MSTORE PUSH1 0x4 ADD PUSH2 0xD73 SWAP1 PUSH2 0x17DE JUMP JUMPDEST PUSH1 0x40 MLOAD DUP1 SWAP2 SUB SWAP1 REVERT JUMPDEST DUP1 PUSH1 0x1 PUSH1 0x0 PUSH2 0x100 EXP DUP2 SLOAD DUP2 PUSH20 0xFFFFFFFFFFFFFFFFFFFFFFFFFFFFFFFFFFFFFFFF MUL NOT AND SWAP1 DUP4 PUSH20 0xFFFFFFFFFFFFFFFFFFFFFFFFFFFFFFFFFFFFFFFF AND MUL OR SWAP1 SSTORE POP DUP1 PUSH20 0xFFFFFFFFFFFFFFFFFFFFFFFFFFFFFFFFFFFFFFFF AND PUSH1 0x0 DUP1 SLOAD SWAP1 PUSH2 0x100 EXP SWAP1 DIV PUSH20 0xFFFFFFFFFFFFFFFFFFFFFFFFFFFFFFFFFFFFFFFF AND PUSH20 0xFFFFFFFFFFFFFFFFFFFFFFFFFFFFFFFFFFFFFFFF AND PUSH32 0xED8889F560326EB138920D842192F0EB3DD22B4F139C87A2C57538E05BAE1278 PUSH1 0x40 MLOAD PUSH1 0x40 MLOAD DUP1 SWAP2 SUB SWAP1 LOG3 POP JUMP JUMPDEST DUP3 DUP1 SLOAD DUP3 DUP3 SSTORE SWAP1 PUSH1 0x0 MSTORE PUSH1 0x20 PUSH1 0x0 KECCAK256 SWAP1 DUP2 ADD SWAP3 DUP3 ISZERO PUSH2 0xE76 JUMPI SWAP2 PUSH1 0x20 MUL DUP3 ADD JUMPDEST DUP3 DUP2 GT ISZERO PUSH2 0xE75 JUMPI DUP3 MLOAD DUP3 SSTORE SWAP2 PUSH1 0x20 ADD SWAP2 SWAP1 PUSH1 0x1 ADD SWAP1 PUSH2 0xE5A JUMP JUMPDEST JUMPDEST POP SWAP1 POP PUSH2 0xE83 SWAP2 SWAP1 PUSH2 0xE87 JUMP JUMPDEST POP SWAP1 JUMP JUMPDEST JUMPDEST DUP1 DUP3 GT ISZERO PUSH2 0xEA0 JUMPI PUSH1 0x0 DUP2 PUSH1 0x0 SWAP1 SSTORE POP PUSH1 0x1 ADD PUSH2 0xE88 JUMP JUMPDEST POP SWAP1 JUMP JUMPDEST PUSH1 0x0 PUSH1 0x40 MLOAD SWAP1 POP SWAP1 JUMP JUMPDEST PUSH1 0x0 DUP1 REVERT JUMPDEST PUSH1 0x0 DUP1 REVERT JUMPDEST PUSH1 0x0 DUP2 SWAP1 POP SWAP2 SWAP1 POP JUMP JUMPDEST PUSH2 0xECB DUP2 PUSH2 0xEB8 JUMP JUMPDEST DUP2 EQ PUSH2 0xED6 JUMPI PUSH1 0x0 DUP1 REVERT JUMPDEST POP JUMP JUMPDEST PUSH1 0x0 DUP2 CALLDATALOAD SWAP1 POP PUSH2 0xEE8 DUP2 PUSH2 0xEC2 JUMP JUMPDEST SWAP3 SWAP2 POP POP JUMP JUMPDEST PUSH1 0x0 DUP1 REVERT JUMPDEST PUSH1 0x0 PUSH1 0x1F NOT PUSH1 0x1F DUP4 ADD AND SWAP1 POP SWAP2 SWAP1 POP JUMP JUMPDEST PUSH32 0x4E487B7100000000000000000000000000000000000000000000000000000000 PUSH1 0x0 MSTORE PUSH1 0x41 PUSH1 0x4 MSTORE PUSH1 0x24 PUSH1 0x0 REVERT JUMPDEST PUSH2 0xF3C DUP3 PUSH2 0xEF3 JUMP JUMPDEST DUP2 ADD DUP2 DUP2 LT PUSH8 0xFFFFFFFFFFFFFFFF DUP3 GT OR ISZERO PUSH2 0xF5B JUMPI PUSH2 0xF5A PUSH2 0xF04 JUMP JUMPDEST JUMPDEST DUP1 PUSH1 0x40 MSTORE POP POP POP JUMP JUMPDEST PUSH1 0x0 PUSH2 0xF6E PUSH2 0xEA4 JUMP JUMPDEST SWAP1 POP PUSH2 0xF7A DUP3 DUP3 PUSH2 0xF33 JUMP JUMPDEST SWAP2 SWAP1 POP JUMP JUMPDEST PUSH1 0x0 PUSH8 0xFFFFFFFFFFFFFFFF DUP3 GT ISZERO PUSH2 0xF9A JUMPI PUSH2 0xF99 PUSH2 0xF04 JUMP JUMPDEST JUMPDEST PUSH1 0x20 DUP3 MUL SWAP1 POP PUSH1 0x20 DUP2 ADD SWAP1 POP SWAP2 SWAP1 POP JUMP JUMPDEST PUSH1 0x0 DUP1 REVERT JUMPDEST PUSH1 0x0 PUSH2 0xFC3 PUSH2 0xFBE DUP5 PUSH2 0xF7F JUMP JUMPDEST PUSH2 0xF64 JUMP JUMPDEST SWAP1 POP DUP1 DUP4 DUP3 MSTORE PUSH1 0x20 DUP3 ADD SWAP1 POP PUSH1 0x20 DUP5 MUL DUP4 ADD DUP6 DUP2 GT ISZERO PUSH2 0xFE6 JUMPI PUSH2 0xFE5 PUSH2 0xFAB JUMP JUMPDEST JUMPDEST DUP4 JUMPDEST DUP2 DUP2 LT ISZERO PUSH2 0x100F JUMPI DUP1 PUSH2 0xFFB DUP9 DUP3 PUSH2 0xED9 JUMP JUMPDEST DUP5 MSTORE PUSH1 0x20 DUP5 ADD SWAP4 POP POP PUSH1 0x20 DUP2 ADD SWAP1 POP PUSH2 0xFE8 JUMP JUMPDEST POP POP POP SWAP4 SWAP3 POP POP POP JUMP JUMPDEST PUSH1 0x0 DUP3 PUSH1 0x1F DUP4 ADD SLT PUSH2 0x102E JUMPI PUSH2 0x102D PUSH2 0xEEE JUMP JUMPDEST JUMPDEST DUP2 CALLDATALOAD PUSH2 0x103E DUP5 DUP3 PUSH1 0x20 DUP7 ADD PUSH2 0xFB0 JUMP JUMPDEST SWAP2 POP POP SWAP3 SWAP2 POP POP JUMP JUMPDEST PUSH1 0x0 DUP1 PUSH1 0x40 DUP4 DUP6 SUB SLT ISZERO PUSH2 0x105E JUMPI PUSH2 0x105D PUSH2 0xEAE JUMP JUMPDEST JUMPDEST PUSH1 0x0 PUSH2 0x106C DUP6 DUP3 DUP7 ADD PUSH2 0xED9 JUMP JUMPDEST SWAP3 POP POP PUSH1 0x20 DUP4 ADD CALLDATALOAD PUSH8 0xFFFFFFFFFFFFFFFF DUP2 GT ISZERO PUSH2 0x108D JUMPI PUSH2 0x108C PUSH2 0xEB3 JUMP JUMPDEST JUMPDEST PUSH2 0x1099 DUP6 DUP3 DUP7 ADD PUSH2 0x1019 JUMP JUMPDEST SWAP2 POP POP SWAP3 POP SWAP3 SWAP1 POP JUMP JUMPDEST PUSH1 0x0 PUSH1 0x20 DUP3 DUP5 SUB SLT ISZERO PUSH2 0x10B9 JUMPI PUSH2 0x10B8 PUSH2 0xEAE JUMP JUMPDEST JUMPDEST PUSH1 0x0 PUSH2 0x10C7 DUP5 DUP3 DUP6 ADD PUSH2 0xED9 JUMP JUMPDEST SWAP2 POP POP SWAP3 SWAP2 POP POP JUMP JUMPDEST PUSH2 0x10D9 DUP2 PUSH2 0xEB8 JUMP JUMPDEST DUP3 MSTORE POP POP JUMP JUMPDEST PUSH1 0x0 PUSH1 0x20 DUP3 ADD SWAP1 POP PUSH2 0x10F4 PUSH1 0x0 DUP4 ADD DUP5 PUSH2 0x10D0 JUMP JUMPDEST SWAP3 SWAP2 POP POP JUMP JUMPDEST PUSH1 0x0 PUSH20 0xFFFFFFFFFFFFFFFFFFFFFFFFFFFFFFFFFFFFFFFF DUP3 AND SWAP1 POP SWAP2 SWAP1 POP JUMP JUMPDEST PUSH1 0x0 PUSH2 0x1125 DUP3 PUSH2 0x10FA JUMP JUMPDEST SWAP1 POP SWAP2 SWAP1 POP JUMP JUMPDEST PUSH2 0x1135 DUP2 PUSH2 0x111A JUMP JUMPDEST DUP3 MSTORE POP POP JUMP JUMPDEST PUSH1 0x0 PUSH1 0x20 DUP3 ADD SWAP1 POP PUSH2 0x1150 PUSH1 0x0 DUP4 ADD DUP5 PUSH2 0x112C JUMP JUMPDEST SWAP3 SWAP2 POP POP JUMP JUMPDEST PUSH1 0x0 DUP2 ISZERO ISZERO SWAP1 POP SWAP2 SWAP1 POP JUMP JUMPDEST PUSH2 0x116B DUP2 PUSH2 0x1156 JUMP JUMPDEST DUP3 MSTORE POP POP JUMP JUMPDEST PUSH1 0x0 PUSH1 0x40 DUP3 ADD SWAP1 POP PUSH2 0x1186 PUSH1 0x0 DUP4 ADD DUP6 PUSH2 0x10D0 JUMP JUMPDEST PUSH2 0x1193 PUSH1 0x20 DUP4 ADD DUP5 PUSH2 0x1162 JUMP JUMPDEST SWAP4 SWAP3 POP POP POP JUMP JUMPDEST PUSH1 0x0 DUP2 MLOAD SWAP1 POP SWAP2 SWAP1 POP JUMP JUMPDEST PUSH1 0x0 DUP3 DUP3 MSTORE PUSH1 0x20 DUP3 ADD SWAP1 POP SWAP3 SWAP2 POP POP JUMP JUMPDEST PUSH1 0x0 DUP2 SWAP1 POP PUSH1 0x20 DUP3 ADD SWAP1 POP SWAP2 SWAP1 POP JUMP JUMPDEST PUSH2 0x11CF DUP2 PUSH2 0xEB8 JUMP JUMPDEST DUP3 MSTORE POP POP JUMP JUMPDEST PUSH1 0x0 PUSH2 0x11E1 DUP4 DUP4 PUSH2 0x11C6 JUMP JUMPDEST PUSH1 0x20 DUP4 ADD SWAP1 POP SWAP3 SWAP2 POP POP JUMP JUMPDEST PUSH1 0x0 PUSH1 0x20 DUP3 ADD SWAP1 POP SWAP2 SWAP1 POP JUMP JUMPDEST PUSH1 0x0 PUSH2 0x1205 DUP3 PUSH2 0x119A JUMP JUMPDEST PUSH2 0x120F DUP2 DUP6 PUSH2 0x11A5 JUMP JUMPDEST SWAP4 POP PUSH2 0x121A DUP4 PUSH2 0x11B6 JUMP JUMPDEST DUP1 PUSH1 0x0 JUMPDEST DUP4 DUP2 LT ISZERO PUSH2 0x124B JUMPI DUP2 MLOAD PUSH2 0x1232 DUP9 DUP3 PUSH2 0x11D5 JUMP JUMPDEST SWAP8 POP PUSH2 0x123D DUP4 PUSH2 0x11ED JUMP JUMPDEST SWAP3 POP POP PUSH1 0x1 DUP2 ADD SWAP1 POP PUSH2 0x121E JUMP JUMPDEST POP DUP6 SWAP4 POP POP POP POP SWAP3 SWAP2 POP POP JUMP JUMPDEST PUSH1 0x0 PUSH1 0x60 DUP3 ADD SWAP1 POP PUSH2 0x126D PUSH1 0x0 DUP4 ADD DUP7 PUSH2 0x10D0 JUMP JUMPDEST PUSH2 0x127A PUSH1 0x20 DUP4 ADD DUP6 PUSH2 0x1162 JUMP JUMPDEST DUP2 DUP2 SUB PUSH1 0x40 DUP4 ADD MSTORE PUSH2 0x128C DUP2 DUP5 PUSH2 0x11FA JUMP JUMPDEST SWAP1 POP SWAP5 SWAP4 POP POP POP POP JUMP JUMPDEST PUSH2 0x129F DUP2 PUSH2 0x111A JUMP JUMPDEST DUP2 EQ PUSH2 0x12AA JUMPI PUSH1 0x0 DUP1 REVERT JUMPDEST POP JUMP JUMPDEST PUSH1 0x0 DUP2 CALLDATALOAD SWAP1 POP PUSH2 0x12BC DUP2 PUSH2 0x1296 JUMP JUMPDEST SWAP3 SWAP2 POP POP JUMP JUMPDEST PUSH1 0x0 PUSH1 0x20 DUP3 DUP5 SUB SLT ISZERO PUSH2 0x12D8 JUMPI PUSH2 0x12D7 PUSH2 0xEAE JUMP JUMPDEST JUMPDEST PUSH1 0x0 PUSH2 0x12E6 DUP5 DUP3 DUP6 ADD PUSH2 0x12AD JUMP JUMPDEST SWAP2 POP POP SWAP3 SWAP2 POP POP JUMP JUMPDEST PUSH1 0x0 DUP3 DUP3 MSTORE PUSH1 0x20 DUP3 ADD SWAP1 POP SWAP3 SWAP2 POP POP JUMP JUMPDEST PUSH32 0x6F6E6C792056524620563220777261707065722063616E2066756C66696C6C00 PUSH1 0x0 DUP3 ADD MSTORE POP JUMP JUMPDEST PUSH1 0x0 PUSH2 0x1336 PUSH1 0x1F DUP4 PUSH2 0x12EF JUMP JUMPDEST SWAP2 POP PUSH2 0x1341 DUP3 PUSH2 0x1300 JUMP JUMPDEST PUSH1 0x20 DUP3 ADD SWAP1 POP SWAP2 SWAP1 POP JUMP JUMPDEST PUSH1 0x0 PUSH1 0x20 DUP3 ADD SWAP1 POP DUP2 DUP2 SUB PUSH1 0x0 DUP4 ADD MSTORE PUSH2 0x1365 DUP2 PUSH2 0x1329 JUMP JUMPDEST SWAP1 POP SWAP2 SWAP1 POP JUMP JUMPDEST PUSH32 0x4D7573742062652070726F706F736564206F776E657200000000000000000000 PUSH1 0x0 DUP3 ADD MSTORE POP JUMP JUMPDEST PUSH1 0x0 PUSH2 0x13A2 PUSH1 0x16 DUP4 PUSH2 0x12EF JUMP JUMPDEST SWAP2 POP PUSH2 0x13AD DUP3 PUSH2 0x136C JUMP JUMPDEST PUSH1 0x20 DUP3 ADD SWAP1 POP SWAP2 SWAP1 POP JUMP JUMPDEST PUSH1 0x0 PUSH1 0x20 DUP3 ADD SWAP1 POP DUP2 DUP2 SUB PUSH1 0x0 DUP4 ADD MSTORE PUSH2 0x13D1 DUP2 PUSH2 0x1395 JUMP JUMPDEST SWAP1 POP SWAP2 SWAP1 POP JUMP JUMPDEST PUSH1 0x0 DUP2 MLOAD SWAP1 POP PUSH2 0x13E7 DUP2 PUSH2 0xEC2 JUMP JUMPDEST SWAP3 SWAP2 POP POP JUMP JUMPDEST PUSH1 0x0 PUSH1 0x20 DUP3 DUP5 SUB SLT ISZERO PUSH2 0x1403 JUMPI PUSH2 0x1402 PUSH2 0xEAE JUMP JUMPDEST JUMPDEST PUSH1 0x0 PUSH2 0x1411 DUP5 DUP3 DUP6 ADD PUSH2 0x13D8 JUMP JUMPDEST SWAP2 POP POP SWAP3 SWAP2 POP POP JUMP JUMPDEST PUSH1 0x0 PUSH1 0x40 DUP3 ADD SWAP1 POP PUSH2 0x142F PUSH1 0x0 DUP4 ADD DUP6 PUSH2 0x112C JUMP JUMPDEST PUSH2 0x143C PUSH1 0x20 DUP4 ADD DUP5 PUSH2 0x10D0 JUMP JUMPDEST SWAP4 SWAP3 POP POP POP JUMP JUMPDEST PUSH2 0x144C DUP2 PUSH2 0x1156 JUMP JUMPDEST DUP2 EQ PUSH2 0x1457 JUMPI PUSH1 0x0 DUP1 REVERT JUMPDEST POP JUMP JUMPDEST PUSH1 0x0 DUP2 MLOAD SWAP1 POP PUSH2 0x1469 DUP2 PUSH2 0x1443 JUMP JUMPDEST SWAP3 SWAP2 POP POP JUMP JUMPDEST PUSH1 0x0 PUSH1 0x20 DUP3 DUP5 SUB SLT ISZERO PUSH2 0x1485 JUMPI PUSH2 0x1484 PUSH2 0xEAE JUMP JUMPDEST JUMPDEST PUSH1 0x0 PUSH2 0x1493 DUP5 DUP3 DUP6 ADD PUSH2 0x145A JUMP JUMPDEST SWAP2 POP POP SWAP3 SWAP2 POP POP JUMP JUMPDEST PUSH32 0x556E61626C6520746F207472616E736665720000000000000000000000000000 PUSH1 0x0 DUP3 ADD MSTORE POP JUMP JUMPDEST PUSH1 0x0 PUSH2 0x14D2 PUSH1 0x12 DUP4 PUSH2 0x12EF JUMP JUMPDEST SWAP2 POP PUSH2 0x14DD DUP3 PUSH2 0x149C JUMP JUMPDEST PUSH1 0x20 DUP3 ADD SWAP1 POP SWAP2 SWAP1 POP JUMP JUMPDEST PUSH1 0x0 PUSH1 0x20 DUP3 ADD SWAP1 POP DUP2 DUP2 SUB PUSH1 0x0 DUP4 ADD MSTORE PUSH2 0x1501 DUP2 PUSH2 0x14C5 JUMP JUMPDEST SWAP1 POP SWAP2 SWAP1 POP JUMP JUMPDEST PUSH32 0x72657175657374206E6F7420666F756E64000000000000000000000000000000 PUSH1 0x0 DUP3 ADD MSTORE POP JUMP JUMPDEST PUSH1 0x0 PUSH2 0x153E PUSH1 0x11 DUP4 PUSH2 0x12EF JUMP JUMPDEST SWAP2 POP PUSH2 0x1549 DUP3 PUSH2 0x1508 JUMP JUMPDEST PUSH1 0x20 DUP3 ADD SWAP1 POP SWAP2 SWAP1 POP JUMP JUMPDEST PUSH1 0x0 PUSH1 0x20 DUP3 ADD SWAP1 POP DUP2 DUP2 SUB PUSH1 0x0 DUP4 ADD MSTORE PUSH2 0x156D DUP2 PUSH2 0x1531 JUMP JUMPDEST SWAP1 POP SWAP2 SWAP1 POP JUMP JUMPDEST PUSH1 0x0 PUSH4 0xFFFFFFFF DUP3 AND SWAP1 POP SWAP2 SWAP1 POP JUMP JUMPDEST PUSH2 0x158D DUP2 PUSH2 0x1574 JUMP JUMPDEST DUP3 MSTORE POP POP JUMP JUMPDEST PUSH1 0x0 PUSH1 0x20 DUP3 ADD SWAP1 POP PUSH2 0x15A8 PUSH1 0x0 DUP4 ADD DUP5 PUSH2 0x1584 JUMP JUMPDEST SWAP3 SWAP2 POP POP JUMP JUMPDEST PUSH1 0x0 PUSH1 0x40 DUP3 ADD SWAP1 POP PUSH2 0x15C3 PUSH1 0x0 DUP4 ADD DUP6 PUSH2 0x10D0 JUMP JUMPDEST PUSH2 0x15D0 PUSH1 0x20 DUP4 ADD DUP5 PUSH2 0x1584 JUMP JUMPDEST SWAP4 SWAP3 POP POP POP JUMP JUMPDEST PUSH1 0x0 PUSH1 0x60 DUP3 ADD SWAP1 POP PUSH2 0x15EC PUSH1 0x0 DUP4 ADD DUP7 PUSH2 0x10D0 JUMP JUMPDEST DUP2 DUP2 SUB PUSH1 0x20 DUP4 ADD MSTORE PUSH2 0x15FE DUP2 DUP6 PUSH2 0x11FA JUMP JUMPDEST SWAP1 POP PUSH2 0x160D PUSH1 0x40 DUP4 ADD DUP5 PUSH2 0x10D0 JUMP JUMPDEST SWAP5 SWAP4 POP POP POP POP JUMP JUMPDEST PUSH32 0x4F6E6C792063616C6C61626C65206279206F776E657200000000000000000000 PUSH1 0x0 DUP3 ADD MSTORE POP JUMP JUMPDEST PUSH1 0x0 PUSH2 0x164B PUSH1 0x16 DUP4 PUSH2 0x12EF JUMP JUMPDEST SWAP2 POP PUSH2 0x1656 DUP3 PUSH2 0x1615 JUMP JUMPDEST PUSH1 0x20 DUP3 ADD SWAP1 POP SWAP2 SWAP1 POP JUMP JUMPDEST PUSH1 0x0 PUSH1 0x20 DUP3 ADD SWAP1 POP DUP2 DUP2 SUB PUSH1 0x0 DUP4 ADD MSTORE PUSH2 0x167A DUP2 PUSH2 0x163E JUMP JUMPDEST SWAP1 POP SWAP2 SWAP1 POP JUMP JUMPDEST PUSH1 0x0 PUSH2 0xFFFF DUP3 AND SWAP1 POP SWAP2 SWAP1 POP JUMP JUMPDEST PUSH2 0x1698 DUP2 PUSH2 0x1681 JUMP JUMPDEST DUP3 MSTORE POP POP JUMP JUMPDEST PUSH1 0x0 PUSH1 0x60 DUP3 ADD SWAP1 POP PUSH2 0x16B3 PUSH1 0x0 DUP4 ADD DUP7 PUSH2 0x1584 JUMP JUMPDEST PUSH2 0x16C0 PUSH1 0x20 DUP4 ADD DUP6 PUSH2 0x168F JUMP JUMPDEST PUSH2 0x16CD PUSH1 0x40 DUP4 ADD DUP5 PUSH2 0x1584 JUMP JUMPDEST SWAP5 SWAP4 POP POP POP POP JUMP JUMPDEST PUSH1 0x0 DUP2 MLOAD SWAP1 POP SWAP2 SWAP1 POP JUMP JUMPDEST PUSH1 0x0 DUP3 DUP3 MSTORE PUSH1 0x20 DUP3 ADD SWAP1 POP SWAP3 SWAP2 POP POP JUMP JUMPDEST PUSH1 0x0 JUMPDEST DUP4 DUP2 LT ISZERO PUSH2 0x170F JUMPI DUP1 DUP3 ADD MLOAD DUP2 DUP5 ADD MSTORE PUSH1 0x20 DUP2 ADD SWAP1 POP PUSH2 0x16F4 JUMP JUMPDEST PUSH1 0x0 DUP5 DUP5 ADD MSTORE POP POP POP POP JUMP JUMPDEST PUSH1 0x0 PUSH2 0x1726 DUP3 PUSH2 0x16D5 JUMP JUMPDEST PUSH2 0x1730 DUP2 DUP6 PUSH2 0x16E0 JUMP JUMPDEST SWAP4 POP PUSH2 0x1740 DUP2 DUP6 PUSH1 0x20 DUP7 ADD PUSH2 0x16F1 JUMP JUMPDEST PUSH2 0x1749 DUP2 PUSH2 0xEF3 JUMP JUMPDEST DUP5 ADD SWAP2 POP POP SWAP3 SWAP2 POP POP JUMP JUMPDEST PUSH1 0x0 PUSH1 0x60 DUP3 ADD SWAP1 POP PUSH2 0x1769 PUSH1 0x0 DUP4 ADD DUP7 PUSH2 0x112C JUMP JUMPDEST PUSH2 0x1776 PUSH1 0x20 DUP4 ADD DUP6 PUSH2 0x10D0 JUMP JUMPDEST DUP2 DUP2 SUB PUSH1 0x40 DUP4 ADD MSTORE PUSH2 0x1788 DUP2 DUP5 PUSH2 0x171B JUMP JUMPDEST SWAP1 POP SWAP5 SWAP4 POP POP POP POP JUMP JUMPDEST PUSH32 0x43616E6E6F74207472616E7366657220746F2073656C66000000000000000000 PUSH1 0x0 DUP3 ADD MSTORE POP JUMP JUMPDEST PUSH1 0x0 PUSH2 0x17C8 PUSH1 0x17 DUP4 PUSH2 0x12EF JUMP JUMPDEST SWAP2 POP PUSH2 0x17D3 DUP3 PUSH2 0x1792 JUMP JUMPDEST PUSH1 0x20 DUP3 ADD SWAP1 POP SWAP2 SWAP1 POP JUMP JUMPDEST PUSH1 0x0 PUSH1 0x20 DUP3 ADD SWAP1 POP DUP2 DUP2 SUB PUSH1 0x0 DUP4 ADD MSTORE PUSH2 0x17F7 DUP2 PUSH2 0x17BB JUMP JUMPDEST SWAP1 POP SWAP2 SWAP1 POP JUMP INVALID LOG2 PUSH5 0x6970667358 0x22 SLT KECCAK256 0x4C 0x5C PUSH30 0x6B258D9B677B85B4ED680F85C2B6D254B296DCBBF61B780D3C3D0804DF64 PUSH20 0x6F6C634300081200330000000000000000000000 "
				},
				"gasEstimates": {
					"creation": {
						"codeDepositCost": "362800",
						"executionCost": "infinite",
						"totalCost": "infinite"
					},
					"external": {
						"get_requested_num(uint256)": "infinite",
						"transferLink()": "infinite",
						"valid()": "2543"
					}
				},
				"methodIdentifiers": {
					"get_requested_num(uint256)": "330b4655",
					"transferLink()": "5a8ad5b5",
					"valid()": "c1991219"
				}
			},
			"storageLayout": {
				"storage": [
					{
						"astId": 439,
						"contract": "contracts/Combine.sol:test",
						"label": "contra",
						"offset": 0,
						"slot": "0",
						"type": "t_contract(VRFv2DirectFundingConsumer)738"
					},
					{
						"astId": 442,
						"contract": "contracts/Combine.sol:test",
						"label": "linktoken",
						"offset": 0,
						"slot": "1",
						"type": "t_address"
					},
					{
						"astId": 445,
						"contract": "contracts/Combine.sol:test",
						"label": "token",
						"offset": 0,
						"slot": "2",
						"type": "t_contract(ERC20)436"
					},
					{
						"astId": 447,
						"contract": "contracts/Combine.sol:test",
						"label": "valid",
						"offset": 20,
						"slot": "2",
						"type": "t_bool"
					}
				],
				"types": {
					"t_address": {
						"encoding": "inplace",
						"label": "address",
						"numberOfBytes": "20"
					},
					"t_bool": {
						"encoding": "inplace",
						"label": "bool",
						"numberOfBytes": "1"
					},
					"t_contract(ERC20)436": {
						"encoding": "inplace",
						"label": "contract ERC20",
						"numberOfBytes": "20"
					},
					"t_contract(VRFv2DirectFundingConsumer)738": {
						"encoding": "inplace",
						"label": "contract VRFv2DirectFundingConsumer",
						"numberOfBytes": "20"
					}
				}
			},
			"userdoc": {
				"kind": "user",
				"methods": {},
				"version": 1
			}
		}
	}
}